:020000040800F2
:1000000000000220D54300089D450008A1450008D6
:10001000A5450008A9450008AD45000800000000FE
:10002000000000000000000000000000A121000806
:10003000B145000800000000012200086522000808
:1000400025440008254400082544000825440008EC
:1000500025440008254400082544000825440008DC
:1000600025440008254400082544000825440008CC
:1000700025440008254400082544000825440008BC
:100080002544000825440008254400084540000890
:100090000141000881410008014200082544000890
:1000A00079420008954200082544000825440008CC
:1000B000254400082544000825440008254400087C
:1000C000254400082544000825440008254400086C
:1000D000254400082544000825440008254400085C
:1000E000254400082544000825440008254400084C
:1000F000254400082544000825440008254400083C
:10010000254400082544000825440008254400082B
:10011000254400082544000825440008254400081B
:10012000153F000825440008AD3E0008254400089E
:10013000493E0008254400082544000825440008DD
:100140002544000825440008254400083102000821
:1001500025440008254400082544000825440008DB
:1001600025440008254400082544000825440008CB
:10017000254400082544000825440008000000002C
:1001800025440008254400082544000825440008AB
:0401900025440008FA
:1001A00010B5054C237833B9044B13B10448AFF3B1
:1001B00000800123237010BD7000002000000000AB
:1001C000404F000808B5034B1BB103490348AFF388
:1001D000008008BD0000000074000020404F0008AF
:1001E00008B5642003F088F9FBE700BF10B582B0C2
:1001F00004F03EF80224CDE90040084908480023F5
:10020000822202F0A7FE074B07490848CDE90043C8
:100210008022002302F09EFE02B010BD704F000845
:100220002D4300088C000020784F0008E1010008F1
:10023000014801F033BA00BF742F0120D0F87404D4
:1002400004F008BA10B50446D0F8740404F010FAAB
:1002500094F82030022B0ED0E268137843F00103AB
:1002600013706369012B00D010BD054A136943F078
:100270000603136110BD236B002BF2D0ECE700BF27
:1002800000ED00E010B5016B04460039D0F87404AD
:1002900018BF012104F0A2F9D4F87404BDE810409D
:1002A00004F048BA00F58861D0F8740404F072BA1A
:1002B00000EB4113D0F87404D3F8542204F094B93D
:1002C00000EB4113D0F874045A6D04F07FBB00BFFB
:1002D00008B5D0F8C40201F095F9002008BD00BFB0
:1002E00008B5D0F8C40201F057F9002008BD00BFDE
:1002F000D0F8C40201F042B9D0F8C40201F008B944
:1003000008B5D0F8C40200F0BFFC002008BD00BF53
:1003100008B5D0F8C40200F0DFFE002008BD00BF21
:1003200008B5D0F8C40201F067F9002008BD00BF8D
:10033000D0F8740404F0AAB9D0F8740404F0B4B985
:10034000D0F8740404F0C4B9D0F8740404F0D4B93B
:10035000D0F8740404F0D8B983686FF300038360A5
:10036000704700BF03686FF341030360036843F005
:10037000010303604368DB0707D44FF6FF7301E016
:10038000013B02D04268D207FAD5436813F001035B
:100390005FD00B78012B03680CBF43F040036FF371
:1003A000861303604B78012B03680CBF43F02003D6
:1003B0006FF3451303608B78012B03680CBF43F088
:1003C00010036FF304130360CB78012B03680CBF99
:1003D00043F008036FF3C30303600B79012B036839
:1003E0000CBF43F004036FF382030360C36923F07F
:1003F0004043C361C3694A7943EA8273C361C369F5
:100400008A7962F31963C361CA79C36962F31343DA
:10041000C3610A7AC36962F31653C3614B89C26927
:10042000013B63F30902C26103686FF300030360D9
:100430004368D90707D54FF6FF7301E0013B02D0AF
:100440004268D207FAD4406800F0010080F0010051
:1004500070471846704700BF70B400EB01150B01E0
:10046000D5F8B04104F004049460002C39D1D5F8DB
:10047000B041640D146001F11B04260100EB04146B
:100480008659C6F34006D6606468C4F30304147446
:1004900095F8B5415476034403F5DC731C68547435
:1004A0001C68C4F3072494741C68C4F30744D47410
:1004B0001C68C4F3076414755C6854755C68C4F305
:1004C000072494755C68C4F30744D4755B68C3F370
:1004D0000763137651B9C36843F0200370BCC3604F
:1004E0007047D5F8B041E4085460C4E7036943F0AD
:1004F000200370BC03617047D1B9036861F3410305
:100500000360036843F0010303604368DB070AD418
:100510004FF4803304E0013B05D04268D10702D498
:1005200042689207F7D44368DB073ED40020704747
:1005300001291FD00229F9D1036843F002030360A7
:1005400003686FF3000303604368DB0748BF4FF4A1
:10055000803305D407E0013B05D04268D10702D5BE
:1005600042689207F7D54368DB07DFD44068C0F3E1
:100570004000704703686FF34103036003686FF343
:10058000000303604FF4803301E0013B05D0426873
:10059000D107FAD442689207F7D44368D90702D545
:1005A00043689A07C2D4012070474068C0F34000F6
:1005B00080F00100704700BF4369194341617047F3
:1005C00011F4700F07D080690840C0F313000038A1
:1005D00018BF01207047CB0107D540680840C0F321
:1005E0001300003818BF012070470A0107D5806842
:1005F0000840C0F31300003818BF012070478B017A
:100600004CBFC06800690840C0F31300003818BF31
:10061000012070470A4B994209D08A01C1F31303A4
:1006200001D5C36070474A0104D5036170470023B8
:10063000836170470A014CBF83604360704700BF0D
:100640007000F030B1F5007F1DD021D8202915D8D9
:10065000E9B101391F291AD8DFE801F03919194623
:100660001919194B191919191919191919191919C8
:1006700019191919191919191919193440293DD0BD
:10068000B1F5807F46D1436843F00403436070476F
:10069000B1F5004F11D00AD9B1F5803F33D0B1F593
:1006A000003F35D1436843F0100343607047B1F514
:1006B000806FE8D0B1F5006F2BD183696FF306131B
:1006C0008361E0E7036943F00803036170478368CF
:1006D00043F001038360836843F48073836083681D
:1006E00043F4803383607047C36843F00803C360FA
:1006F0007047C36843F01003C3607047036943F059
:10070000100303617047436843F008034360704778
:1007100070477047704700BF10B4114B114C124A1C
:10072000A04288BF134611F0C04F12D04269C2F3F5
:10073000C012C80054BF18685868084020F0F02064
:1007400020F0821010B1101E18BF01205DF8044B7C
:100750007047006800EAD12000F01C02E9E700BF02
:10076000006002400F6402400064024010B4094B74
:10077000094C0A4AA04294BF1846104611F0805F07
:1007800021F0F02121F082115DF8044B0CBF816053
:10079000C1607047006002400F6402400064024084
:1007A0004369194214BF0120002070471E4B30B42A
:1007B000DC6804F4E064B4F5A06F2CD01AD9B4F569
:1007C000C06F2CD0B4F5E06F21D102F00F020423EA
:1007D000164C994041EA02031B01211800F01F0545
:1007E00001224011DBB2AA4081F8003344F82020F6
:1007F00030BC7047B4F5407F06D0B4F5806F06D1A9
:1008000002F001020123E3E700231A46E0E7064B6A
:10081000074CDC60D9E702F003020223D8E702F0BC
:1008200007020323D4E700BF00ED00E000E100E091
:100830000007FA0510B41C4B1C4C0FCB85B00DF112
:10084000100C0CE90F00A368C3F38103012B29D01E
:10085000022B25D16368626812F4800F626814BFAE
:1008600013481448C2F3881203F03F03B0FBF3F3BC
:1008700002FB03F20D4B5868C0F301400130400009
:10088000B2FBF0F2094B9B6804A9C3F303130B44BA
:1008900013F8100C22FA00F005B05DF8044B704715
:1008A000044AEFE7024AEDE7584F000800380240DB
:1008B00000127A000024F400024A136C18431064FA
:1008C000704700BF0038024041627047406B70477C
:1008D00003690B4005D0C368194214BF01200020F2
:1008E00070471846704700BFC9430161704700BF99
:1008F000006A7047406900F001007047836919433E
:1009000081617047836923EA01018161704700BFFB
:100910004369826913400B4214BF012000207047D5
:1009200042698069104070474161704782B000237E
:10093000019305E0019B0133B3F5403F019302D8D9
:100940000369002BF6DA036961F38A130361036913
:10095000002243F020030361019205E0019B013373
:10096000B3F5403F019302D803699B06F6D402B069
:10097000704700BF012A05D00922C36862F38D23A6
:10098000C36070471F4B4909A3FB0131C909A1F19D
:100990008E03072B23D9A1F19603092B25D9A1F1A9
:1009A000A0030B2B23D9A1F1AC030C2B21D9A1F16E
:1009B000B9030E2B1FD9A1F1C803112B1DD9A1F129
:1009C000DA03152BD8D9A1F1F003242B17D96FF432
:1009D0008A7319442B2934BF07220622CDE7C36846
:1009E0000F2262F38D23C36070470E22C5E70D22EC
:1009F000C3E70C22C1E70B22BFE70A22BDE70822AA
:100A0000BBE700BFC55A7C0A30B44B78EBB10C7819
:100A1000C369C5690122A2401A4392B204F10803D6
:100A200062F30F055B01C561C25815042FD4C2588B
:100A3000CD6865F30A02C250C258897861F39342C7
:100A4000C250C25864F3995218E00B78C569C46962
:100A500001229A4042EA154292B2183362F31F44CF
:100A60005B01C461C258120411D4CC68C25864F34B
:100A70000A02C2508978C25861F39342C250C258E8
:100A800042F08052C250C25842F40042C25030BCC0
:100A9000704700BF8068C0F341007047038861F36E
:100AA0000A130380704700BF83886FF300038380BD
:100AB000704700BF10B40123C469C2698B4043EA88
:100AC00014439BB263F31F425DF8044BC26170474D
:100AD00010B40123C469C2698B4023439BB263F302
:100AE0000F025DF8044BC261704700BF426B0123E7
:100AF00003FA01F111434163704700BF436B0122C8
:100B000002FA01F123EA010343637047436C19437E
:100B100041647047D0F884301943C0F8841070479E
:100B20000369194301617047436919434161704783
:100B30008269C3691B0C03EA124070478269C3696A
:100B40009BB202EA0300704700EB4111D1F8083371
:100B50001A40D0B2003818BF0120704700EB411195
:100B6000D1F808311A40D0B2003818BF01207047C0
:100B700000EB4111D1F808331A43C1F8082370473C
:100B800000EB4111D1F808311A43C1F80821704730
:100B900030B49DF808505DB903339B0808D002EBD0
:100BA000830300EB013052F8041B01609342FAD139
:100BB00030BC704710B4940818D001EB840403686B
:100BC00041F8043B8C42FAD112F003020BD00368C7
:100BD0002370012A07D0032A4FEA132108BF1B0CF8
:100BE000617008BFA3705DF8044B70470C46EBE7DB
:100BF0002DE9F04100EB4115D5E916329A4282B059
:100C00003FD8064640684FEA411800EB080C0F46F3
:100C1000991ADCF818418C46E96C614528BF614699
:100C2000A4B20331B4EB910F1ED228E00BB3EB6CEE
:100C300096F82C006A6D00909C4228BF1C46A3B217
:100C4000B068FFF7A5FF70686B6DEA6D00EB080CEC
:100C50001919DCF81831696522449BB20334B3EBEF
:100C6000940FEA65AB6D0AD39342A3EB02043946B5
:100C7000DCD8394602B0BDE8F041FFF73FBF9342F0
:100C8000F7D902B0BDE8F0812DE9F04701F00F0679
:100C900000EB461601F00F04002586F8415286F855
:100CA0004042C76AC6F85422012F08BF3146C6E940
:100CB000963582B04FEA441508BFC1F84822002C8F
:100CC00000F08E8096F8414296F84012FFB2002C58
:100CD0003CD1426802EB411300EB050ED3F810C380
:100CE00064F3DC4CC3F810C3D3F810C364F3120CE4
:100CF000C3F810C3DEF858424FEA411C002C40F004
:100D00000E81D3F81043DEF84CE24FF0010868F38F
:100D1000DC44C3F81043D3F810436EF31204C3F855
:100D20001043012F00F07D8196F84232012B00F034
:100D30006B8118314901535843F080635350535825
:100D400043F00043535002B0BDE8F08700EB0508C4
:100D50004268D8F8583202EB4114002B40F0F5807D
:100D6000D4F810C163F3DC4CC4F810C1D4F810C13E
:100D700063F3120CC4F810C1D4F810C196F842E223
:100D80004FF0010969F3DC4C4F45C4F810C14FEA3C
:100D9000411C00F09A8101F108046601BEF1010FC7
:100DA00052F806C04CF0806C42F806C052F806C0FB
:100DB0004CF0004C42F806C04AD19668640116F423
:100DC000807F1659054414BF46F0005646F0805601
:100DD00016518068D5F854220097FFF7D9FE37E006
:100DE00090F8413290F84012FFB2A3BB456805EB82
:100DF00041134A01D3F8106364F3DC46C3F810636F
:100E0000D3F8106364F31206C3F81063D0F85832B5
:100E1000D0F84C420BB1C0F85842AB180126D3F8B9
:100E2000102366F3DC42C3F81023D3F81023B74233
:100E300064F31202C3F8102300F0C5801831490191
:100E40006B5843F080636B506B5843F000436B501A
:100E500002B0BDE8F087D0F85862436836BB03EBB8
:100E600041120126D2F8105164F3DC45C2F810514A
:100E7000D2F8105164F31205C2F81051D2F81041A3
:100E8000B74266F3DC44C2F810414FEA411200F069
:100E9000B280083149015A5842F080625A505A587B
:100EA00042F000425A5002B0BDE8F08703EB411512
:100EB0004A01D5F810C164F3DC4CC5F810C1D5F86F
:100EC00010C164F3120CC5F810C1D0F84C42A64210
:100ED00040F28180C0F85842D5F810614FF0010C03
:100EE0006CF3DC46C5F81061D5F81061674564F312
:100EF0001206C5F810617ED001F10802520198581F
:100F000040F080609850985840F000409850002C75
:100F10009ED0184602B0BDE8F047FFF7E7BDDEF807
:100F20004CE2D3F810837444013CB4FBFEF464F348
:100F3000DC48C3F81083D3F81083A4B20EFB04F48A
:100F400064F31208C3F81083EBE6D4F810E16FF3F2
:100F5000DC4EC4F810E1D4F810E16FF3120EC4F8BF
:100F600010E1D8F84CA2D4F8109103EB0A0E0EF160
:100F7000FF3EBEFBFAFE6EF3DC49C4F81091D4F8D4
:100F800010E163F3120EC4F810E196F842E2BEF1EC
:100F9000010F4FEA411C67D0012F58D1D8F84832D1
:100FA0002BB19444CCF81431BEF1010F7FD001F184
:100FB00008046401135943F080631351135943F03B
:100FC0000043135144E7D0F85422002A3FF436AFCF
:100FD000C3F8142332E7D5F810414FF0010C6CF33D
:100FE000DC44C5F81041D5F81041674566F312049A
:100FF000C5F810411FD1D0F8480200283FF449AF8E
:101000001A44C2F8140144E718319368480113F4F4
:10101000807F135814BF43F0005343F080531350A4
:1010200088E62844D0F85432002B3FF47DAE944437
:10103000CCF8143378E601F108025201985840F0D8
:1010400080609850985840F00040985061E701F156
:1010500008035B01D05840F08060D050D05840F079
:101060000040D050104655E7D4F810616FF35E761B
:10107000C4F81061D4F81061012F6EF35E76C4F8E5
:1010800010610FD001F10804660152F806C04CF05F
:10109000806C42F806C052F806C04CF0004C42F892
:1010A00006C08AE6D8F84832002B7FF47AAF01F107
:1010B00008049368610113F4807F535814BF43F010
:1010C000005343F08053535073E7D8F84832002B55
:1010D0003FF46AAF65E700BF2DE9F04701F00F0567
:1010E00000EB451501F00F04012185F8411085F84A
:1010F0004040C76A012F08BF29464FF00006EE6541
:10110000C5E9152382B04FEA441608BF8A64002C53
:1011100000F08D8095F8414095F84010FFB2002C0A
:101120003CD1426802EB411300EB060ED3F810C32A
:1011300064F3DC4CC3F810C3D3F810C364F3120C8F
:10114000C3F810C3DEF858404FEA411C002C40F0B1
:101150000681D3F81043DEF84CE04FF0010868F345
:10116000DC44C3F81043D3F810436EF31204C3F801
:101170001043012F00F0738195F84230012B00F0ED
:10118000618118314901535843F0806353505358DB
:1011900043F00043535002B0BDE8F08700EB06086F
:1011A0004268D8F8583002EB4114002B40F0ED8033
:1011B000D4F810C163F3DC4CC4F810C1D4F810C1EA
:1011C00063F3120CC4F810C1D4F810C195F842E0D2
:1011D0004FF0010969F3DC4C4F45C4F810C14FEAE8
:1011E000411C00F08F8101F108046501BEF1010F7F
:1011F00052F805C04CF0806C42F805C052F805C0AA
:101200004CF0004C42F805C046D19568640115F4D5
:10121000807F1559064414BF45F0005545F08055B0
:1012200015518068726D0097FFF7B2FC34E090F8BA
:10123000413090F84010FFB28BBB456805EB41137D
:101240004A01D3F8106364F3DC46C3F81063D3F8A3
:10125000106364F31206C3F81063836DC46C03B1AA
:101260008465AB180126D3F8102366F3DC42C3F87B
:101270001023D3F81023B74264F31202C3F81023EB
:1012800000F0C180183149016B5843F080636B5006
:101290006B5843F000436B5002B0BDE8F087866D99
:1012A000436836BB03EB41120126D2F8105164F3B8
:1012B000DC45C2F81051D2F8105164F31205C2F89F
:1012C0001051D2F81041B74266F3DC44C2F8104125
:1012D0004FEA411200F0AE80083149015A5842F0FD
:1012E00080625A505A5842F000425A5002B0BDE84B
:1012F000F08703EB41154A01D5F810C164F3DC4CCB
:10130000C5F810C1D5F810C164F3120CC5F810C1AE
:10131000C46CA6427ED98465D5F810614FF0010CEB
:101320006CF3DC46C5F81061D5F81061674564F3CD
:101330001206C5F810617DD001F1080252019858DB
:1013400040F080609850985840F000409850002C31
:10135000A2D0184602B0BDE8F047FFF7C7BBDEF8E1
:101360004CE0D3F810837444013CB4FBFEF464F306
:10137000DC48C3F81083D3F81083A4B20EFB04F446
:1013800064F31208C3F81083F3E6D4F810E16FF3A6
:10139000DC4EC4F810E1D4F810E16FF3120EC4F87B
:1013A00010E1D8F84CA0D4F8109103EB0A0E0EF11E
:1013B000FF3EBEFBFAFE6EF3DC49C4F81091D4F890
:1013C00010E163F3120EC4F810E195F842E0BEF1AB
:1013D000010F4FEA411C64D0012F55D1D8F8483095
:1013E0002BB19444CCF81431BEF1010F7CD001F143
:1013F00008046401135943F080631351135943F0F7
:101400000043135148E7426D002A3FF43BAFC3F855
:10141000142337E7D5F810414FF0010C6CF3DC448E
:10142000C5F81041D5F81041674566F31204C5F8B8
:1014300010411DD1806C00283FF44EAF1A44C2F811
:10144000140149E718319368480113F4807F135859
:1014500014BF43F0005343F08053135092E63044DE
:10146000436D002B3FF488AE9444CCF8143383E6EC
:1014700001F108025201985840F080609850985845
:1014800040F00040985064E701F108035B01D05838
:1014900040F08060D050D05840F00040D05010460E
:1014A00058E7D4F810516FF35E75C4F81051D4F8B2
:1014B0001051012F6EF35E75C4F810510FD001F179
:1014C0000804650152F805C04CF0806C42F805C074
:1014D00052F805C04CF0004C42F805C095E6D8F82B
:1014E0004830002B7FF47DAF01F10804936861015F
:1014F00013F4807F535814BF43F0005343F08053DC
:10150000535076E7D8F84830002B3FF46DAF68E7CA
:1015100070B411F0800F01F00F0400EB441115D1ED
:101520000026022A81F8404281F8422281F8416275
:10153000C1F84C3207D004F1120100EB411170BC2C
:101540004068FFF761BA81F84460F4E70126CB6494
:10155000022AE3B281F8404081F8422081F84160DC
:10156000A1F8503002D1002381F84430A11C00EBD7
:10157000411170BC4068FFF747BA00BF0B0604D4A6
:1015800000EB411090F84302704701F07F0100EB3F
:10159000411090F843007047826A01F00F039342B4
:1015A00028D80A0610B41FD403F1120200EB42122D
:1015B0000021517054781370012C4FF00001D1704C
:1015C0000CBF0833183340685B01C45861F35554AD
:1015D000C4509278023A012A03D8C25842F080528D
:1015E000C2505DF8044B70479A1C00EB4212012177
:1015F0005170DFE7704700BF80F870144068FFF754
:101600004DBA00BF826A01F00F03934230D80A0638
:1016100010B416D403F1120200EB421200215170F3
:10162000517813700124A142D47015D00BBB4168CE
:1016300018235B01CA5842F40012CA505DF8044BEB
:1016400070479A1C00EB42120121517051781370BF
:101650000124A142D470E9D1B3B1083342685801E2
:101660001158C90F12D1145861F39E7414500DE033
:1016700070471833416858010A58D20FD9D10C5815
:1016800062F39E740C50D4E7426808235B01D15882
:1016900041F40011D1505DF8044B70472DE9F0473B
:1016A00004460068FFF726F908B1BDE8F087054653
:1016B0002068FFF735F90028F7D020680221FFF7EE
:1016C00027F9002861D120681021FFF721F90028AF
:1016D00040F0CB8120684FF40021FFF719F9002872
:1016E00040F0808120684FF48021FFF711F9002835
:1016F00040F02F8120684FF48051FFF709F900284E
:1017000040F0AC8020684FF00041FFF701F900285D
:1017100040F0988020684FF40061FFF7F9F8002846
:1017200040F0858020684FF40051FFF7F1F8002861
:1017300055D120680821FFF7EBF8002847D1206831
:101740004FF48011FFF7E4F8002836D120684FF4F9
:101750000011FFF7DDF830BB20684FF08041FFF744
:10176000D7F8B8B920680421FFF7D2F800289CD038
:1017700023685B685B0798D52046FEF7E9FD226881
:10178000536843F0040353608FE720680221FFF79A
:10179000CBF898E72046FEF7D7FD20684FF0804150
:1017A000FFF7C2F8DEE720460021FEF7C9FD2068FA
:1017B0004FF40011FFF7B8F8CEE720460021FEF7FE
:1017C000BBFD20684FF48011FFF7AEF8BEE720465E
:1017D000FEF7AEFD20680821FFF7A6F8AFE76068C6
:1017E000D0F800316FF30A03C0F80031838843F466
:1017F00080738380FFF74EF900F0FD03012B03D0C7
:10180000002800F05681FF2323632568FFF712F8B4
:1018100094F8302001462846FFF7ACF82046FEF742
:1018200031FD20684FF40051FFF77EF881E76368CF
:101830009B68DA0700F15D8120684FF40061FFF7D3
:1018400073F86FE76068FFF72FF92046FEF7F6FCA4
:1018500020684FF00041FFF767F85BE76068FFF72B
:1018600023F920681021FFF761F8D4F828C06068D8
:10187000BCF1000F21D04FF67F3705F1180252015D
:1018800000EB451683586FF355538350815805F18B
:10189000080341F0006181505B01C6F80873C2582B
:1018A0006FF35552C2500135C258EDB242F000629A
:1018B0006545C250C6F80871DFD30021FFF7FAF87A
:1018C00060680021FFF704F994F83E306068012B4E
:1018D0004FF00B0100F0EF80FFF722F9606842F251
:1018E0002B01FFF721F960680021FFF7D7F8636843
:1018F00094F82C100022C3F81023D3F810230120F1
:1019000060F3DC42C3F81023D3F8102342F0C04246
:10191000C3F81023D3F81023182060F31202012912
:10192000C3F810230FD104F58862C3F81423D3F849
:10193000002342F40042C3F80023D3F8002342F00E
:101940000042C3F8002320684FF48051FEF7ECFFFB
:10195000D8E66068FFF7F2F804F14C0980460026EB
:1019600005E00136102E09F120093FF4C3AE58FA04
:1019700006F3F7B23FF4BEAED907F2D56068012294
:101980003946FFF7EBF8002840F0CF806068082266
:101990003946FFF7E3F8002840F0C1806068102264
:1019A0003946FFF7DBF8002840F0B380606840223A
:1019B0003946FFF7D3F8002840F0A580606802227E
:1019C0003946FFF7CBF8002840F097806068802206
:1019D0003946FFF7C3F80028C3D039462046FFF741
:1019E00007F9BEE76068FFF7A3F804F513798046AE
:1019F00000264FF0010A05E00136102E09F12009FA
:101A00003FF470AE58FA06F3F7B23FF46BAED80766
:101A1000F2D5606801223946FFF796F8002840F0B9
:101A2000A480606808223946FFF78EF8002840F04D
:101A30009380606810223946FFF786F8002840F04E
:101A4000C880606802223946FFF77EF800287DD101
:101A5000606840223946FFF777F80028CCD06068EC
:101A600039464022FFF784F8C6E720681021FEF7C8
:101A700049FF2068FEF73CFFC0F34343022B00F010
:101A80000F07C0F30A161DD0062B04D020681021C2
:101A9000FEF734FF1EE604EB4717A068082204F5A2
:101AA0008861FFF787F8D7F85C023044C7F85C021A
:101AB000ECE72063A9E6FFF729F860680B21FFF740
:101AC00029F810E7002EE1D004EB4717D7F854129D
:101AD0000029DBD03246A068FFF76CF8D7F8542213
:101AE000D7F85C3232443344C7F85422C7F85C322A
:101AF000CCE72046FEF7A6FB9EE660680222394648
:101B0000FFF73EF862E7606840223946FFF738F891
:101B100054E7606810223946FFF732F846E76068FC
:101B200008223946FFF72CF838E760683946FEF797
:101B3000E5FF606801223946FFF722F8E06A0128D4
:101B400059D039462046FEF7BBFB1FE760680222EA
:101B50003946FFF70DF87BE7606808223946FFF742
:101B600007F82046FEF79EFB63E7606801223946CE
:101B7000FEF7FEFF606800EB4612D2F808E3D2F8E9
:101B80000833D2F81013C1F3120CE16ACEF3C00E81
:101B9000C3F3001319BBBEB9D4F85832A3B9C0F8C7
:101BA0001063D0F810336AF3DC43C0F81033D0F878
:101BB000103343F0C043C0F81033D0F8103318226C
:101BC00062F31203C0F8103339462046FEF770FB6B
:101BD00027E7606810223946FEF7CAFF31E7BEF1F9
:101BE000000F7FF41FAFD3B3B2F8083343F01003F4
:101BF000A2F8083316E7D9F80830D9F80010D9F858
:101C00000C200B44C9F80830002A9AD1002E98D134
:101C10006368C3F81063D3F8102360F3DC42C3F8A1
:101C20001023D3F8102342F0C042C3F81023D3F896
:101C30001013182262F3120104F58862C3F810131E
:101C4000C3F81423D3F8002342F40042C3F800235E
:101C5000D3F8002342F00042C3F8002371E7D9F81B
:101C60000030D9F808205FFA8CF1591A1344C9F8EA
:101C70001010C9F80830002EA6D1D4F85832002B25
:101C8000A2D1C0F81063D0F810336AF3DC43C0F877
:101C90001033D0F8103343F0C043C0F81033D0F8FD
:101CA0001023182363F3120204F58863C0F810238D
:101CB000C0F81433D0F8003343F40043C0F80033C5
:101CC000D0F8003343F00043C0F800337CE700BF96
:101CD0000B68D1ED036AC01A07EE900AB8EEE77AF6
:101CE00007EE903AF8EE677AE7EE267AFCEEE77AAE
:101CF00017EE900AC1ED007A704700BFF0B40B7880
:101D000001EB83020133DBB25060022BD1E90120E9
:101D100084B088BF00230B700227CB680393CDE902
:101D20000120DFB10023012201E055F80C0C04A9C9
:101D300001EB8304D3B254F80C1C814203F101027D
:101D400004AD84BF44F80C0C44F8081CBB4205EBFE
:101D50008205EADB013F0298002FE3D1039B184480
:101D6000400804B0F0BC704730B40A4B0D79C0EBAA
:101D7000C00003EB80026C1E18BF0124157114759E
:101D8000D1E9035089699475C2E90350916100203B
:101D900030BC7047D00000202DE9F041C0EBC003FB
:101DA000174E56F82370798D3B8DCA1A04464FEAB8
:101DB000C00503D5C3F56A4360335A18114B124965
:101DC000A3FB0203D21A03EB52031B09580001EBD9
:101DD00004112D1BF862FFF791FFAD000B4956F877
:101DE0000580F8622401D8F82C002144FFF770FF29
:101DF0007359C8F82C00012283F83020BDE8F08127
:101E0000D000002087611886B000002090000020DC
:101E1000F8B50F4DC0EBC00305EB830755F8232041
:101E2000BB7D02EB43020133DBB2142B044651802D
:101E30004FEAC00607D8BB75341B012255F8243081
:101E400083F83020F8BD0023BB75FFF7A5FFF3E74B
:101E5000D0000020F8B500251C4C2E461AE0A369DE
:101E60009847A27D824225D0D4E902312769013307
:101E7000002A18BF0F46BB42A36006D92379A0757C
:101E8000DB4303F001035840207501350C2D04F1AC
:101E90001C040ED02379022BE8B2E0D1237D01335C
:101EA000DBB2642B08D001350C2D237504F11C0422
:101EB000F0D1F8BDA660E8E72368267593F83020D6
:101EC000012A0CBF83F83060DE62DEE7D00000201C
:101ED000024B53F82000FEF763BC00BF0000002057
:101EE0000F4B70B553F820600C463046C9B2FEF770
:101EF000EFFC012802D00025284670BD3046FEF7D1
:101F0000E5FC85B2032D05D830462146FEF7ECFCF2
:101F1000284670BD00213046FEF7D6FCF4E700BF2E
:101F2000804F00082DE9F041044601F03DFA4B498D
:101F30000F68002F47D04A4B1D6814EA05023CD1B8
:101F4000631E0A3339D8630704F1080630D1DFF87D
:101F500024E1DEF800C0B4452FD34248036803E013
:101F60001A6822B1184613465968B142F8D3BB42E9
:101F700023D01C46A1EB060854F8082B0260B8F1E8
:101F8000100F45D8384E3068ACEB0102824237481A
:101F9000CEF8002038BF32600268294300250132A4
:101FA00059601D60026001F007FA2046BDE8F0812B
:101FB00026F007030833B34228D8002401F0FCF9C7
:101FC0002046BDE8F0812A4A254D274E500714BF10
:101FD000D31D134602F59632A2F1080222F007073C
:101FE0000F602049234A18BF23F007030B601846EF
:101FF000FB1A136000224A604FF00041C7E900223B
:102000002960C0E9007333600D4696E71E469EE7DF
:102010009819144AC0F804805E601646126890420F
:10202000FBD8716806EB010840450AD0416800EB17
:10203000010842450AD002608642596818BF3060E4
:10204000A0E74068014471603046F0E7BA42F2D040
:10205000D2E90027394402604160EDE72002002008
:10206000242E0120382E01202C2E0120302E01207C
:1020700024020020282E012040B1214A50F8043CBF
:102080001268134202D050F8081C01B1704730B5F5
:1020900023EA020383B040F8043C1A4C019001F09B
:1020A00083F90198226850F8041C174B0A442260F7
:1020B00008381A461B689842FBD854681519A8427C
:1020C00019D04418A3420CD00360824218BF10609C
:1020D0000E4A13680133136003B0BDE8304001F0CD
:1020E0006BB90B4C2468A342EED0D3E900342144F1
:1020F00003604160E9E7214451601046E1E700BF19
:10210000242E0120282E0120382E0120342E0120DB
:102110002002002082B0002301934FF0500383F38C
:102120001188BFF36F8FBFF34F8F019B002BFCD043
:1021300002B0704708480068006880F308884FF0D4
:10214000000080F3148862B661B6BFF34F8FBFF30F
:102150006F8F00DF00BF000008ED00E0DFF80C002B
:10216000016841F4700101607047000088ED00E0F3
:1021700030B421F00101094C40F80C4C4FF080754F
:102180006FF0020340F8045C40F8081C40F8202C73
:1021900040F8243C30BC4438704700BF152100088B
:1021A000074B19680868B0E8F04F80F30988BFF35F
:1021B0006F8F4FF0000080F311887047AFF30080FD
:1021C000402E01204FF0500383F31188BFF36F8F2F
:1021D000BFF34F8F024A136801331360704700BF8B
:1021E00020000020034A1368013B13600BB983F3FE
:1021F000118870472000002000000000000000004F
:10220000EFF30980BFF36F8F154B1A681EF0100FA4
:1022100008BF20ED108A20E9F04F10602DE9090079
:102220004FF0500080F31188BFF34F8FBFF36F8FD3
:1022300001F0C4F94FF0000080F3118809BC19685F
:102240000868B0E8F04F1EF0100F08BFB0EC108A1D
:1022500080F30988BFF36F8F704700BFAFF3008032
:10226000402E012008B54FF0500383F31188BFF3CF
:102270006F8FBFF34F8F01F091F918B1034B4FF0FF
:1022800080521A60002383F3118808BD04ED00E03A
:1022900030B4094A094D0A4B0A4C0B480021116021
:1022A00029601B68A4FB03139B09013B0721036002
:1022B00030BC1160704700BF10E000E018E000E0A3
:1022C00038000020D34D621014E000E0144B1A686F
:1022D00010B542F470021A601A6842F0704282B07F
:1022E0001A60FFF7D5FF0F4B00241C60FFF736FF85
:1022F0000D4A136843F040431360FFF71BFF01F0E2
:102300005DF901944FF0500383F31188BFF36F8F91
:10231000BFF34F8F019B002BFCD0002002B010BDFB
:1023200020ED00E02000002034EF00E0F8B5054685
:102330000C4601F039F829682E6905F10C07214394
:10234000B74229601CD000240BE00B4207D0D20119
:1023500041F0007148BF1C4301F036FA2968B742CA
:102360000CD030467668026812F0806F22F07F430E
:10237000EBD033EA010CEAD0B742F2D121EA0401F2
:102380002960BDE8F84001F017B800BF10B40C4652
:1023900013460146224602485DF8044B01F03EBD5B
:1023A0002D23000800F108034FF0FF310022C0E99F
:1023B0000333816002604360704700BF0023036104
:1023C000704700BF4368026810B49C688C609C68CA
:1023D0004B600132616099605DF8044B08610260F6
:1023E000704700BF30B40D686B1C10D000F10803BB
:1023F0001C465B681A68AA42FAD902684B6001322F
:1024000099608C606160086130BC0260704704694B
:102410006368F2E7036910B4D0E901125C688A606E
:102420008442516008BF5A601A685DF8044B00216D
:10243000013A01611A601868704700BF70B5044620
:102440000D46FFF7BFFED4E90F302268626003FB40
:1024500000F3181AFF21134400260244A663C4E9BE
:10246000023284F8441084F84510BDB923691BB9C1
:10247000FFF7B8FE012070BD04F1100001F066F90D
:102480000028F5D00B4B4FF080521A60BFF34F8FEE
:10249000BFF36F8FFFF7A6FE012070BD04F110009F
:1024A000FFF780FF04F12400FFF77CFFFFF79AFE9F
:1024B000012070BD04ED00E0F8B5064601FB00F018
:1024C00050300D461746FFF72DFD044628B335B3AF
:1024D00000F150032360C4E90F65FFF773FED4E9F0
:1024E0000F232168616002FB03F2D31A0B44002022
:1024F0001144FF22A063C4E9021384F8442004F1CC
:10250000100084F84520FFF74DFF04F12400FFF789
:1025100049FFFFF767FE84F84C702046F8BD03467C
:10252000D8E700BF2DE9F047044684B01F4601926A
:10253000884600F12406FFF745FEA26BE36BDFF847
:1025400038939A424FF0000A7CD3022F00F0E780C4
:10255000019D002D00F0108102ADBAF1000F00F0D6
:10256000DA80FFF73FFE00F01FFFFFF72BFE94F825
:102570004430FF2B04BF002384F8443094F84530E6
:10258000FF2B04BF002384F84530FFF72BFE2846BD
:1025900001A901F053F9002840F0F480FFF712FE82
:1025A000A26BE36B9A4261D0FFF71CFEFFF70AFEB5
:1025B00094F845506DB2002D05DC12E06B1E13F04F
:1025C000FF0F5DB20DD0636A304653B101F0BEF823
:1025D0000028F3D001F064F96B1E13F0FF0F5DB219
:1025E000F1D1FF2384F84530FFF7FCFDFFF7EAFD4A
:1025F00094F844506DB2002D15DD04F1100A04E08A
:102600006B1E13F0FF0F5DB20DD02369504653B11E
:1026100001F09CF80028F3D001F042F96B1E13F092
:10262000FF0F5DB2F1D1FF2384F84430FFF7DAFDEC
:1026300000F0C2FEFFF7C6FDA26BE36B9A424FF0BB
:10264000010A82D2226CA56B002A40F0E580266840
:10265000002E00F0F7800135A563636A002B7BD163
:10266000FFF7C0FD012004B0BDE8F08704F1100AB7
:10267000FFF7B8FD0199504600F0CEFFFFF7A2FD2D
:1026800094F845506DB2002D05DC12E06B1E13F07E
:10269000FF0F5DB20DD0636A304653B101F056F8BA
:1026A0000028F3D001F0FCF86B1E13F0FF0F5DB2B1
:1026B000F1D1FF2384F84530FFF794FDFFF782FD49
:1026C00094F844506DB2002D05DC12E06B1E13F03F
:1026D000FF0F5DB20DD02369504653B101F036F8BB
:1026E0000028F3D001F0DCF86B1E13F0FF0F5DB291
:1026F000F1D1FF2384F84430FFF774FD00F05CFE55
:10270000002897D14FF08053C9F80030BFF34F8FA6
:10271000BFF36F8F8EE7284601F084F821E7226C23
:10272000A56B002A93D04146E06802F0F3FB226CCF
:10273000E36821689B1A8B42E360C2F1000204D275
:10274000A3681A44E260022F85D1002D84D10123B1
:10275000A363636A002B83D004F1240000F0F6FF2A
:1027600000283FF47DAF444B4FF080521A60BFF316
:102770004F8FBFF36F8F73E7FFF734FD284604B028
:10278000BDE8F087FFF71EFD94F845506DB2002DAF
:1027900015DD04F1240604E06B1E13F0FF0F5DB29B
:1027A0000DD0636A304653B100F0D0FF0028F3D05B
:1027B00001F076F86B1E13F0FF0F5DB2F1D1FF232D
:1027C00084F84530FFF70EFDFFF7FCFC94F8445009
:1027D0006DB2002D15DD04F1100604E06B1E13F040
:1027E000FF0F5DB20DD02369304653B100F0AEFF4C
:1027F0000028F3D001F054F86B1E13F0FF0F5DB208
:10280000F1D1FF2384F84430FFF7ECFC00F0D4FD55
:10281000002004B0BDE8F0874146FFB9606802F0CF
:1028200079FB6368216CA2680B4493426360FFF4F8
:1028300012AF0135A563636A22686260002B3FF422
:102840000FAF89E7A068013501F040F8A563636A1E
:10285000A660002B80D1002885D101E7E06802F056
:1028600059FB226CE36821689B1A8B42E360C2F13A
:102870000002BFF468AF63E704ED00E02DE9F04328
:10288000044683B090469946EFF311874FF050020B
:1028900082F31188BFF36F8FBFF34F8F856BC06BCF
:1028A00085421FD3022B05D0002087F3118803B087
:1028B000BDE8F08394F84550226CA06BA66B6DB216
:1028C0003ABB2368002B4AD001366B1CA66336D076
:1028D00001356DB284F84550012087F3118803B0AB
:1028E000BDE8F08394F84550226CA06BA66B6DB2E6
:1028F000002AE6D0002B3AD1606802F00BFB636837
:10290000216CA2680B449342636024BF2368636018
:10291000DAE7E06802F0FEFA226CE0682168801ACB
:102920008842E060C2F1000205D2A1680A44E26078
:10293000B9F1020FC8D1012E38BF0126C5E7636A7D
:10294000002BC9D004F1240000F000FF0028C3D000
:10295000B8F1000FC0D00120C8F80000A5E7A068BA
:10296000019300F0B3FF019BA3600136ADE7E0687F
:1029700002F0D0FA226CE0682168801A8842E06098
:10298000C2F10002D4D2D0E72DE9F043044685B06D
:102990000F460192FFF716FCA56B002D40F0268133
:1029A000019B002B00F0D18002A800F03BFFDFF874
:1029B000888204F12406FFF715FC00F0F5FCFFF710
:1029C00001FC94F84430FF2B04BF002384F844300A
:1029D00094F84530FF2B04BF002384F84530FFF7FF
:1029E00001FC01A902A800F029FF00285AD1FFF735
:1029F000E9FBA36B002B40F0AE80FFF7F3FB0199DE
:102A0000304600F009FEFFF7DDFB94F845506DB24B
:102A1000002D05DC12E06B1E13F0FF0F5DB20DD030
:102A2000636A304653B100F091FE0028F3D000F005
:102A300037FF6B1E13F0FF0F5DB2F1D1FF2384F857
:102A40004530FFF7CFFBFFF7BDFB94F844506DB264
:102A5000002D15DD04F1100904E06B1E13F0FF0FCB
:102A60005DB20DD02369484653B100F06FFE0028D7
:102A7000F3D000F015FF6B1E13F0FF0F5DB2F1D124
:102A8000FF2384F84430FFF7ADFB00F095FC0028ED
:102A900052D14FF08053C8F80030BFF34F8FBFF3CF
:102AA0006F8F49E0FFF78EFB94F845506DB2002D13
:102AB00005DC12E06B1E13F0FF0F5DB20DD0636AF0
:102AC000304653B100F042FE0028F3D000F0E8FE9B
:102AD0006B1E13F0FF0F5DB2F1D1FF2384F8453078
:102AE000FFF780FBFFF76EFB94F844506DB2002DAA
:102AF00015DD04F1100904E06B1E13F0FF0F5DB249
:102B00000DD02369484653B100F020FE0028F3D0D1
:102B100000F0C6FE6B1E13F0FF0F5DB2F1D1FF2374
:102B200084F84430FFF75EFB00F046FCFFF74AFBF9
:102B3000A36B53B1FFF756FBFFF744FBA56B002DCA
:102B400054D1019B002B7FF436AFFFF74BFB0020E5
:102B500005B0BDE8F083FFF745FBFFF733FB94F8C2
:102B600045506DB2002D05DC12E06B1E13F0FF0F17
:102B70005DB20DD0636A304653B100F0E7FD002826
:102B8000F3D000F08DFE6B1E13F0FF0F5DB2F1D19C
:102B9000FF2384F84530FFF725FBFFF713FB94F87C
:102BA00044506DB2002D15DD04F1100904E06B1ED8
:102BB00013F0FF0F5DB20DD02369484653B100F00A
:102BC000C5FD0028F3D000F06BFE6B1E13F0FF0F65
:102BD0005DB2F1D1FF2384F84430FFF703FB00F02E
:102BE000EBFBFFF7EFFAA56B002DAAD0226C52B1D8
:102BF000D4E9023111449942E16024BF2168E160C7
:102C0000384602F087F9013DA56323692BB9FFF728
:102C1000E9FA012005B0BDE8F08304F1100000F0EE
:102C200095FD0028F3D0044B4FF080521A60BFF39B
:102C30004F8FBFF36F8FEAE704ED00E0134B1A6884
:102C40007AB19A68B2B11A69B2B19A69B2B11A6A24
:102C5000B2B19A6AB2B11A6B12B19A6BA2B1704753
:102C6000062210B403EBC20443F8321060605DF832
:102C7000044B70470122F4E70222F2E70322F0E757
:102C80000422EEE70522ECE70722EAE7EC33012015
:102C900070B504460E461546FFF794FA94F8443092
:102CA000FF2B04BF002384F8443094F84530FF2BF9
:102CB00004BF002384F84530FFF794FAA36B002B80
:102CC00045D0FFF77FFA94F845506DB2002D15DD21
:102CD00004F1240604E06B1E13F0FF0F5DB20DD06B
:102CE000636A304653B100F031FD0028F3D000F0A4
:102CF000D7FD6B1E13F0FF0F5DB2F1D1FF2384F8F7
:102D00004530FFF76FFAFFF75DFA94F844506DB263
:102D1000002D15DD04F1100604E06B1E13F0FF0F0B
:102D20005DB20DD02369304653B100F00FFD00288D
:102D3000F3D000F0B5FD6B1E13F0FF0F5DB2F1D1C3
:102D4000FF2384F84430BDE87040FFF74BBA2A46B1
:102D5000314604F1240000F0A7FCB2E7074A084816
:102D60004FF080511368012BFCD90160BFF34F8FE6
:102D7000BFF36F8F1368012BF7D8F3E74C2E0120B8
:102D800004ED00E0F8B51B4B1B4E1D68336804468C
:102D9000181D0F46FFF73EFB40B933681749D86A44
:102DA0000B680122824023EA02030B60631C17D0E8
:102DB00033682C195C6007D3114B18683168BDE883
:102DC000F8400431FFF70EBB0E4B18683168043130
:102DD000FFF708FB0C4B1A68A24288BF1C60F8BDC5
:102DE000002FE5D031680948BDE8F8400431FFF70D
:102DF000E9BA00BF242F0120402E0120BC2E012063
:102E0000482E0120442E0120EC2E0120102F0120FD
:102E10002DE9F04F464B1D68013583B01D60002D34
:102E200045D0444B01931B689D4257D3424E3368B3
:102E30001C68002C73D0DFF81481DFF814913F4F29
:102E400000244FF0010A24E00091FFF7E3FADBF8D9
:102E5000282000990BF1180012B1FFF7DBFA009956
:102E6000DBF82C003B680AFA00F200EB80001A4302
:102E700008EB80003A60FFF7A5FAD9F80020306827
:102E8000DBF82C10D26A0368914228BF0124002B82
:102E900049D03368DB68D3F80CB0DBF804200BF1C1
:102EA000040195420846CFD2019B1A601BE0224BD9
:102EB000234A1868234914681C6010600A680132AC
:102EC0000A601A68126812BB1A4B01931A464FF037
:102ED000FF33136013461B689D42A7D2DFF86C8056
:102EE000DFF86C900024D9F800301749DB6A03EB57
:102EF00083039B0058F803200B68022A28BF012493
:102F0000002B0CBF2046012003B0BDE8F08F1B68EA
:102F1000084ADB6801921B681360134683E7DFF8F9
:102F20002C80DFF82C90019A4FF0FF331360DAE722
:102F3000242F0120EC2E0120442E0120BC2E012044
:102F4000482E0120F02E0120282F01204C2E012098
:102F5000402E01202DE9F84F9600804630460D4660
:102F60009946FEF7DFFF002800F0BE800746582094
:102F7000FEF7D8FF0446002800F0C1800763324600
:102F80003846A52101F0D4FFD4F830A0002D00F080
:102F9000C78095F9003084F8343095F90030DBB300
:102FA00095F9013084F8353095F90130A3B395F9DE
:102FB000023084F8363095F902306BB395F903305E
:102FC00084F8373095F9033033B395F9043084F839
:102FD000383095F90430FBB195F9053084F8393073
:102FE00095F90530C3B195F9063084F83A3095F972
:102FF00006308BB195F9073084F83B3095F90730EE
:1030000053B195F9083084F83C3095F908301BB17C
:1030100095F9093084F83D30002384F83D300A9D4D
:10302000042D28BF04254FF0000B271DC4E9125BB7
:10303000E5623846043EFFF7C1F9C5F1050504F124
:1030400018005644FFF7BAF9A56126F00700C4F846
:1030500050B084F854B0246164624A464146FFF798
:1030600087F80B9B206003B11C60FFF7ABF8414A67
:10307000414E1368013313603368002B48D0DFF8EA
:103080002881D8F800309BB3E36ADFF82091DFF89D
:1030900020C1D9F80020DCF800E0384801320125D1
:1030A0002264C9F8002005FA03F203EB830342EA25
:1030B0000E0200EB83003946CCF80020FFF782F9BE
:1030C000FFF790F8D8F80030FBB13268E36AD26AB3
:1030D0009A421AD22A4B4FF080521A60BFF34F8F98
:1030E000BFF36F8F284601E04FF0FF30BDE8F88F47
:1030F0003268E36AD26A9A4298BF3460C5E73846BC
:10310000FEF7BAFF4FF0FF30F0E72846BDE8F88F32
:1031100034601368012B06D0E36ADFF88C80B4E7D3
:1031200084F834507BE71548DFF88890154DDFF8B8
:103130007880FFF737F91448FFF734F91348FFF7A1
:1031400031F91348FFF72EF91248FFF72BF94846DB
:10315000FFF728F92846FFF725F90F48FFF722F96E
:103160000E48FFF71FF90E4B0E4AC2F800901D6083
:10317000E36A8AE7B02E0120402E01204C2E012068
:1031800004ED00E0D42E0120602E0120742E0120D9
:10319000882E01209C2E0120F82E0120102F0120C6
:1031A000482E0120442E01200C2F0120B82E012092
:1031B000BC2E0120C02E01202DE9F8434FF40270EF
:1031C000FEF7B0FE002800F0818005465820FEF78B
:1031D000A9FE044600287DD04FF40272A5210563A4
:1031E000284601F0A5FE0025584B636304F104084E
:1031F000266B84F838504046C4E9125584F83D5097
:10320000E562FFF7DBF804F11800FFF7D7F80523B4
:1032100006F501702A464E49A36120F00700256596
:1032200084F8545024616462FEF7A2FF494B206089
:103230001C60FEF7C7FF484A484F1368013313600C
:103240003B68002B54D0464D2B68002B49D0E36AD5
:10325000444ADFF84CC11668DCF800E04248013609
:10326000166001229A4003EB830342EA0E0200EB50
:10327000830041462664CCF80020FFF7A3F8FEF750
:10328000B1FF2B6863B13A68E36AD26A9A4207D207
:10329000364B4FF080521A60BFF34F8FBFF36F8FE2
:1032A00000F07AFD012811D14FF0500383F311880B
:1032B000BFF36F8FBFF34F8F2D492E4B4FF0FF346D
:1032C00000220C6028601A60FFF700F82A4B1B6888
:1032D000BDE8F8832846FEF7CFFE274B1B68BDE804
:1032E000F8833A68E36AD26A9A4298BF3C60AFE7D3
:1032F0003C601368012B02D0E36A194DA8E71A4815
:10330000DFF8A0901D4E164DFFF74CF81C48FFF754
:1033100049F81C48FFF746F81B48FFF743F81B48DD
:10332000FFF740F84846FFF73DF83046FFF73AF818
:103330001748FFF737F81748FFF734F8164B174AC6
:10334000C2F800901E60E36A82E700BF49444C4522
:103350005D2D0008E82E0120B02E0120402E012016
:103360000C2F0120B82E01204C2E012004ED00E08E
:10337000EC2E0120242F012024000020D42E012037
:10338000602E0120742E0120882E01209C2E012009
:10339000F82E0120102F0120482E0120442E01205C
:1033A000BC2E0120C02E0120024A13680133136095
:1033B000704700BFB42E01202DE9F04F434D83B07C
:1033C000FEF700FF2B68013B2B602B68002B63D1BD
:1033D0003F4B1B68002B5FD0DFF810B1DBF80030EB
:1033E000002B6FD03B4B3C4EDFF80491DFF804819B
:1033F00001930127DBF80C30DC6804F1040A04F1C6
:103400001800FFF707F85046FFF704F8E06A326843
:1034100007FA00F300EB80001343514609EB8000EC
:103420003360FEF7CFFFD8F80030E26ADB6A9A42D9
:103430003AD3019B1F60DBF80030002BDAD1274B19
:103440001A681268002A38D01A68254BD2681268A8
:103450001A60244E346894B1012706E0FFF7D8FCC7
:1034600008B1019B1F60013C08D02B68002BF5D0F0
:103470003368013C03F101033360F6D13460019BF2
:103480001B684BB1184B4FF080521A60BFF34F8F3F
:10349000BFF36F8F012000E000200190FEF7A2FE35
:1034A000019803B0BDE8F08FDBF80030002BA1D10C
:1034B0000A4B1A681268002AC6D1094B4FF0FF3236
:1034C0001A60C6E7034B0193C3E700BFB42E012087
:1034D000B02E0120282F0120BC2E0120442E0120D7
:1034E000EC2E0120F42E012004ED00E0F82E012046
:1034F0004C2E0120402E012070B540B91C4B4FF0DE
:1035000080521A60BFF34F8FBFF36F8F70BD194A9F
:103510001368013304461360174B184D1E68286862
:103520000430FEF777FF40B92B681549D86A0B685D
:103530000122824023EA02030B602B68A4195C601D
:103540000FD2104B186829680431FEF74BFF0E4B61
:103550001A68944238BF1C60FFF72EFF0028CDD0B8
:1035600070BD0A4B186829680431FEF73BFFF3E78A
:1035700004ED00E0B42E0120242F0120402E012074
:10358000BC2E0120442E0120EC2E0120482E0120CB
:10359000014B1868704700BF242F0120054B1B68A2
:1035A0000BB9FFF735BC044A1368013313600020E0
:1035B000704700BFB42E0120F42E0120114B1B6870
:1035C0001BB1114B01221A6070470F490F4A0B6063
:1035D0001368B3FA83F3DBB20D4AC3F11F0303EBA5
:1035E000830302EB83010B464A6852684A60083342
:1035F0009A4208BF5268074B08BF4A60D2681A60F7
:10360000704700BFB42E0120282F0120BC2E0120BE
:103610004C2E0120402E012070B51C4D2B680C460D
:1036200003F11801FEF7DEFE194B1E68286804300E
:10363000FEF7F0FE40B92B681649D86A0B680122E4
:10364000824023EA02030B60631C17D02B68A41985
:103650005C6007D3104B18682968BDE870400431DE
:10366000FEF7C0BE0D4B186829680431FEF7BAFE9C
:103670000B4B1A68944238BF1C6070BD296809481A
:10368000BDE870400431FEF79DBE00BF402E012012
:10369000242F0120BC2E0120482E0120442E012081
:1036A000EC2E0120102F0120F8B5214D2B680C467F
:1036B00003F118011646FEF785FE1E4B1F682868A9
:1036C0000430EEB9FEF7A6FE50B92B681A49D86A45
:1036D0000B680122824023EA02030B60631C1DD0A9
:1036E0002B683C195C6011D2144B186829680431AE
:1036F000FEF778FE124B1A68944200D21C60F8BDA7
:10370000FEF788FE60B94FF0FF34DEE70D4B186816
:103710002968BDE8F8400431FEF764BE002EDFD012
:1037200029680948BDE8F8400431FEF74BBE00BFE8
:10373000402E0120242F0120BC2E0120442E0120E8
:10374000EC2E0120482E0120102F012070B5C368F7
:10375000DC6804F1180582B02846FEF75BFE144BC6
:103760001B68FBB9211D134D01910846FEF752FE5F
:10377000E26A2E68104801990123934002EB82020D
:10378000334300EB82002B60FEF71CFE0B4BE26A1A
:103790001B68DB6A9A4285BF094B01200020186034
:1037A00002B070BD07482946FEF70CFEEEE700BFE9
:1037B000B42E0120BC2E01204C2E0120402E0120D1
:1037C000282F0120F82E0120F8B5C468114D41F0D2
:1037D00000410160261DFEF71DFE3046FEF71AFE71
:1037E000E36AD5F800C00C48012707FA03F203EB9F
:1037F000830342EA0C0200EB830031462A60FEF7A5
:10380000E1FD064BE26A1B68DB6A9A4284BF044B07
:103810001F60F8BDBC2E01204C2E0120402E01203F
:10382000282F0120034A044B12681B68C0E90023BB
:10383000704700BFF02E0120242F0120F0B50D4667
:1038400083B00446FEF7BEFC2B68134A591C10686F
:103850001FD0DFF848C0D4E90061DCF80070BE4238
:103860000AD0814208D800232B6001200190FEF786
:10387000B9FC019803B0F0BD471ABB42F3D91B1A3B
:103880000B44DCF8001012682B600020C4E9001221
:10389000ECE70020EAE700BF242F0120F02E0120F2
:1038A000014B01221A607047282F0120054B1B682D
:1038B00033B1054B1B68002B0CBF02200020704762
:1038C000012070470C2F0120B42E012068B1F0B503
:1038D000C36CC16A826C013B914283B00446C364ED
:1038E00000D023B1002003B0F0BD00207047011DBF
:1038F00008460191FEF78EFD01990F4A30B9E56A3D
:1039000013680120A84023EA00031360A36C176822
:103910000A48E362012505FA03F63E43C3F10507B1
:1039200003EB830300EB8300A7611660FEF74AFDFB
:10393000284603B0F0BD00BFBC2E01204C2E012054
:103940002DE9F041274D82B004461E4688461746B1
:10395000FEF738FC2B68234493F85430022B0DD02B
:103960002B6803EB840301211A6D22EA08021A6511
:103970002B68234483F85410089BEBB9FEF732FC04
:10398000FEF720FC2EB12B6804F1140253F822300C
:1039900033602B68234493F85430022B18D0002056
:1039A0002B6801901C44002384F85430FEF71AFC65
:1039B000019802B0BDE8F0811846FFF7E3F90A4B21
:1039C0004FF080521A60BFF34F8FBFF36F8FD5E770
:1039D0002B6803EB840301201A6D22EA07071F6599
:1039E000DEE700BF402E012004ED00E02DE9F041AC
:1039F00082B00746DDF820800C4616461D46FEF7CD
:103A0000E1FBB8F1000F05D004F1140357F823309F
:103A1000C8F8003039196B1E91F854500222EDB2EB
:103A200081F85420032B08D8DFE803F0023A114054
:103A300007EB8404226D16432665012D0CD001206E
:103A40000190FEF7CFFB019802B0BDE8F08114347D
:103A5000012D47F82460F2D1391D164C019108461A
:103A6000FEF7D8FCFB6A26681348019905FA03F2B1
:103A700003EB8303324300EB83002260FEF7A2FCDA
:103A80000E4BFA6A1B68DB6A9A42D8D90C4B4FF08E
:103A900080521A60BFF34F8FBFF36F8F2846CFE776
:103AA00007EB8404236D01332365C6E7022DCED1D5
:103AB0000020C5E7BC2E01204C2E0120402E012005
:103AC00004ED00E02DE9F0431D4EDFF87C9085B059
:103AD0004FF000080DE0DB68DC681F68251D2846F4
:103AE000FEF798FC236A2046984794F828305B0735
:103AF0000AD433681A68002AEDD1124A116831607D
:103B0000136005B0BDE8F083A3693B449F4229469A
:103B100010D3D9F80030002BEBD0CDE90087029408
:103B2000FFF7C4FE0023D9F800001A466946FEF7E5
:103B3000F9FCDEE7306863602461FEF753FCD8E7E8
:103B40002C2F0120302F0120602F01202DE9F04F74
:103B50008C4F8D4DDFF838828C4EDFF838A28BB059
:103B60003B68D3F800B0BBF1000F00F0A480DB6825
:103B7000D3F800B0FFF718FCFFF70AFD2A6882426D
:103B8000814600F2A9808345286040F2B980002276
:103B90003068ABEB0901FFF77BF8FFF70DFC38B994
:103BA0004FF08053CAF80030BFF34F8FBFF36F8FD1
:103BB0003068002202A9FEF7E7FE0028D0D0029B61
:103BC000002B6FDB049C636913B1201DFEF722FC00
:103BD000FFF7DEFC2B6898428146C0F08480029B90
:103BE000C5F80090092BE3D8DFE803F00505054B85
:103BF000345305054B3494F828100398A2692461C6
:103C0000831841F0010184F828102CBF0121002104
:103C10004B4563606AD8A9EB000082422AD8236A28
:103C20002046984794F8283030685907C1D50028B5
:103C3000BFD0A269039B00211344CDE9073406914C
:103C4000FFF734FE002330681A4606A9FEF76AFC27
:103C50003068AEE7039A94F82830246102EB09013A
:103C600043F00103494584F82830A261616041D8DE
:103C7000002A9DD0D8F80000211DFEF7B3FB306864
:103C800097E794F82830306823F0010384F828304F
:103C90008FE794F828309A074AD523F0010384F877
:103CA000283085E7039BDDE904019847029B002B40
:103CB000FFF67EAF86E7FFF777FBFFF769FC2A6820
:103CC0008242814608D8D8F80020C5F800901268D2
:103CD000B2FA82F252095BE7FFF7F4FEC5F80090F2
:103CE000FFF76AFB64E7FFF7EDFE78E7484501D987
:103CF000002994D03868211DFEF774FB306858E71E
:103D0000FFF75AFB3A68D268D468211D0846019132
:103D1000FEF780FB94F82800019910F0040F0CD1F5
:103D200020F0010084F82800236A204698473FE7E6
:103D30002046FEF7A1F930683BE7A26924610BEB4E
:103D400002004845606003D93868FEF74BFBEBE79B
:103D5000A9EB0B039A420FD83368002BE4D0002361
:103D6000CDE9063B0894FFF7A1FD002330681A4611
:103D700006A9FEF7D7FBD7E7D8F80000FEF732FB1D
:103D8000D2E700BF2C2F01205C2F0120602F0120E3
:103D9000302F012004ED00E0F0B5174C83B0FEF7A2
:103DA00011FA256885B1FEF71DFA206850B1134B52
:103DB0000193022300931249124800234FF48272A8
:103DC000FFF7C8F803B0F0BD0F4F104E3846FEF7AE
:103DD000E9FA3046FEF7E6FA0D4A0E4B176010215D
:103DE0002A460A201E60FEF767FB20600028DAD012
:103DF0000949FEF723FFD6E7602F0120642F012039
:103E0000C04F00084D3B0008342F0120482F0120EF
:103E10002C2F0120302F0120B84F000870B5094E1B
:103E200084B00446154601941A4602913068039501
:103E30006FF00104002369460094FEF71FFD04B0F3
:103E400070BD00BF602F012010B51349134882B028
:103E5000FCF762FC012801D002B010BD04461048F6
:103E6000FCF77AFA0C490D48FCF780FC0D4B214613
:103E7000D3F8DC0501AA00230193FEF787FA019B22
:103E8000002BE9D0084B4FF080521A60BFF34F8FE0
:103E9000BFF36F8F02B010BD20800010706402402D
:103EA000002001400000001004ED00E010B51448AF
:103EB00082B04FF40211FCF72FFC012801D002B0B0
:103EC00010BD04460F48FCF747FA0F490C48FCF7B1
:103ED0004DFC0E4B2146D3F8DC0501AA00230193CB
:103EE000FEF754FA019B002BE9D0094B4FF08052AA
:103EF0001A60BFF34F8FBFF36F8F02B010BD00BFCA
:103F000040640240002101402080001000000010A9
:103F100004ED00E010B5144882B048F22001FCF72F
:103F2000FBFB012801D002B010BD04460F48FCF78E
:103F300013FA0F490C48FCF719FC0E4B2146D3F835
:103F4000DC0501AA00230193FEF720FA019B002B58
:103F5000E9D0094B4FF080521A60BFF34F8FBFF387
:103F60006F8F02B010BD00BF1064024000220140FC
:103F7000208000100000001004ED00E010B50446A1
:103F800084B04FF00070FCF797FC4FF480320023B0
:103F9000642C0192ADF8083040D02FD8142C41D0B9
:103FA000322C24D17823ADF80E3004230DEB03011D
:103FB0004FF4606222488DF80C30ADF80A20FCF70F
:103FC000D1F91F4840F21341FCF7F6FA002205210F
:103FD0001420FCF7EBFB002205211520FCF7E6FB83
:103FE000002205211620FCF7E1FB04B010BD0A2CCD
:103FF0001DD14FF41673ADF80E30D6E7B4F5FA7F45
:1040000019D0B4F57A7F03D10223ADF80E30CCE796
:10401000FA2C0CD10823ADF80E30C6E71423ADF806
:104020000E30C2E74FF49673ADF80E30BDE71023A3
:10403000ADF80E30B9E70423ADF80E30B5E700BF98
:104040000064004010B582B000232749274801933F
:10405000FCF7B6FA01281BD025492448FCF7B0FA32
:10406000012826D023492148FCF7AAFA012830D09C
:104070001E480121FCF7E6FA019B3BB11E4B4FF0B5
:1040800080521A60BFF34F8FBFF36F8F02B010BD25
:10409000154904461548FCF7BDFA184B2146186827
:1040A00001AAFEF773F912491048FCF789FA0128B2
:1040B000D8D10F490D48FCF7ADFA104B01AA18688A
:1040C0000221FEF763F90B490848FCF779FA012849
:1040D000CED108490548FCF79DFA084B01AA18689B
:1040E0000421FEF753F9C3E70100003800640040E3
:1040F000000100380000013804ED00E030340120F8
:1041000030B58DB01A4805AA0021FCF7A5F9089B27
:10411000022B05D116480221FCF794FA0DB030BDF0
:10412000144C9DF82410144A059B9DF82D508DF8D1
:104130000810DDF8251010680193ADF81250002327
:10414000DDF82950CDF80910224601A92360CDF8E9
:104150000D50FEF793FB2368002BDBD0074B4FF08D
:1041600080521A60BFF34F8FBFF36F8FD2E700BF4B
:10417000006400406C2F01202C34012004ED00E08D
:1041800030B58DB01A4805AA0121FCF765F9089BE6
:10419000022B05D116481021FCF754FA0DB030BDA2
:1041A000144C9DF82410144A059B9DF82D508DF851
:1041B0000810DDF8251010680193ADF812500023A7
:1041C000DDF82950CDF80910224601A92360CDF869
:1041D0000D50FEF753FB2368002BDBD0074B4FF04D
:1041E00080521A60BFF34F8FBFF36F8FD2E700BFCB
:1041F000006400406C2F01202C34012004ED00E00D
:1042000070B5104C104D20464FF48061FCF71AFA3F
:104210000E4B00211868FEF711F90D4B00211868AC
:10422000FEF70CF92E8800212046FCF765F9304690
:104230002E80FFF7A3FE20460121BDE87040FCF769
:104240005BB900BF00640040682F012034340120B6
:104250002C3401200B2801D900207047034B03EBBD
:10426000800233F820109078FDF732BEC84F000866
:1042700000487047E005001008B502210820FDF74E
:104280002FFE032800D808BD0146BDE808400820DD
:10429000FDF7BEBD08B502210920FDF721FE032868
:1042A00000D808BD0146BDE808400520FDF7B0BDB7
:1042B00010B588B01C4B079301A90A240020CDE952
:1042C00004448DF80800FDF74FFD01A90120FDF71A
:1042D0004BFD01A90220FDF747FD01A90320FDF7D1
:1042E00043FD01A90420FDF73FFD01A90520FDF7CD
:1042F0003BFD01A90620FDF737FD01A90720FDF7C9
:1043000033FD01A90820FDF72FFD01A90920FDF7C4
:104310002BFD01A92046FDF727FD01A90B20FDF784
:1043200023FD08B010BD00BF5542000880B5284CE1
:10433000002584B02572012603270120FFF7DCF851
:10434000237A042BF9D801A252F823F0B3430008D2
:10435000994300083B43000881430008614300087B
:10436000FDF778FD00210095084603ABFF22FFF71B
:10437000E7FA0128E1D1039B9B07DED52772DCE732
:10438000636804221868009503230021FFF72EFBC1
:104390000128D2D12572D0E76368042218680095FD
:1043A00003230021FFF722FB0128C6D10423237237
:1043B000C3E7642300210093FF2203AB0846FFF705
:1043C000BFFA039B9A07B8D0FFF772FF2672B4E7D3
:1043D000E0050010DFF834D00D480E490E4A0023E6
:1043E00002E0D458C4500433C4188C42F9D30B4AA9
:1043F0000B4C002301E013600432A242FBD300F017
:1044000013F800F063FD00F0D5F8704700000220BB
:104410000000002070000020005000087000002004
:1044200038340120FEE700003A493B4BD1F88820A0
:104430003A4810B442F47002C1F888201A6800218A
:1044400042F001021A6099601A6822F0847222F424
:1044500080321A6058601A6822F480221A60D9608B
:104460001A6883B042F480321A600191019AB2F561
:10447000A04F07D309E0019A01320192019AB2F5E7
:10448000A04F02D21A689003F5D5234B1A68910306
:1044900037D51A6C2249234842F080521A640A68C0
:1044A000012464F38F320A609A686FF307129A60EE
:1044B0009A68042161F34F329A609A68052161F38A
:1044C0008C229A6058605A6842F480025A601A68D6
:1044D00042F080721A601A689201FCD5124A0E49A5
:1044E00040F2057010609A686FF301029A609A6852
:1044F000022060F301029A608B68C3F38103022BF0
:10450000FAD1044B4FF000629A6003B05DF8044B9F
:10451000704700BF00ED00E000380240103000247A
:104520000070004008540007003C0240164A93689F
:10453000C3F38103012B0CD0022B0CD0134B124A76
:10454000134892681349C2F30312825CD3400B6094
:104550007047114BF3E75368516813F4800F01F073
:104560003F0153680CBF094A0B4AB2FBF1F1064AFE
:104570005268C2F30142C3F38813013203FB01F313
:104580005200B3FBF2F3DAE7003802400024F400F3
:10459000280000203800002000127A00704700BF79
:1045A000FEE700BFFEE700BFFEE700BFFEE700BF7B
:1045B000704700BF08B5FFF7B9FF074AD3684FF649
:1045C000FF010B4043F0BF6343F40033D360FBF7BC
:1045D0000DFEFEF7F1FDFEE700ED00E0013918BF2A
:1045E000012101720020704770B5044621B10378A3
:1045F000032B14D0002070BD15468278032AF9D110
:10460000D0F88C210B46D0F88411914210D8027852
:10461000032A17D0204600F043FA002070BD03693A
:104620005B6A002BE6D00022BDE87040C2611847EB
:10463000891A8A4228BF0A46C0F88411294600F028
:1046400027FAD7E70269D269002AE3D0C36190470D
:10465000E0E700BF10B50446D0F8C0320221984709
:104660002378042B02D16378DBB22370002010BDC5
:1046700010B50446D0F8C0320321984723780422AD
:10468000DBB263702270002010BD00BF0278032AE5
:1046900001D00020704708B5036913B11B6903B14D
:1046A0009847002008BD00BF8269043250F82220DC
:1046B00052B108B50378032B01D0002008BDD36A9E
:1046C00023B19847002008BD02207047184608BD56
:1046D0008269043250F8222052B108B50378032BC6
:1046E00001D0002008BD936A23B19847002008BD7F
:1046F00002207047184608BD08B50421D0F8C03222
:104700009847002008BD00BF38B503690122044660
:10471000027023B1DB6890F82C10984738B9002557
:104720002046D4F8C03205219847284638BD0225D6
:10473000F6E700BFF8B503690021012202700446C4
:10474000C16280F83810C16381701BB1DB680BB1A6
:104750009847E0B90027002240231E460125114654
:104760002046FBF7C9FD334600222046A4F89051AD
:10477000C4F88C618021FBF7BFFD2046D4F8C0321D
:10478000A4F85050E664294698473846F8BD0227F9
:10479000E1E700BF2DE9F047044600F12408084690
:1047A000414600F063F994F8241094F82B0094F833
:1047B0002A30628D626001F01F06012243EA002365
:1047C000012EA2701DB294F8257094F8263094F84A
:1047D0002720C1F341190BD0022E28D0002E3BD048
:1047E000C9092046FBF774FD07463846BDE8F08747
:1047F000B9F1030F28D02378013B022B24D8A02F36
:1048000078D094F82830012B1ED823695B690022E8
:10481000A261002B6CD041462046984707460028ED
:10482000E3D1ADB9204600F03BF90027DDE7B9F14F
:10483000000F21D143EA0223012F94F828101BB264
:1048400062D0032F6ED08FB34146204600F032FB7A
:1048500000273846BDE8F087B9F1000F1AD0B9F14A
:10486000030FF1D0A3690433414654F823302046A6
:104870005B6937469847B8E7B9F1030FE4D023697D
:104880005B690022A261002BE2D041462046BDE8D0
:10489000F04718470C2FD7D84B4B53F82730002B35
:1048A000D6D04146204698474F469EE72378022BB4
:1048B000DAB25ED0032A45D101F00F0303EB830384
:1048C0000D0604EB830364D4B3F89031002B39D088
:1048D000142505FB014505F5C075002966D10023A7
:1048E000AB6005F108012046022200F0EDF87CE7FC
:1048F00002277AE7A3690433414654F8233020465F
:104900005B699847002770E72278022AD0B21ED050
:10491000032828D1002B9BD148064ED1204600F019
:10492000BFF8ACE72278022AD0B210D003288BD18E
:104930004A063FF477AF2B437FF474AF2046FBF772
:10494000C7FC6FE74146204600F0B4FA4DE711F08E
:104950007F07F7D02046FBF7BBFC204680214F465F
:10496000FBF7B6FC41E74146204600F0A3FA4F466C
:104970003BE749B904F5C071002341F8083F2046E0
:10498000022200F0A1F830E78029DBD104F14001D8
:10499000F2E7B3F85030002BD4D001F07F05142398
:1049A00003FB0545802905F1400598D02046FBF71B
:1049B0009FFC30B10123AB6093E72046FBF790FCEE
:1049C000ACE7A8608DE700BF3C00002070B504464E
:1049D00021B10378032B0ED0002070BD13468278DE
:1049E000022A11D094F83830012B04BF002384F838
:1049F0003830002070BD03691B6A002BECD0002208
:104A0000BDE8704082611847426CC66CB2420D46E8
:104A10000BD816D02378032B1ED080212046FBF71D
:104A200057FC204600F046F8DCE7921B426419462A
:104A300000F056F82B462A4629462046FBF760FC34
:104A4000D0E7036C9A42E5D842689342E2D20A4624
:104A500000F046F86560EDE723699B69002BDCD028
:104A60000022A26120469847D7E700BF03780B7069
:104A700043784B7083788B70C378CB7003790B715C
:104A800043794B7183798B71C379CB710020704767
:104A900008B513460A460021FBF732FC002008BD8A
:104AA00008B50421002381701A461946FBF730FC33
:104AB000002008BD08B50521002381701A4619465B
:104AC000FBF71EFC002008BD38B5134602250A4638
:104AD000C0E9103385700021FBF71AFC002038BDB7
:104AE00008B513460A460021FBF712FC002008BD5A
:104AF00000207047F8B58C783B4F012C3C7006467F
:104B00004CD80378022BDDB22AD0032D10D080219F
:104B1000FBF7DEFB00213046FBF7DAFB336939781F
:104B2000DB6830469847041E18BF02242046F8BDB3
:104B300044B3C16A01290DD00369C9B2DB68984743
:104B400033693978F1622BB19B6830469847044647
:104B5000002837D130460024FFF7A2FF2046F8BDD9
:104B6000002CF7D003690121C1621BB19B689847F3
:104B70000446E8B93046FFF793FF0323002433705F
:104B80002046F8BD022203690270DB68C462214638
:104B900098473046FFF784FF2046F8BD8021FBF799
:104BA00097FB022430460021FBF792FB2046F8BD1C
:104BB00080213046FBF78CFB00213046FBF788FB59
:104BC0003570B3E780213046FBF782FB0021304689
:104BD000FBF77EFB336996F82C10DB68304698476C
:104BE00002233370A2E700BF702F0120F0B58A794D
:104BF000CC79CB7842EA0422013B83B0054616B259
:104C00001446062B0BD8DFE803F02E493E0A0A5162
:104C10001600EE2B03D1C3681B6A002B5FD18021E5
:104C20002846FBF755FB28460021FBF751FB0227DE
:104C3000384603B0F0BD017A0029F0D0C368684659
:104C40005B6A98479DF80470B4B1002F38D0A74232
:104C500088BFF7B23A4600992846FFF735FF00278C
:104C6000384603B0F0BDC368017A5B686846984770
:104C70009DF80470002CE8D12846FFF711FF274665
:104C8000384603B0F0BD8B78052BC2D8013B042B0E
:104C900021D8DFE803F039342F2A3E00C368017AB7
:104CA0009B68684698479DF80470CDE7017A002913
:104CB000B5D0C36868469B6A98479DF80470C3E7FF
:104CC00080212846FBF704FB39462846FBF700FB0A
:104CD000384603B0F0BDC3681B69002B9FD0297A0A
:104CE000684698479DF80470AEE7C3689B68002B40
:104CF000F5D194E7C368DB69002BF0D18FE7C36877
:104D00009B69002BEBD18AE7C3685B69002BE6D176
:104D100085E7C368DB68002BE1D180E738B54A79C5
:104D20008C79CD790B792A43234343EA02231BB2C2
:104D30000446ABB9CA788B7843EA02237F2B19B2B9
:104D40000ED80378032B0BD0CDB245722946FBF762
:104D5000E7FA2046FFF7A4FE65B10223237007E0BF
:104D600080212046FBF7B4FA20460021FBF7B0FA79
:104D7000002038BD01232370FAE700BFCA798B7980
:104D800043EA0223012B10B5044617D1017802290A
:104D90001AB2CBB207D9032B06D100F12C01FFF7D1
:104DA00093FE002010BD93B980212046FBF790FAB6
:104DB00020460021FBF78CFA002010BD8021FBF774
:104DC00087FA20460021FBF783FA002010BD014638
:104DD000002341F8343FFFF777FE002010BD00BFED
:104DE00010B50378013B022B044614D8CA798B799D
:104DF00043EA0223022B0ED1C36B0122934208BF68
:104E00000323026300F1300108BF03630222FFF7AE
:104E10005BFE002010BD80212046FBF759FA20469A
:104E20000021FBF755FA002010BD00BF002070479D
:104E3000002070470020704710B50378013B022B1B
:104E4000044607D8CA788B7843EA0223012B0AD09C
:104E5000002010BD8021FBF73BFA20460021FBF724
:104E600037FA002010BD0023C363FFF719FE0020AE
:104E700010BD00BFCA788B7843EA0223012B10B51E
:104E80001AB204460AD0022A0DD08021FBF720FA7C
:104E900020460021FBF71CFA002010BDC263FFF77B
:104EA000FFFD002010BD4B7980F83830FFF7F8FD8A
:104EB000002010BD10B580210446FBF709FA2046FA
:104EC0000021FBF705FA002010BD00BF70B50D4DA5
:104ED0000D4C641BA4100026A64209D10B4D0C4CAE
:104EE00000F02EF8641BA4100026A64205D170BD68
:104EF00055F8043B98470136EEE755F8043B9847D0
:104F00000136F2E7F84F0008F84F0008F84F0008A4
:104F1000FC4F00080A44914200F1FF3300D1704772
:104F200010B511F8014B03F8014F9142F9D110BDB2
:104F300002440346934200D1704703F8011BF9E78E
:104F4000F8B500BFF8BC08BC9E467047F8B500BF76
:084F5000F8BC08BC9E46704746
:104F58000000000000000000010203040607080921
:104F6800000000000102030444696E5461736B0081
:104F78005461736B320000000000014000000040E3
:104F88000004004000080040000C004000100040F1
:104F9800001400400004014000400140004401406A
:104FA8000048014000180040001C0040002000405C
:104FB800546D725100000000546D722053766300E6
:104FC80001000400020004000400040008000400BA
:104FD800100004002000040040000400000201004A
:104FE80000010100002005000040050000800500C8
:044FF800C5010008E7
:044FFC00A101000807
:10500000000002400004024000080240000C024080
:10501000001002400014024000180240001C024030
:10502000AAAAAAAA040000000000000000000000D4
:10503000010203040607080900E1F505E14D000837
:10504000394E000800000000754E00080000000006
:105050001D4D0008ED4B0008F14A00087D4D000889
:10506000F54A0008354E00082D4E0008314E000864
:105070000000000000000000000000000000000030
:105080000000000000000000000000000000000020
:105090000000000000000000000000000000000010
:1050A0000000000000000000000000000000000000
:04000005080043D5D7
:00000001FF
