:020000040800F2
:10000000000002206D0C02086D0E0208930E02081B
:10001000AD0E0208AF0E0208B10E0208000000008B
:1000200000000000000000000000000091B701087F
:10003000B30E02080000000031B8010895B80108AD
:10004000BD0C0208BD0C0208BD0C0208BD0C020864
:10005000BD0C0208BD0C0208BD0C0208BD0C020854
:10006000BD0C0208BD0C0208BD0C0208BD0C020844
:10007000BD0C0208BD0C0208BD0C0208BD0C020834
:10008000BD0C0208BD0C0208BD0C02087DF301087E
:1000900049F4010861F4010879F40108BD0C020873
:1000A0009DF70108B7F70108BD0C0208BD0C020856
:1000B000BD0C0208BD0C0208BD0C0208BD0C0208F4
:1000C000BD0C0208BD0C0208BD0C0208BD0C0208E4
:1000D000BD0C0208BD0C0208BD0C0208BD0C0208D4
:1000E000BD0C0208BD0C0208BD0C0208BD0C0208C4
:1000F000BD0C0208BD0C0208BD0C0208BD0C0208B4
:10010000BD0C0208BD0C0208BD0C0208BD0C0208A3
:10011000BD0C0208BD0C0208BD0C0208BD0C020893
:10012000C9E60108BD0C020861E60108BD0C020821
:10013000F9E50108BD0C0208BD0C0208BD0C02085F
:10014000BD0C0208BD0C0208BD0C0208011100081C
:10015000BD0C0208BD0C0208BD0C0208BD0C020853
:10016000BD0C0208BD0C0208BD0C0208BD0C020843
:10017000BD0C0208BD0C0208BD0C02080000000006
:10018000BD0C0208BD0C0208BD0C0208BD0C020823
:04019000BD0C020898
:1001A00010B5054C237833B9044B13B10448AFF3B1
:1001B00000800123237010BD2404002000000000F3
:1001C0005C8D020808B5034B1BB103490348AFF32C
:1001D000008008BD00000000280400205C8D02089B
:1001E00081F0004102E000BF83F0004330B54FEAE8
:1001F00041044FEA430594EA050F08BF90EA020F55
:100200001FBF54EA000C55EA020C7FEA645C7FEAE7
:10021000655C00F0E2804FEA5454D4EB5555B8BF0A
:100220006D420CDD2C4480EA020281EA030382EA7B
:10023000000083EA010180EA020281EA0303362D0D
:1002400088BF30BD11F0004F4FEA01314FF4801CE0
:100250004CEA113102D0404261EB410113F0004FF2
:100260004FEA03334CEA133302D0524263EB4303A9
:1002700094EA050F00F0A780A4F10104D5F1200E47
:100280000DDB02FA0EFC22FA05F2801841F10001A2
:1002900003FA0EF2801843FA05F359410EE0A5F176
:1002A00020050EF1200E012A03FA0EFC28BF4CF0A7
:1002B000020C43FA05F3C01851EBE37101F000455D
:1002C00007D54FF0000EDCF1000C7EEB00006EEB6A
:1002D0000101B1F5801F1BD3B1F5001F0CD34908F4
:1002E0005FEA30004FEA3C0C04F101044FEA44524B
:1002F00012F5800F80F09A80BCF1004F08BF5FEAD2
:10030000500C50F1000041EB045141EA050130BDB1
:100310005FEA4C0C404141EB0101013C28BFB1F5C3
:10032000801FE9D291F0000F04BF01460020B1FA0E
:1003300081F308BF2033A3F10B03B3F120020CDAE1
:100340000C3208DD02F1140CC2F10C0201FA0CF0BF
:1003500021FA02F10CE002F11402D8BFC2F1200C24
:1003600001FA02F120FA0CFCDCBF41EA0C019040DA
:10037000E41AA2BF01EB0451294330BD6FEA040423
:100380001F3C1CDA0C340EDC04F11404C4F120020E
:1003900020FA04F001FA02F340EA030021FA04F320
:1003A00045EA030130BDC4F10C04C4F1200220FA77
:1003B00002F001FA04F340EA0300294630BD21FAB5
:1003C00004F0294630BD94F0000F83F4801306BF7B
:1003D00081F480110134013D4EE77FEA645C18BF6F
:1003E0007FEA655C29D094EA050F08BF90EA020F06
:1003F00005D054EA000C04BF1946104630BD91EAFE
:10040000030F1EBF0021002030BD5FEA545C05D100
:100410004000494128BF41F0004130BD14F580043F
:100420003CBF01F5801130BD01F0004545F0FE41B3
:1004300041F470014FF0000030BD7FEA645C1ABFE8
:10044000194610467FEA655C1CBF0B46024650EA1F
:10045000013406BF52EA033591EA030F41F400214B
:1004600030BD00BF90F0000F04BF0021704730B5D1
:100470004FF4806404F132044FF000054FF00001A6
:1004800050E700BF90F0000F04BF0021704730B567
:100490004FF4806404F1320410F0004548BF40423C
:1004A0004FF000013EE700BF42004FEAE2014FEA91
:1004B00031014FEA02701FBF12F07F4393F07F4F6C
:1004C00081F06051704732F07F4208BF704793F06F
:1004D0007F4F04BF41F40021704730B54FF4607482
:1004E00001F0004521F000411CE700BF50EA010285
:1004F00008BF704730B54FF000050AE050EA01022E
:1005000008BF704730B511F0004502D5404261EB9D
:1005100041014FF4806404F132045FEA915C3FF4DE
:10052000D8AE4FF003025FEADC0C18BF03325FEA7B
:10053000DC0C18BF033202EBDC02C2F1200300FA2C
:1005400003FC20FA02F001FA03FE40EA0E0021FA51
:1005500002F11444BDE600BF70B54FF0FF0C4CF43F
:10056000E06C1CEA11541DBF1CEA135594EA0C0FF1
:1005700095EA0C0F00F0DEF82C4481EA030621EA2C
:100580004C5123EA4C5350EA013518BF52EA033567
:1005900041F4801143F4801338D0A0FB02CE4FF019
:1005A0000005E1FB02E506F00042E0FB03E54FF049
:1005B0000006E1FB03569CF0000F18BF4EF0010E41
:1005C000A4F1FF04B6F5007F64F5407404D25FEA3D
:1005D0004E0E6D4146EB060642EAC62141EA5551F0
:1005E0004FEAC52040EA5E504FEACE2EB4F1FD0C32
:1005F00088BFBCF5E06F1ED8BEF1004F08BF5FEAB0
:10060000500E50F1000041EB045170BD06F0004661
:1006100046EA010140EA020081EA0301B4EB5C040E
:10062000C2BFD4EB0C0541EA045170BD41F4801106
:100630004FF0000E013C00F3AB8014F1360FDEBF2B
:10064000002001F0004170BDC4F10004203C35DA07
:100650000C341BDC04F11404C4F1200500FA05F38A
:1006600020FA04F001FA05F240EA020001F000422B
:1006700021F0004110EBD37021FA04F642EB0601A1
:100680005EEA430E08BF20EAD37070BDC4F10C04CB
:10069000C4F1200500FA04F320FA05F001FA04F28F
:1006A00040EA020001F0004110EBD37041F100017B
:1006B0005EEA430E08BF20EAD37070BDC4F1200586
:1006C00000FA05F24EEA020E20FA04F301FA05F2EE
:1006D00043EA020321FA04F001F0004121FA04F296
:1006E00020EA020000EBD3705EEA430E08BF20EA66
:1006F000D37070BD94F0000F0FD101F000464000A0
:1007000041EB010111F4801F08BF013CF7D041EA21
:10071000060195F0000F18BF704703F00046520025
:1007200043EB030313F4801F08BF013DF7D043EAF6
:100730000603704794EA0C0F0CEA135518BF95EAAC
:100740000C0F0CD050EA410618BF52EA4306D1D133
:1007500081EA030101F000414FF0000070BD50EA52
:10076000410606BF1046194652EA430619D094EADC
:100770000C0F02D150EA013613D195EA0C0F05D1C6
:1007800052EA03361CBF104619460AD181EA03011A
:1007900001F0004141F0FE4141F470014FF00000D2
:1007A00070BD41F0FE4141F4780170BD70B54FF06D
:1007B000FF0C4CF4E06C1CEA11541DBF1CEA1355ED
:1007C00094EA0C0F95EA0C0F00F0A7F8A4EB0504CF
:1007D00081EA030E52EA03354FEA013100F08880C6
:1007E0004FEA03334FF0805545EA131343EA12638F
:1007F0004FEA022245EA111545EA10654FEA002644
:100800000EF000419D4208BF964244F1FD0404F5FC
:10081000407402D25B084FEA3202B61A65EB030558
:100820005B084FEA32024FF480104FF4002CB6EB15
:10083000020E75EB030E22BFB61A754640EA0C0095
:100840005B084FEA3202B6EB020E75EB030E22BFD5
:10085000B61A754640EA5C005B084FEA3202B6EB16
:10086000020E75EB030E22BFB61A754640EA9C00D5
:100870005B084FEA3202B6EB020E75EB030E22BFA5
:10088000B61A754640EADC0055EA060E18D04FEA63
:10089000051545EA16754FEA06164FEAC30343EA03
:1008A00052734FEAC2025FEA1C1CC0D111F4801FD0
:1008B0000BD141EA00014FF000004FF0004CB6E7C9
:1008C00011F4801F04BF01430020B4F1FD0C88BF68
:1008D000BCF5E06F3FF6AFAEB5EB030C04BFB6EB73
:1008E000020C5FEA500C50F1000041EB045170BD66
:1008F0000EF0004E4EEA113114EB5C04C2BFD4EB93
:100900000C0541EA045170BD41F480114FF0000E16
:10091000013C90E645EA060E8DE60CEA135594EA92
:100920000C0F08BF95EA0C0F3FF43BAF94EA0C0F95
:100930000AD150EA01347FF434AF95EA0C0F7FF40A
:1009400025AF104619462CE795EA0C0F06D152EA5E
:1009500003353FF4FDAE1046194622E750EA410642
:1009600018BF52EA43067FF4C5AE50EA41047FF453
:100970000DAF52EA43057FF4EBAE12E74FF0FF3CB8
:1009800006E000BF4FF0010C02E000BF4FF0010C89
:100990004DF804CD4FEA410C7FEA6C5C4FEA430C02
:1009A00018BF7FEA6C5C1BD001B050EA410C0CBF51
:1009B00052EA430C91EA030F02BF90EA020F0020B3
:1009C000704710F1000F91EA030F58BF994208BF1A
:1009D00090422CBFD8176FEAE37040F001007047D7
:1009E0004FEA410C7FEA6C5C02D150EA013C07D12E
:1009F0004FEA430C7FEA6C5CD6D152EA033CD3D079
:100A00005DF8040B704700BF8446104662468C4672
:100A10001946634600E000BF01B5FFF7B7FF0028A5
:100A200048BF10F1000F01BD4DF808EDFFF7F4FFCE
:100A30000CBF012000205DF808FB00BF4DF808ED59
:100A4000FFF7EAFF34BF012000205DF808FB00BF7C
:100A50004DF808EDFFF7E0FF94BF012000205DF89E
:100A600008FB00BF4DF808EDFFF7CEFF94BF012053
:100A700000205DF808FB00BF4DF808EDFFF7C4FF4C
:100A800034BF012000205DF808FB00BF4A0011D2EE
:100A900012F5001211D20DD56FF47873B3EB6252D8
:100AA0000ED44FEAC12343F0004343EA505323FAE4
:100AB00002F070474FF00000704750EA013002D159
:100AC0004FF0FF3070474FF0000070474FEA41028F
:100AD000B2F1E04324BFB3F5001CDCF1FE5C0DD99C
:100AE00001F0004C4FEAC0024CEA5070B2F1004FE6
:100AF00040EB830008BF20F00100704711F0804FE9
:100B000021D113F13872BCBF01F00040704741F4AD
:100B100080114FEA5252C2F11802C2F1200C10FAB1
:100B20000CF320FA02F018BF40F001004FEAC12395
:100B30004FEAD32303FA0CFC40EA0C0023FA02F339
:100B40004FEA4303CCE77FEA625307D150EA01330F
:100B50001EBF4FF0FE4040F44000704701F00040DF
:100B600040F0FE4040F40000704700BF80F00040BD
:100B700002E000BF81F0004142001FBF5FEA410375
:100B800092EA030F7FEA226C7FEA236C6AD04FEA75
:100B90001262D2EB1363C1BFD218414048404140BA
:100BA000B8BF5B42192B88BF704710F0004F40F46C
:100BB000000020F07F4018BF404211F0004F41F488
:100BC000000121F07F4118BF494292EA030F3FD054
:100BD000A2F1010241FA03FC10EB0C00C3F1200367
:100BE00001FA03F100F0004302D5494260EB4000F6
:100BF000B0F5000F13D3B0F1807F06D340084FEA61
:100C0000310102F10102FE2A51D2B1F1004F40EB55
:100C1000C25008BF20F0010040EA030070474900BD
:100C200040EB0000013A28BFB0F5000FEDD2B0FA5A
:100C300080FCACF1080CB2EB0C0200FA0CF0AABF7D
:100C400000EBC25052421843BCBFD040184370471B
:100C500092F0000F81F4000106BF80F40000013221
:100C6000013BB5E74FEA41037FEA226C18BF7FEAF8
:100C7000236C21D092EA030F04D092F0000F08BF3A
:100C80000846704790EA010F1CBF0020704712F021
:100C90007F4F04D1400028BF40F00040704712F160
:100CA00000723CBF00F50000704700F0004343F0C5
:100CB000FE4040F4000070477FEA226216BF0846FB
:100CC0007FEA23630146420206BF5FEA412390EABE
:100CD000010F40F4800070474FF0000304E000BFB4
:100CE00010F0004348BF40425FEA000C08BF704765
:100CF00043F0964301464FF000001CE050EA010229
:100D000008BF70474FF000030AE000BF50EA01023D
:100D100008BF704711F0004302D5404261EB41012A
:100D20005FEA010C02BF84460146002043F0B6434F
:100D300008BFA3F18053A3F50003BCFA8CF2083A74
:100D4000A3EBC25310DB01FA02FC634400FA02FC7D
:100D5000C2F12002BCF1004F20FA02F243EB020084
:100D600008BF20F00100704702F1200201FA02FCE6
:100D7000C2F1200250EA4C0021FA02F243EB0200D9
:100D800008BF20EADC70704700000000000000008F
:100D900001F0FF01102A2BDB10F0070F08D010F82C
:100DA000013B013A8B422DD010F0070F42B3F6D130
:100DB000F0B441EA012141EA014122F007047FF049
:100DC00000070023F0E80256083C85EA010586EAA0
:100DD000010685FA47F5A3FA87F586FA47F6A5FADC
:100DE00087F68EB9EED1F0BC01F0FF0102F00702E8
:100DF00032B110F8013B013A83EA010313B1F8D193
:100E00000020704701387047002D06BF3546033873
:100E1000073815F0010F07D1013015F4807F02BFAC
:100E2000013015F4C03F0130F0BC0138704700BFFD
:100E3000EC46A0E8F05F4FF000007047B0E8F05FCC
:100E4000E546080008BF0120704700BF10F8012BDD
:100E500011F8013B012A28BF9A42F7D0D01A7047F7
:100E6000034613F8012B002AFBD1181A01387047EA
:100E70004FEA410C7FEA6C5C02D150EA013C0AD196
:100E80004FEA430C7FEA6C5C02D152EA033C02D188
:100E90004FF0000070474FF00100704738B5002256
:100EA000002304460D46FFF7C9FD28B92046294610
:100EB000BDE8384000F00AB8204605F1004100F0D6
:100EC00005F8404261EB410138BD00BFD0B50C4B85
:100ED000002206460F46FFF73FFBFFF7D7FD04460B
:100EE000FFF7C0FA074B0022FFF736FB02460B461E
:100EF00030463946FFF778F9FFF7C8FD2146D0BDE7
:100F00000000F03D0000F041034B036003F59163E6
:100F10000B608223136070470000001010B4064B72
:100F200003F5D264046003F618330B604FF4827348
:100F300013605DF8044B70470000001070B584B07A
:100F40001CF0A4FD0546354B0293354C04F52E7379
:100F500001930C2300930123C822324932481BF02D
:100F60009BFC28601EF080FB054604F5BB630293E2
:100F700004F5266301930B230093012380222B4960
:100F80002B481BF089FC28601FF0A2F8054604F5E9
:100F900046640294274B019309230093012340F6F2
:100FA000B832254925481BF077FC28601FF0A8FCC3
:100FB0000546234CA4F11003029304F58F630193BB
:100FC0000A2300930123C0221E491F481BF064FC22
:100FD00028601EF02DF8054604F5EF63029304F532
:100FE0004063019308260096012380221749184880
:100FF0001BF052FC28601EF01FF8054604F56064E3
:101000000294144B01930096012380221249134845
:101010001BF042FC286004B070BD00BF280F001018
:10102000F8100010C08D0208F1E70108C88D020811
:1010300069F8010898360010D08D020825040208CE
:10104000F0210010D88D0208F10A0208E08D020894
:1010500051F0010878340010EC8D020811F20108FB
:1010600010B51DF0EDFF04460022102108461AF0CD
:101070008FFF20601DF0E8FF044600221021084683
:101080001AF086FF206010BD10B51FF025F8044649
:1010900002481AF0E9FC206010BD00BF783600104D
:1010A000704700B583B0019001981BF003FE03B0B8
:1010B0005DF804FB032900D07047024B01221A702F
:1010C000FAE700BF4004002010B582B0074C084981
:1010D000204620F01DFE074B0093074B074A0021D6
:1010E00020461FF0FBFE02B010BD00BF78E60120D5
:1010F00028000020B5100008740100206C000020BA
:1011000008B5024802F0E3FC08BD00BF40E9012039
:1011100008B5D0F8C40202F0BAFC08BD2DE9F041D0
:1011200082B00546FFF7BCFF2B7A13B102B0BDE8D1
:10113000F0814FF4804001F029F8802001F016F88A
:10114000012001F00BF82D4C4FF0A043236003F574
:101150000063636003F50063A360A3F50073E360BD
:10116000C4F87454C5F8C442002684F83F604FF0B8
:10117000020884F82080E662E66101232363666347
:101180000422A2626661A661236184F83E608DF844
:1011900002608DF805604FF40073ADF80030184F11
:1011A0006946384600F0C8FE8DF8028003238DF8AA
:1011B00003308DF804608DF805604FF4C053ADF82E
:1011C00000306946384600F0B7FE0A220B21384647
:1011D00000F005FF0A220C21384600F000FF3246DD
:1011E0000521432000F028FF206801F0F3FB204692
:1011F00002F08AF92846FFF78BFF97E740E90120C4
:101200000000024008B5D0F874041FF0C1FE08BD0C
:1012100010B50446D0F874041FF0CAFE94F82030CC
:10122000022B08D0E268137843F00103137063695E
:10123000012B04D010BD236B002BF8D0F2E7034A3A
:10124000136943F006031361F4E700BF00ED00E00B
:1012500010B50446016B003918BF0121D0F87404A1
:101260001FF052FED4F874041FF005FF10BD08B53E
:1012700000F58861D0F874041FF030FF08BD08B590
:1012800000EB4113D3F85422D0F874041FF042FE4F
:1012900008BD08B500EB41135A6DD0F8740420F076
:1012A000B1F808BD08B5D0F8C40202F0A4FB0020D4
:1012B00008BD08B5D0F8C40202F04DFB002008BDFF
:1012C00008B5D0F8C40202F03AFB08BD08B5D0F862
:1012D000C40201F0C2FE08BD08B5D0F8C40202F095
:1012E000D9FA08BD08B5D0F8C40202F00FFB08BD5A
:1012F00008B5D0F8C40202F0A2F8002008BD08B575
:10130000D0F8C40202F0BEF8002008BD08B5D0F83D
:10131000C40202F069FB002008BD08B5D0F87404CF
:101320001FF053FE08BD08B5D0F874041FF05CFE32
:1013300008BD08B5D0F874041FF06BFE08BD08B5F1
:10134000D0F874041FF07AFE08BD08B5D0F8740414
:101350001FF07BFE08BD08B51FF08EFB002008BD06
:1013600008B51FF08FFB002008BD000008B50A4635
:101370000146024820F096FC08BD00BF78E6012037
:1013800010B5074C204620F0A9FCA369043354F89B
:1013900023305868002104301FF082FB002010BD6C
:1013A00078E60120024A026012220271704700BFF3
:1013B000A4000020024A026029220271704700BF87
:1013C00040000020024A026004220271704700BF00
:1013D000B8000020024A02601A220271704700BF62
:1013E000E8000020024A026029220271704700BF13
:1013F000BC000020024A02600A220271704700BF4E
:101400009800002030B5ADF5017D05460020B9B14A
:101410000C460846FFF724FD0130400080B22278D8
:1014200072B12146022300240DF803205A1CD2B2C7
:101430000DF802400233DBB211F8012F002AF3D17C
:10144000C5F800D0287128460DF5017D30BD00009B
:1014500010B504460249FFF7D5FF204610BD00BF76
:10146000108E020810B504460249FFF7CBFF204654
:1014700010BD00BF1C8E020810B504460249FFF7DC
:10148000C1FF204610BD00BF288E020808B54FF4EA
:10149000807000F083FE4FF4807000F087FE08BD7E
:1014A0000A78436862F3196343604A78436862F3D9
:1014B00008234360CA78836862F31D7383600A79E6
:1014C000836862F31B6383604A79836862F3CB238A
:1014D00083608A78836862F3410383608B79013B80
:1014E000C26A63F31752C2627047002303704370ED
:1014F0008370C370037143710123837170470000CF
:1015000001780A4B5A6861F304025A6041785A68BC
:1015100061F311425A6081785A6861F38F325A60E0
:10152000C1785A6861F30B225A607047002301406A
:101530000023037043708370C3707047836843F067
:1015400001038360704783686FF300038360704713
:10155000024A536843F4000353607047002301407C
:10156000024A536843F480035360704700230140EC
:1015700070B409291BD9C568A1F10A0404EB44041D
:101580000726A64025EA0605A3402B43C360062A8A
:1015900018D8436B013A02EB82021F24944023EADD
:1015A000040301FA02F21A43426370BC70470469F3
:1015B00001EB41060725B54024EA0504B340234367
:1015C0000361E4E70C2A0CD8036B073A02EB8202B2
:1015D0001F24944023EA040301FA02F21A4302632F
:1015E000E3E7C36A0D3A02EB82021F24944023EA28
:1015F000040401FA02F32343C362D6E7836843F08D
:10160000804383607047836843F4806383607047DE
:10161000836843F480738360704783686FF30823A3
:1016200083607047C9430160704703686FF34103EB
:101630000360036843F001030360436813F0010F84
:1016400007D14FF6FF73426812F0010F01D1013B41
:10165000F9D1436813F0010F60D00B78012B0368B8
:101660000CBF43F040036FF3861303604B78012BEC
:1016700003680CBF43F020036FF3451303608B78BE
:10168000012B03680CBF43F010036FF304130360D6
:10169000CB78012B03680CBF43F008036FF3C3033F
:1016A00003600B79012B03680CBF43F004036FF355
:1016B00082030360C36923F04043C361C3694A796D
:1016C00043EA8273C3618A79C36962F31963C361B0
:1016D000CA79C36962F31343C3610A7AC36962F3C7
:1016E0001653C3614B89013BC26963F30902C261AE
:1016F00003686FF300030360436813F0010F07D022
:101700004FF6FF73426812F0010F01D0013BF9D18F
:10171000406800F0010080F0010070470020704731
:1017200010B4484BD3F8002242F00102C3F8002263
:10173000D3F81C2204780121A14022EA0102C3F857
:101740001C22837BD3B93F4BD3F80C2204780121B0
:10175000A14022EA0102C3F80C22027804898188A0
:1017600041EA0441483243F832100178C488428883
:1017700042EA0442483103EBC1035A60837B012BE8
:1017800028D0437B002B40D12E49D1F80432047875
:101790000122A24023EA0203C1F80432037B4BB9C1
:1017A0002849D1F8143204780122A24023EA020326
:1017B000C1F81432037B012B31D04389012B37D080
:1017C000204BD3F800226FF30002C3F800225DF82B
:1017D000044B70471B4BD3F80C1204780122A24033
:1017E0000A43C3F80C2202784488818841EA044104
:1017F000483243F832100178C488028942EA044230
:10180000483103EBC1035A60BBE70E4AD2F8041219
:1018100004780123A3400B43C2F80432BEE7094A0F
:10182000D2F814120478A3400B43C2F81432C4E770
:10183000044AD2F81C12007883400B43C2F81C32D1
:10184000BEE700BF006400400246836813F0806F6B
:1018500009D1836813F0006F4ED1836813F0805F65
:1018600057D0022000E00020F0B4054602EB001340
:10187000D3F8804104F00104C3F880410C7A002CB5
:101880003CD1D3F880610F684C7A44EA4754344322
:10189000C3F880418C7A04F00F048C72D3F8844131
:1018A00024F00F04C3F88441D3F884618C7A344364
:1018B000C3F884418E7B4C7B240444EA0664CE7AD0
:1018C00034430E7B44EA062402EB0512C2F8884139
:1018D0008D7C4C7C240444EA0564CD7B2C43097C3C
:1018E00044EA0121C2F88C11D3F8802142F00102B0
:1018F000C3F88021F0BC70470120B5E7D3F88061C0
:101900004F6844EAC7044F7A3C433443C3F88041EC
:10191000C0E70320704730B400EB0114D4F8B031B5
:1019200003F004039360002B3ED1D4F8B0315B0D7B
:10193000136001F11B031D0100EB03134559C5F3AF
:101940004005D5605B68C3F30303137494F8B531A5
:10195000537600EB011303F5DC74D3F8B8515574DA
:10196000D3F8B851C5F307259574D3F8B851C5F32A
:101970000745D574D3F8B831C3F3076313756368AB
:1019800053756368C3F3072393756368C3F3074311
:10199000D3756368C3F30763137651B9C36843F023
:1019A0002003C36030BC7047D4F8B031DB0853600B
:1019B000BFE7036943F020030361F3E710B40C466B
:1019C00029BB03686FF341030360036843F001031D
:1019D0000360436813F0010F0BD14FF4803342686A
:1019E00012F0020F05D0013B03D0426812F0010F44
:1019F000F5D0436813F0010F03D120465DF8044B86
:101A000070474468C4F3400484F00100F6E70129FC
:101A100003D0022920D00020F0E703686FF34103D0
:101A2000036003686FF3000303604FF4803301E049
:101A3000013B07D0426812F0010FF9D1426812F061
:101A4000020FF5D1436813F0010F26D04468C4F3A8
:101A5000400484F00100D1E7036843F0020303600F
:101A600003686FF300030360436813F0010F18BFAE
:101A70004FF4803309D0426812F0020F05D1013BC8
:101A800003D0426812F0010FF5D1436813F0010F43
:101A900005D14068C0F34000B0E72046AEE7002023
:101AA000ACE743690B4343617047034611F4700F81
:101AB00007D080690840C0F31300003818BF012028
:101AC000704711F0807F07D040680840C0F31300D2
:101AD000003818BF0120704711F0006F07D08068F0
:101AE0000840C0F31300003818BF0120704711F000
:101AF000007F14BFC06818690840C0F313000038A5
:101B000018BF0120704700000B4B994206D0C1F36B
:101B1000130311F0007F04D0C3607047002383617A
:101B2000704711F0806F01D00361704711F0006FB2
:101B300014BF8360436070477000F030B1F5007FE0
:101B40006AD023D8202916D8002977D001391F2937
:101B500074D8DFE801F03B7373487373734D73738C
:101B60007373737373737373737373737373737345
:101B7000737373737352402944D0B1F5807F04D1DD
:101B8000436843F00403436070477047B1F5004F6A
:101B90004CD00AD9B1F5803F39D0B1F5003F14D10E
:101BA000436843F0100343607047B1F5806F38D04D
:101BB000B1F5006F08D183696FF306138361436841
:101BC00043F004034360704770477047836843F0F5
:101BD00001038360836843F480738360836843F404
:101BE000803383607047C36843F00803C360704765
:101BF000C36843F01003C3607047036943F00803F0
:101C000003617047036943F0100303617047436841
:101C100043F0080343607047436843F004034360A4
:101C20007047436843F004034360704783696FF370
:101C300006138361436843F00403436070470A7BE3
:101C4000036862F3871303600A7E036862F3082364
:101C500003600A7D036862F3492303604A7D0368D9
:101C600062F38A2303608A7D036862F3CC230360F6
:101C7000CA7D036862F34E3303604A7E036862F3F1
:101C8000114303604A7F036862F3565303600A7F7F
:101C9000036862F3D85303600A78036862F35B63F6
:101CA00003600B6943604B6883608B68C3608A7E06
:101CB000436962F382034361CA7E436962F30103AD
:101CC00043617047036843F00103036070470000FD
:101CD00010B4094C094B0A4AA04288BF134611F0C0
:101CE000805F21F0F02121F0821114BF9960D9604A
:101CF0005DF8044B704700BF0F6402400060024073
:101D00000064024011F0010F03D0436943F08003E7
:101D10004361012904D0036801F01E0119430160E9
:101D2000704711F0010F03D043696FF3C71343618C
:101D3000012905D0036801F01E0123EA01010160B9
:101D40007047000010B4124C124B134AA04288BFD7
:101D5000134611F0C04F13D04069C0F3C01011F00A
:101D6000805F0CBF1B685B68194021F0F02121F0F7
:101D7000821159B1003818BF01205DF8044B70473B
:101D8000006800EAD12000F01C00E8E70020F4E73A
:101D90000F640240006002400064024010B4094C2D
:101DA000094B0A4AA04288BF134611F0805F21F018
:101DB000F02121F082110CBF9960D9605DF8044BCD
:101DC000704700BF0F6402400060024000640240A0
:101DD000054B1B69002B00DB7047034B034A5A601D
:101DE00002F188325A60F7E7003C02402301674560
:101DF000024A136943F0004313617047003C0240FC
:101E0000014BD860704700BF003C02400E4BDB68BE
:101E100013F4803F12D10C4BDB6813F0100F0FD17D
:101E2000094BDB6813F0E00F0CD1074BDB6803F0C4
:101E30000203002B14BF08200920704701207047BF
:101E40000620704707207047003C024000B583B071
:101E500009238DF80730FFF7D9FF8DF807009DF8AB
:101E60000730DBB2012B08D1FFF7D0FF8DF8070058
:101E70009DF80730DBB2012BF6D09DF8070003B0C8
:101E80005DF804FB70B5044649B101290DD0022963
:101E90000ED0032914BF00264FF4407600E0002640
:101EA000FFF7D4FF092806D070BD4FF48076F7E71E
:101EB0004FF40076F4E7104D2B6923F440732B6147
:101EC0002B691E432E612B6923F0F8032B612A69CD
:101ED00044F0020313432B612B6943F480332B61DD
:101EE000FFF7B4FF2B6923F002032B612B6923F06A
:101EF000F8032B61D8E700BF003C024070B50546EF
:101F00000C46FFF7A3FF092800D070BD094E3369C6
:101F100023F44073336133693361336943F0010360
:101F200033612C70FFF792FF336923F001033361B3
:101F3000EBE700BF003C0240F0B40023012503267C
:101F400022E082680CEA020282608468CA78BA40A1
:101F500022438260426805FA03F422EA04024260E6
:101F600044680A799A4092B222434260C26806FAF3
:101F700007F422EA0402C260C4684A79BA402243E4
:101F8000C2600133102B18D005FA03F20C88A2436B
:101F9000F7D102685F0006FA07F46FEA040C22EA40
:101FA0000402026002688C78BC40144304608C78A0
:101FB000013CE4B2012CD9D8C3E7F0BC70470369F7
:101FC000194214BF0120002070474369194214BF11
:101FD000012000207047018370474183704710B48F
:101FE000CB0810D101F007018B00016A0F249C403F
:101FF00021EA04010162016A02FA03F30B4303625E
:102000005DF8044B704701F007018900436A0F2413
:102010008C4023EA04034362446A02FA01F3234337
:102020004362EDE740F0BF6040F40030014BD86000
:10203000704700BF00ED00E030B4214BDC6804F4D1
:10204000E064B4F5A06F31D008D9B4F5C06F33D0D7
:10205000B4F5E06F24D10424002507E0B4F5407FF7
:1020600027D0B4F5806F1BD101240325C5F10405E9
:1020700001FA05F5C4F104040F23234113402B4357
:102080001B01DBB20F4A111881F80033411100F037
:102090001F00012303FA00F042F8210030BC704712
:1020A000074B094CDC6004240025DFE702242546A9
:1020B000DCE700240425D9E703240125D6E700BF87
:1020C00000ED00E000E100E00007FA05134B9B681B
:1020D000C3F38103012B1CD0022B1CD10F4A536880
:1020E00003F03F03526812F4800F0C4A5068C0F3AB
:1020F000881014BF0A4A0B4AB2FBF3F300FB03F04B
:10210000064B5B68C3F3014301335B00B0FBF3F0A4
:102110007047034870470348704700BF00380240CB
:1021200000127A000024F40000B585B0094B0FCBF3
:102130000DF1100C0CE90F00FFF7C8FF064B9B6870
:10214000C3F3031304AA134413F8103CD84005B09A
:102150005DF804FB788D020800380240024A136BD8
:1021600003431363704700BF00380240024A536BB9
:1021700003435363704700BF00380240024A136CA8
:1021800003431364704700BF00380240024A536C97
:1021900003435364704700BF00380240024A536A49
:1021A00003435362704700BF00380240024A536A3B
:1021B00023EA0003536270470038024009280AD915
:1021C00000230133DBB20A38C0B20928F9D840EA4B
:1021D0000310C0B270470023F9E7030903EB830340
:1021E00000F00F0000EB4300C0B27047024BCA2260
:1021F0005A6253225A6270470028004082B000237E
:102200000193114BDB6813F0400F1AD10E4BDA68C3
:1022100042F08002DA60DB6813F0400F0BD10A4A0B
:10222000019BB3F5803F06D0019B01330193D36836
:1022300013F0400FF4D0044BD868C0F3801002B004
:1022400070470120FBE700BF0028004000B583B0C5
:1022500000230193FFF7CAFF114BDA6822F0A002B6
:10226000DA60DB6813F0200F0BD10D4A019BB3F548
:10227000003F06D0019B01330193D36813F0200F78
:10228000F4D0074BDB6813F0200F054B4FF0FF0233
:102290005A6214BF0120002003B05DF804FB00BFA8
:1022A00000280040F8B50D46214B9B6813F0400F05
:1022B00004BF0023CB7090B10B784C78240244EA21
:1022C000034488780443C87844EA8054FFF78EFFBB
:1022D000FFF794FFB0B9164BFF225A62F8BD087899
:1022E000FFF76CFF07466878FFF768FF0646A87897
:1022F000FFF764FFEC7840EA845444EA074444EA78
:102300000624E3E704F07F3424F0FE44084B1C600D
:10231000DA686FF3C712DA609B6813F0200F01D000
:102320000120D8E7FFF792FF003818BF0120D2E75D
:102330000028004070B50E4B1D68C5F38052CA706E
:10234000C5F305420A70C5F306264E7005F07F05F9
:102350008D7060B90C461046FFF73FFF2070304685
:10236000FFF73BFF60702846FFF737FFA07070BD96
:1023700000280040F8B50D46002838D14B7813F0FE
:10238000100F03D023F010030A334B70E878FFF7E7
:1023900015FF07466878FFF711FF0646A878FFF794
:1023A0000DFF2C7840EA443444EA074444EA06240A
:1023B000FFF71CFFFFF722FF18B9124BFF225A62EA
:1023C000F8BD24F07F4424F0C0040E4B5C60DA6852
:1023D0006FF3C712DA609B6813F0200F01D0012061
:1023E000EBE7FFF733FF003818BF0120E5E7CB78B4
:1023F0004C78240244EA034488780443087844EA89
:102400004034D5E70028004070B50E4B5B68C3F33D
:102410000742CA70C3F304264E7003F03F058D7067
:10242000C3F342330B7060B90C461046FFF7D5FE7C
:10243000E0703046FFF7D1FE60702846FFF7CDFE12
:10244000A07070BD0028004010B4046A6FF300044F
:10245000046284696FF30104846184696FF3071473
:102460008461846962F301048461826963F3071201
:1024700082611B4B984223D003F5806398421FD0A2
:10248000B0F1804F1CD0A3F58033984218D003F5EB
:102490008063984214D003F58063984210D0036A99
:1024A0006FF341030362036A6FF3C3030362036ABA
:1024B00043F001030362036A9BB2194301620BE01C
:1024C000036A6FF341030362036A43F0010303628B
:1024D000036A9BB2194301625DF8044B704700BF69
:1024E0000000014010B4046A6FF3041404628469AC
:1024F0006FF30924846184696FF30F348461846904
:1025000062F309248461826963F30F3282611C4B98
:10251000984224D003F58063984220D0B0F1804FD8
:102520001DD0A3F58033984219D003F580639842FB
:1025300015D003F58063984211D0036A6FF34513F9
:102540000362036A6FF3C7130362036A43F0100365
:102550000362036A43EA011189B201620CE0036A73
:102560006FF345130362036A43F010030362036AC7
:1025700043EA011189B201625DF8044B704700BF64
:1025800000000140224B984212D0B0F1804F0FD092
:10259000A3F57C4398420BD003F58063984207D0A3
:1025A00003F58063984203D003F5784398420BD13A
:1025B0000A78036862F3041303600B78C3F3011312
:1025C000026863F346120260124B98421BD003F577
:1025D0008063984217D04A78036862F30923036046
:1025E0004B68C3620B898362094B984206D18B7A90
:1025F0000363436943F001034361704703F580635C
:102600009842F4D0F5E74B68C3620B898362F0E728
:102610000000014000100040836A61F30F038362F1
:10262000436962F300034361704741627047406A47
:1026300080B27047036843F080030360704703680B
:102640006FF3C71303607047036843F0010303602F
:10265000704703686FF3000303607047036A6FF30A
:102660000003036283696FF3010383610A7883695E
:1026700062F306138361CA78036A62F3410303625B
:102680004A78036A62F3000303620F4B984203D057
:1026900003F58063984213D10A79036A62F3C30396
:1026A00003628A78036A62F3820303624A794368A9
:1026B00062F3082343608A79436862F349234360E5
:1026C0000B894363704700BF00000140036A6FF34A
:1026D0000413036283696FF30E33836183696FF3BD
:1026E000092383610A78836962F30E338361036A85
:1026F0006FF345130362CA78036A62F345130362FA
:102700004A78036A62F3041303620F4B984203D0C2
:1027100003F58063984213D10A79036A62F3C71301
:1027200003628A78036A62F3861303624A79436814
:1027300062F38A2343608A79436862F3CB23436060
:102740000B898363704700BF00000140036A6FF389
:1027500008230362C3696FF30613C361C3696FF390
:102760000103C3610A78C36962F30613C361036A94
:102770006FF349230362CA78036A62F34923036251
:102780004A78036A62F3082303620F4B984203D02E
:1027900003F58063984213D10A79036A62F3CB236D
:1027A00003628A78036A62F38A2303624A79436880
:1027B00062F30C3343608A79436862F34D334360BC
:1027C0000B89C363704700BF00000140036A6FF3C9
:1027D0000C330362C3696FF30E33C361C3696FF3D4
:1027E0000923C3610A78C36962F30E33C361CA78EF
:1027F000036A62F34D3303624A78036A62F30C336F
:102800000362074B984203D003F58063984204D1DA
:102810004A79436862F38E3343600B8903647047DF
:10282000000001404163704781637047C163704796
:1028300001647047836961F3C303836170478369EF
:1028400061F3CB2383617047C36961F3C303C36141
:102850007047C36961F3CB23C3617047836961F338
:10286000820383617047836961F38A2383617047C0
:10287000C36961F38203C3617047C36961F38A234B
:10288000C361704721B9036A43F0010303627047D3
:10289000042904D0082907D00C290AD07047036AFC
:1028A00043F0100303627047036A43F480730362CA
:1028B0007047036A43F480530362EFE721B9036A68
:1028C0006FF3000303627047042904D0082907D07E
:1028D0000C290AD07047036A6FF304130362704730
:1028E000036A6FF3082303627047036A6FF30C33C4
:1028F0000362EFE7F8B505460C46497800290CBF9E
:1029000002260026A278012A0CBF0227012723787D
:102910009BB9A388FFF798FDE278AB6962F3830364
:10292000AB61A3883A4631462846FFF7DBFDE278E3
:10293000AB6962F38B23AB61F8BDA388FFF7D2FDCF
:10294000E278AB6962F38B23AB61A3883A463146E8
:102950002846FFF779FDE278AB6962F38303AB6148
:10296000EAE7406B7047436C43F4004343647047AD
:1029700083686FF3020383607047C3681943C160C3
:10298000704703690B4205D0C368194214BF012088
:102990000020704700207047C94301617047006AFA
:1029A0007047C36861F38613C3607047406900F0E5
:1029B000010070478184704783690B4383617047CE
:1029C000836923EA010383617047038943F00103AC
:1029D0000381704703896FF30003038170474369E4
:1029E000826913400B4214BF0120002070474269E6
:1029F0008069104070474161704782B000230193A5
:102A00000369002B05DB019B01330193B3F5403FC4
:102A1000F6D9036961F38A130361036943F0200364
:102A2000036100230193036913F0200F05D0019B7C
:102A300001330193B3F5403FF5D902B0704782B03E
:102A4000002301930361036943F0100303610369E9
:102A500013F0100F05D0019B01330193B3F5403FF4
:102A6000F5D902B0704782B0002301930369002BAF
:102A700007DB019B01330193B3F5403FF6D902B068
:102A8000704700230193036943F001030361036965
:102A900013F0010FF3D0019B01330193B3F5403FD5
:102AA000F5D9ECE7836B6FF3104383637047836B57
:102AB00043F4803383637047038943F02003038129
:102AC0007047038961F3440303817047012A05D0ED
:102AD0000922C36862F38D23C360704749091D4B07
:102AE000A3FB0131C909A1F18E03072B22D9A1F162
:102AF0009603092B20D9A1F1A0030B2B1ED9A1F11C
:102B0000AC030C2B1CD9A1F1B9030E2B1AD9A1F1DE
:102B1000C803112B18D9A1F1DA03152B16D9A1F18D
:102B2000F003242B14D9A1F215112B2934BF07224D
:102B30000622CEE70F22CCE70E22CAE70D22C8E715
:102B40000C22C6E70B22C4E70A22C2E70922C0E72B
:102B50000822BEE7C55A7C0AC3686FF35D73C36081
:102B6000C3686FF39E73C36001290BD0C36843F041
:102B70008043C3600A4B426912F0010F01D0013B50
:102B8000F9D17047C36843F00053C360044B4269F6
:102B900012F0010F02D1013BF9D1F2E7704700BFFB
:102BA000FFFF010010B44B78002B39D0C2690C78BC
:102BB0000123A34013439BB2C26963F30F02C261B6
:102BC0000B7803F108025201825812F4004F24D10D
:102BD000CC6808335B01C25864F30A02C2500B7818
:102BE0008C7808335B01C25864F39342C2500C786E
:102BF00004F108035B01C25864F39952C2500B7888
:102C000008335B01C25842F08052C2500B7808333F
:102C10005B01C25842F40042C2505DF8044B704759
:102C2000C2690C780123A34043EA12439BB2C269F4
:102C300063F31F42C2610B7803F1180252018258FC
:102C400012F4004FE9D1CC6818335B01C25864F329
:102C50000A02C2500B788C7818335B01C25864F3B7
:102C60009342C2500B7818335B01C25842F0805235
:102C7000C2500B7818335B01C25842F40042C25074
:102C8000CBE710B44B78002B51D00B7803F108023E
:102C900052018258002A3CDBC26992B20B780124AF
:102CA00004FA03F322EA0302C36962F30F03C36168
:102CB000C36BC3F340030A78944023EA0403C26B56
:102CC00063F34102C2630B7808335B01C2586FF3B0
:102CD0000A02C2500B7808335B01C2586FF3CF323F
:102CE000C2500B7808335B01C2586FF39952C2503F
:102CF0000B7808335B01C2586FF39342C2500B78D4
:102D000008335B01C2586FF31C72C2505DF8044B6C
:102D1000704708335B01C25842F08042C2500B78C2
:102D200008335B01C25842F00062C250B4E70B782E
:102D300003F1180252018258002A33DBC4690B7870
:102D4000012202FA03F3DB4303EA1443C46963F389
:102D50001F44C461C36BC3F340430C78A24023EA11
:102D60000203C26B63F35142C2630B7818335B01F9
:102D7000C2586FF30A02C2500B7818335B01C25875
:102D80006FF3CF32C2500B7818335B01C2586FF328
:102D90009342C2500B7818335B01C2586FF31C7218
:102DA000C250B3E718335B01C25842F08042C250B0
:102DB0000B7818335B01C25842F00062C250BDE785
:102DC000012983880CBF43F002036FF34103838022
:102DD0007047038861F3CC2303807047038861F355
:102DE0000103038070478068C0F341007047038887
:102DF00061F30A130380704783886FF300038380B5
:102E00007047C26901238B4043EA12439BB2C269F7
:102E100063F31F42C2617047C26901238B401343B1
:102E20009BB2C26963F30F02C2617047426B012318
:102E30008B40134343637047436B01228A4023EA6C
:102E4000020343637047002303617047002343611B
:102E500070470023C3617047436C0B434364704762
:102E6000D0F884300B43C0F88430704703690B43BB
:102E700003617047036923EA0103036170474369F3
:102E80000B43436170478269C3691B0C03EA12401C
:102E900070478269C3699BB202EA0300704700EB86
:102EA0004110D0F80833134013F0FF0F14BF012076
:102EB0000020704700EB4110D0F80831134013F0A8
:102EC000FF0F14BF01200020704700EB4111D1F823
:102ED00008331343C1F80833704700EB4111D1F8B0
:102EE00008311343C1F80831704710B49DF804400D
:102EF00064B903339C08032B08D9002300EB01308D
:102F000052F8041B016001339C42F9D85DF8044B70
:102F1000704770B4032A0ED996080C460023056842
:102F200044F8045B0133B342F9D322F00303032ACC
:102F300098BF0423194412F003030AD004680A4618
:102F40001944002324FA03F002F8010B08338A42E3
:102F5000F8D170BC704730B443680024C3F8104304
:102F60004368D3F81043012565F3DC44C3F81043EC
:102F70004468D4F8103343F0C043C4F810334368B6
:102F8000D3F81043182565F31204C3F81043012940
:102F900001D030BC70474368C3F814234268D2F8AC
:102FA000003343F40043C2F800334268D2F80033E0
:102FB00043F00043C2F80033EBE72DE9F04182B063
:102FC0000F4600EB4112D16D936D99423ED80646F3
:102FD0005B1A406800EB4712D2F8182192B206EB58
:102FE0004711C96C8B4228BF0B460333B2EB930FDA
:102FF00026D34FEA471806EB4715EB6DAC6DA3429D
:1030000027D234B3E41AEB6C9C4228BF1C466A6D8D
:1030100096F82C300093A3B23946B068FFF765FFED
:103020006B6D23446B65EB6D2344EB65706800EBBF
:103030000803D3F818319BB20334B3EB940FDCD2FE
:1030400006EB4716B26DF36D9A4202D902B0BDE8A5
:10305000F0813946FFF7F0FEF8E701F00F0100EBD1
:103060004110D0F85C02704770B582B00B784C7894
:10307000002C6FD1446804EB4314D4F810536FF361
:10308000DC45C4F81053446804EB4314D4F81053DF
:103090006FF31205C4F810538C696CB3CD682C44DF
:1030A000013CB4FBF5F4456805EB4315D5F8106316
:1030B00064F3DC46C5F810634568CE68A4B206FB2D
:1030C00004F405EB4315D5F8106364F31206C5F854
:1030D0001063012A25D08A78012A2BD04168183341
:1030E0005B01CA5842F08062CA504168CA5842F037
:1030F0000042CA5002B070BD446804EB4314D4F8D7
:103100001053012666F3DC45C4F810534468CE68BA
:1031100004EB4314D4F8105366F31205C4F81053AB
:10312000D7E74C69002CD6D0426802EB4312C2F8B4
:103130001443D0E74268916811F4807F03F11801CD
:103140004FEA4111545814BF44F0005444F08054E5
:103150005450C3E78C69002C35D1446804EB431408
:10316000D4F810516FF3DC45C4F81051446804EBF7
:103170004314D4F810516FF31205C4F81051446889
:1031800004EB4314D4F81051012666F3DC45C4F86F
:103190001051012A59D0466803F1080464013559D9
:1031A00045F0806535514668355945F00045355143
:1031B0008C78012C70D08A69002A9BD0194640680F
:1031C000FFF734FE96E7446804EB4314D4F810513B
:1031D0006FF3DC45C4F81051446804EB4314D4F891
:1031E00010516FF31205C4F81051CE6845688C6910
:1031F0003444013CB4FBF6F405EB4315D5F81061FB
:1032000064F3DC46C5F8106144688E6904EB43142E
:10321000D4F8105166F31205C4F810518C78012CC3
:10322000B7D1446804EB4314D4F810516FF35E75C2
:10323000C4F81051446804EB4314D4F8105101262B
:1032400066F35E75C4F81051A3E78A6822B144683A
:1032500004EB4314C4F814218A78012A0CD0416885
:1032600008335B01CA5842F08062CA504168CA58AC
:1032700042F00042CA503DE74268916811F4807FF5
:1032800003F108014FEA4111545814BF44F00054AF
:1032900044F080545450E2E74468A56815F4807FF8
:1032A00003F108034FEA4313E55814BF45F00055F6
:1032B00045F08055E55000928B694A69097880682D
:1032C000FFF713FE16E770B50B784C78002C41D150
:1032D000446804EB4314D4F810536FF3DC45C4F88E
:1032E0001053446804EB4314D4F810536FF31205E1
:1032F000C4F810538C690CB1CC688C61446804EB41
:103300004314D4F81053012666F3DC45C4F8105377
:103310004468CE6804EB4314D4F8105366F31205E6
:10332000C4F81053012A0CD0416818335B01CA5805
:1033300042F08062CA504168CA5842F00042CA5006
:1033400070BD49690029EFD0426802EB4312C2F810
:103350001413E9E78C6994BB446804EB4314D4F874
:1033600010516FF3DC45C4F81051446804EB43146A
:10337000D4F810516FF31205C4F81051446804EBEF
:103380004314D4F81051012666F3DC45C4F81051FB
:10339000012A40D0456803F108025201AC5844F0BC
:1033A0008064AC504568AC5844F00044AC508A6925
:1033B000002AC5D019464068FFF738FDC0E74468C9
:1033C00004EB4314D4F810516FF3DC45C4F81051EA
:1033D000446804EB4314D4F810516FF31205C4F899
:1033E0001051CC688D69A54288BF8C61446804EB9C
:1033F0004314D4F81051012666F3DC45C4F810518B
:1034000044688E6904EB4314D4F8105166F3120536
:10341000C4F81051BCE78A6822B1416801EB43113E
:10342000C1F81421416808335B01CA5842F0806238
:10343000CA504168CA5842F00042CA5080E738B5C5
:1034400001F00F0100EB411484F84012002584F8CC
:103450004152C4F85422C4F85C52C4F85832C36ACA
:10346000012B08BFC4F8482231B11231DAB200EBA7
:103470004111FFF7F9FD38BDDAB200F51071FFF721
:1034800022FFF8E738B501F00F0100EB411484F892
:103490004010012584F8415062650025E565A3656B
:1034A000C36A012B08BFA26431B10231DAB200EB6A
:1034B0004111FFF7D9FD38BDDAB200F14001FFF745
:1034C00002FFF8E730B412040568686AC9B1AB6A54
:1034D00000EB13404C1E002C0CDD0023194640313C
:1034E00005EB8101496800EB11400133DBB219465D
:1034F000A342F4DB1043403405EB8404606030BC2D
:1035000070471043A862FAE7F8B5044690F82030F7
:10351000022B3FD1036B012B22D0AD4B1A7842F026
:1035200001021A701A7942F001021A711A7C42F0F3
:1035300001021A7493F82420052161F3020283F832
:10354000242000210068FFF72CFA2068FFF78BFA8F
:1035500094F83C30012B19D02068FFF7A8FA3EE020
:1035600001210068FFF71DFA2068FFF77CFA32207E
:10357000FDF797FD94F83C30012B03D02068FFF74E
:1035800096FA2CE02068FFF78DFA28E02068FFF714
:1035900089FA24E00068FFF785FA00212068FFF728
:1035A00000FA2368DA686FF39652DA602368DA6803
:1035B0006FF35142DA602368DA686FF31452DA600D
:1035C0002368DA686FF35552DA6094F83D30012BC6
:1035D00074D02068FFF747FA3220FDF762FDE36AF6
:1035E000012B71D094F83F102068FFF7B5FAA06A5C
:1035F000F8B100210A46012504EB411383F840127B
:1036000083F8412283F84222C3F84C22C3F85422A3
:10361000C3F8582283F8401083F84150A3F85010A3
:1036200083F84220DA645A659A650131C9B2814251
:10363000E2D3002384F870341846226803F1400175
:1036400002EB8102506001330F2BF6D12369012B6D
:1036500042D123689A6B6FF355529A632268936B39
:1036600043F400239363E368002119606068FFF767
:10367000B0FB94F82030022B42D0236B012B0CBFFF
:10368000012100216068FFF7A9FB10212068FFF7E6
:10369000B4F92068FFF7D3F96068FFF7D4FB6068DE
:1036A000FFF7D4FB6068FFF7D4FBA36A002B00F0A0
:1036B0009180002318464FF67F3551E02268D36889
:1036C00043F48013D36084E703212068FFF7F9F9FE
:1036D0002068FFF7F1F985E701216068FFF770FBCB
:1036E0002268936B43F40013936323689A6B6FF320
:1036F00092429A6323689A6B6FF3D3429A63B2E75C
:10370000236B012B0BD1636B23B903216068FFF797
:1037100065FBBAE701216068FFF760FBB5E70021B0
:103720006068FFF75BFBB0E703F1180149017050D7
:103730002EE0676802F1080149017E5846F00066F4
:103740007E50616801EB4211C1F81001616801EB24
:103750004212C2F808510133DBB2A26A934239D255
:1037600066681A4603F11801490171580029DBDA2D
:1037700033B103F118014901775847F0804777507A
:10378000676802F1180149017E5846F000667E50D4
:10379000616801EB4211C1F81003616801EB42114D
:1037A000C1F80853666802F10801490171580029FF
:1037B00009DA002BBDD002F108014901775847F022
:1037C00080477750B5E702F1080149017050B8E72A
:1037D000000204404FF480716068FFF74BFB2068E3
:1037E000FFF7F8F86FF080412068FFF704F9236BCA
:1037F000012B30D04FF400712068FFF7DBF88022F6
:1038000000212046FFF75EFE4FF4BA7201212046E8
:10381000FFF758FEE36A23B92268936943F0100367
:103820009361E369012B25D02369012B28D02268FD
:103830009169174B0B439361E26813786FF30003B0
:103840001370E26813786FF341031370012160680D
:10385000FFF7B6FAF8BD80212068FFF7ABF84022E9
:1038600000212046FFF72EFE802201212046FFF78F
:1038700029FECFE72268936943F008039361D3E7F9
:103880002268936943F0804343F004039361CEE7D9
:1038900000383C8038B501F00F0411F0800F14D1CE
:1038A00000EB4411002581F8415281F8404281F833
:1038B0004222C1F84C32022A1CD004F1120100EB62
:1038C00041114068FFF76EF938BD00EB4411012546
:1038D00081F8415081F8404081F84220CB64A1F842
:1038E0005040022A0CD0A11C00EB41114068FFF7A8
:1038F00059F9E9E7A31C00EB431300221A71DCE736
:10390000A31C00EB431300221A71ECE708B501F089
:103910000F0311F0800F09D103F1120100EB4111E7
:1039200000234B704068FFF7ACF908BD991C00EB11
:10393000411101234B704068FFF7A3F9F5E711F03F
:10394000800F01F07F0100EB411114BF91F843009B
:1039500091F84302704701F00F03826A934242D804
:1039600010B411F0800F1AD103F1120200EB4212D1
:10397000002151700021D17013705178012914D0A9
:10398000416818335B01CC586FF35554CC50937891
:10399000023BDBB2012B1DD95DF8044B70479A1C2A
:1039A00000EB421201215170E4E7416808335B01EA
:1039B000CC586FF35554CC509378023BDBB2012BBB
:1039C000EAD84168137808335B01CA5842F0805244
:1039D000CA50E1E74168137818335B01CA5842F0D6
:1039E0008052CA50D8E7704708B580F87014406814
:1039F000FFF7FDF908BD01F00F03826A934245D835
:103A000010B411F0800F24D103F1120200EB421226
:103A1000002151700121D1701370517801291ED0FD
:103A200063B1446803F1180149016158002905DBBD
:103A300018335B01E1586FF39E71E15041681378D0
:103A400018335B01CA5842F40012CA505DF8044BA7
:103A500070479A1C00EB421201215170DAE763B102
:103A6000446803F1080149016158002905DB083366
:103A70005B01E1586FF39E71E150416813780833A0
:103A80005B01CA5842F40012CA50DFE7704710B514
:103A9000044690F83C30012B11D02068FEF795FFCA
:103AA000E26813786FF300031370E26813786FF322
:103AB0004103137000216068FFF782F910BD90F890
:103AC0002030012BE9D00068FEF7F1FFE5E72DE992
:103AD000F84F04460068FEF769FF08B1BDE8F88FAB
:103AE00005462068FEF783FF0028F7D002212068F2
:103AF000FEF775FF002868D110212068FEF76FFFE0
:103B0000002867D14FF400212068FEF768FF0028E5
:103B100040F09D804FF480212068FEF760FF002870
:103B200040F03E814FF480512068FEF758FF002896
:103B300040F0C0814FF000412068FEF750FF0028A0
:103B400040F01B824FF400612068FEF748FF002818
:103B500040F01F824FF400512068FEF740FF00281C
:103B600040F0268208212068FEF739FF002840F047
:103B70004D824FF480112068FEF731FF002840F09D
:103B80004D824FF400112068FEF729FF002840F015
:103B90004F824FF080412068FEF721FF002840F05F
:103BA000518204212068FEF71AFF002896D023686E
:103BB0005B6813F0040F91D02046FDF7C6FB226826
:103BC000536843F00403536088E702212068FEF73E
:103BD00012FF91E710212068FEF7F2FE2068FEF741
:103BE000DEFE00F00F07C0F34343C0F30A16022BBA
:103BF00006D0062B1DD010212068FEF7DDFE81E7E0
:103C0000002EF8D004EB4713D3F854120029F2D059
:103C10003246A068FFF77DF904EB4717D7F8543216
:103C20003344C7F85432D7F85C323344C7F85C32B7
:103C3000E1E7082204F58861A068FFF76AF904EB60
:103C40004717D7F85C023044C7F85C02D3E76068D6
:103C5000FFF719F9814600283FF45CAF04F51378AB
:103C600000264FF0010A4FF0080B6CE0524639462F
:103C70006068FFF72AF9606800EB4613D3F8082361
:103C8000C2F3C002D3F80813C1F30011D3F8103304
:103C9000C3F3120CE36A7BB916B9D4F8583223B1D6
:103CA00039462046FDF7EBFA58E004F5886200211A
:103CB0002046FFF750F9F3E7002A4FD141B100EB5E
:103CC0004610B0F8083343F01003A0F8083345E07D
:103CD000D8F800205FFA8CF3D31AC8F81030D8F85F
:103CE00008301344C8F8083016B9D4F8583223B154
:103CF00039462046FDF7C3FA30E004F588625146A4
:103D00002046FFF728F9F3E75A4639466068FFF77F
:103D1000DCF82046FDF7ABFA27E010223946606850
:103D2000FFF7D3F828E0022239466068FFF7CDF8A4
:103D300029E00F2E3FF4EEAE013608F1200859FAC3
:103D400006F03FF4E7AEF7B210F0010FF1D05246A3
:103D500039466068FFF7A3F8002887D15A463946EC
:103D60006068FFF79CF80028CED1102239466068C1
:103D7000FFF795F80028D0D1022239466068FFF796
:103D80008EF80028CFD1402239466068FFF787F8C7
:103D90000028CED0402239466068FFF796F8C8E781
:103DA0006068FFF776F8814600283FF4BBAE04F167
:103DB0004C0800264FF0010A4FF0080B47E007F0CF
:103DC0000F016068FFF738F8524639466068FFF720
:103DD00084F8E36A012B04D039462046FDF759FAEE
:103DE00040E0D8F80830D8F800201344C8F808306C
:103DF000D8F80C30002BEFD1002FEDD104F58862FC
:103E000051462046FFF7A7F8E6E75A46394660686C
:103E1000FFF763F82DE0102239466068FFF75DF880
:103E20002EE0402239466068FFF757F82FE0022263
:103E300039466068FFF751F830E00F2E3FF472AE5C
:103E4000013608F1200859FA06F03FF46BAEF7B2DC
:103E500010F0010FF1D0524639466068FFF72AF89A
:103E60000028ACD15A4639466068FFF723F800288D
:103E7000CBD1102239466068FFF71CF80028CAD160
:103E8000402239466068FFF715F80028C9D10222A0
:103E900039466068FFF70EF80028C8D180223946FD
:103EA0006068FFF707F80028C7D039462046FFF7BB
:103EB00084F8C2E76068FEF79FFF10212068FEF7D4
:103EC0009CFDA36A53B34FF67F30626805F1180377
:103ED0005B01D1586FF35551D1506168CA5842F017
:103EE0000062CA50636803EB4513C3F808036268B5
:103EF00005F108035B01D1586FF35551D15061684A
:103F0000CA5842F00062CA50636803EB4513C3F815
:103F100008010135EDB2A36A9D42D6D30021606845
:103F2000FEF76FFF00216068FEF776FF94F83E30E1
:103F3000012B19D00B216068FEF798FF42F22B018C
:103F40006068FEF79CFF00216068FEF750FF04F5F3
:103F5000886294F82C102046FEF7FDFF4FF4805144
:103F60002068FEF748FDE5E50B216068FEF774FF69
:103F70000B216068FEF774FFE5E76068FEF73CFF21
:103F80002046FDF73FF94FF000412068FEF733FD72
:103F9000D8E563689B6813F0010F05D14FF4006109
:103FA0002068FEF728FDD5E52046FDF731F9F5E755
:103FB0006368D3F800216FF30A02C3F80021626836
:103FC000938843F4807393806068FEF70CFF00F0E1
:103FD000FD03012B17D010B1FF23236301E0002361
:103FE00023632568FEF7A0F8014694F830202846A0
:103FF000FEF76CFD2046FDF72BF94FF400512068C9
:10400000FEF7F9FCAEE501232363EAE72046FDF75E
:1040100084F908212068FEF7EEFCAAE5002120467D
:10402000FDF781F94FF480112068FEF7E4FCA8E564
:1040300000212046FDF77DF94FF400112068FEF7BE
:10404000DAFCA6E52046FDF77AF94FF080412068BA
:10405000FEF7D1FCA5E5000002464369002908DD12
:10406000186800EBC100D368834229D810692C304E
:10407000704711F57A5F09DC11F57A5F0AD01B6889
:104080001879662809D010692C307047C06800EB99
:10409000C100704700692430704710B41B689C79D8
:1040A0000848401AA04208DC6FF47A50401A0230E7
:1040B00003EBC0005DF8044B704710692C30F9E742
:1040C000704700BF80C1FFFF70B4047904F03F0463
:1040D000062C0ED0262C23D10468481EA579A842B0
:1040E00021D2013104EBC1011160F3B11C6012480F
:1040F00017E00068C5684C1EEE68B44217D200EBAA
:104100008100C468A46814600BB1C2681A6001F130
:1041100000510139EB6B53F8310050B1103000E021
:10412000002070BC70470020FBE70348F9E700203F
:10413000F7E70248F5E700BFD8AB0208508E020847
:1041400038B514461D46FFF787FF006805B12860A3
:10415000002C07DDC368DB68A34205DB033400EBFA
:10416000840038BD0148FCE70048FAE7608E020889
:1041700070B582B004460D4611460EF0FFF80646B3
:104180002B79452B16D00020E2681660337943F076
:1041900040031371E26802F10803E3600090A2F1AA
:1041A00008032946204612F04DFDE368103BE3600A
:1041B00002B070BD0146286810F0E6FB037913F0E9
:1041C0000F0FE1D0E36853F8082C026013F8043CA9
:1041D0000371E36813F8042C12F0400F0AD0296829
:1041E0004A7912F0200F05D053F8083C5B7913F0A0
:1041F000180F03D1E368083BE360D9E7204608F0D5
:10420000B5FCF7E7F8B5044617461E46FFF724FF4E
:104210000568E368083B3A462946204610F05EFEF2
:10422000AB7923F03F03AB71E36813F8042C12F071
:10423000400F09D06A7912F0200F05D053F8083CDE
:104240005B7913F0180F04D1E268A2EBC602E260BA
:10425000F8BD2946204608F089FCF5E708B54A680C
:10426000096806F0C3FE08BD70B504460D464669F0
:10427000C3688269D21AB1EBE20F11DBC1F56A5251
:104280001832C1695B1ADB1005339A4201DA00204B
:1042900070BD0022294606F019FA0028F8D000E087
:1042A0000120E16801EBC5057368AB42F0D275608F
:1042B000EEE7884218D0C368A3EBC203C360002AAC
:1042C00012DD70B40023CC68C56805EBC30655F851
:1042D0003350256035792571CC680834CC600133C2
:1042E0009A42F0D170BC704770470369D3F88C00D4
:1042F000C3F88C10704700009FED010A704700BFA3
:104300000000FC430346084601F579523F32B2F5FE
:104310007A5F05D25A69DB6812689B1A01EBE300E9
:10432000704743691B680833C068C01AC0107047E3
:1043300038B5044600291FDB436901311B6803EBD4
:10434000C101C368CB1AD910002B0EDD0B46002526
:10435000E26802F10800E0601571013B002BF7DC18
:104360000129ACBF491A01F1FF31E56805EBC10530
:10437000002903DBE56038BD0131F6E7636AAB4233
:10438000F8D300234FF0FF322946204607F033FAD6
:10439000F0E738B50446002910DDCD004369186800
:1043A00000234FF0FF3200EBC101204607F023FA53
:1043B00063691B682B4400221A7138BDCD00C068A8
:1043C00000234FF0FF3200EBC101204607F013FA43
:1043D000E3682B44EFE72DE9F04383B0C468A4F110
:1043E00008090B1EC3BF4169096801EBC30304EB55
:1043F000C303002AAEBFA9EBC202D24303EBC20241
:104400009A4218D903F10800A2F1080150F8085C9B
:10441000009510F804EC8E6840F8086C91F80C8058
:1044200000F8048C8D6081F80CE08842A1F108014D
:1044300000F10800EAD302F10801894516D91032CB
:10444000A4F1100152F8080C009012F804EC8F68E7
:1044500042F8087C0F7B02F8047C886081F80CE04D
:104460008A42A1F1080102F10802EBD3994515D95E
:104470000833A4F1100253F8084C009413F8045CBC
:10448000966843F8086C167B03F8046C9460157307
:104490009A42A2F1080203F10803ECD803B0BDE888
:1044A000F08370B506461546FFF7D6FD044629464B
:1044B0003046FFF7D1FD236803602379037115F5BA
:1044C0007A5F0EDA13F0400F0BD073691B6819681E
:1044D0004B7913F0200F04D02268537913F0180F92
:1044E00000D170BD304608F01EFBFAE738B504462F
:1044F000C568FFF7B1FD03682B6003792B71E36892
:104500000833E36038BD10B50446FFF7A5FD024649
:10451000037913F00F0006D123692C339A424FF030
:10452000FF3018BF002010BD0131024B53F82100AD
:10453000704700BF3CB4020808B5FFF78DFD007955
:10454000162804D0662814BF0020012008BD0120D1
:10455000FCE708B5FFF780FD0079032814BF0020B1
:10456000012008BD00B583B0FFF776FD0379132B5A
:1045700003D1012003B05DF804FB01A912F085FA14
:10458000F8E708B5FFF768FD007900F00F00033881
:1045900001288CBF0020012008BD70B505461646D5
:1045A000FFF75AFD044631462846FFF755FD0246FF
:1045B000237913F00F0F03D12B692C339C420CD0BD
:1045C000137913F00F0F03D12B692C339A4206D0C5
:1045D0002146002012F0C0FC70BD0020FCE7002046
:1045E000FAE710B582B00446A1F10C03012B0CD9F7
:1045F000E368A3F110020092083B20460AF0BDFFD9
:10460000E368083BE36002B010BDC36853F8082CB0
:104610001A6013F8042C1A71C3680833C360E7E703
:10462000F8B5044617461D46FFF716FD06463946FF
:104630002046FFF711FD0246337913F00F0F03D127
:1046400023692C339E421DD0137913F00F0F03D131
:1046500023692C339A4217D0012D09D0022D0CD09A
:104660000DB10020F8BD3146204612F075FCF9E787
:104670003146204612F078FBF4E73146204612F02E
:10468000EFFBEFE70020EDE70020EBE710B5044675
:104690000846E1680AF098FF10B1E3680833E36068
:1046A00010BD10B582B0144600230193FFF7D4FC6F
:1046B0000379132B08D103680193012004B1206012
:1046C0009DED010A02B010BD01A912F0DEF9F5E777
:1046D00010B582B0144600230193FFF7BDFC0379A7
:1046E000032B07D103680193012004B120600198D6
:1046F00002B010BD002201A912F031FAF5E708B5A9
:10470000FFF7AAFC0079012804D010F00F0018BFB1
:10471000012008BD0020FCE770B505460E46144692
:10472000FFF79AFC037903F00F03042B0DD0032B42
:1047300016D1014628460BF03CF82B69DB68002BAC
:1047400012DC31462846FFF787FC34B103681A793A
:10475000042A0CBFDB79DB6823600068103070BD71
:1047600034B100202060FAE7284608F009FBE8E7AA
:104770002046F4E708B5FFF76FFC037903F03F0329
:10478000043B102B17D8DFE803F00912160F16169A
:10479000161616161616161616160C000368D87975
:1047A0000AE00368D86807E00368986804E00068D6
:1047B00010F0A7FB00E0002008BD08B5FFF74CFC97
:1047C000037903F00F03022B0AD0072B0AD10068EC
:1047D000C3881BB10333DB00184404E01023FBE75C
:1047E000006800E0002008BD08B5FFF735FC03793C
:1047F000482B0CBF0068002008BD08B5FFF72CFC53
:10480000027902F03F03072B0AD0162B06D0022BA9
:1048100006D012F0400F16D0006800E0006808BD16
:1048200002F00F02022A0AD0072A0AD10068C388C0
:104830001BB10333DB001844F1E71023FBE70068EA
:10484000EDE70020EBE70020E9E7C36800221A71DA
:10485000C3680833C3607047C36883ED000A13223E
:104860001A71C3680833C3607047C36819600322B4
:104870001A71C3680833C3607047000038B5044636
:104880009AB90E490DF07AFD0546E26815602B795C
:1048900043F040031371E3680833E3602369DB6886
:1048A000002B06DC05F1100038BD0DF0ABFC054611
:1048B000EBE7204608F064FAF4E700BFD8AB020843
:1048C00038B504460D4691B10DF058FDE268106010
:1048D000037943F04003137100F11005E3680833D6
:1048E000E3602369DB68002B05DC284638BDC3681C
:1048F00000221A71F2E7204608F042FAF5E738B5CF
:1049000004460AF06BFF05462369DB68002B01DCD7
:10491000284638BD204608F033FAF9E70EB430B522
:1049200082B0044605AA52F8041B01920AF056FF11
:1049300005462369DB68002B05DC284602B0BDE88C
:10494000304003B07047204608F01AFAF5E770B51A
:1049500005460E463AB9C368196016221A71C36833
:104960000833C36070BD1446114606F05BFEC66096
:10497000EB68A3EBC403EB60611E00F1100600F1CD
:104980001404EB6803EBC10253F8313046F83130C0
:10499000137904F831300139B1F1FF3FF1D1EB68FF
:1049A000186066221A71EB680833EB602B69DB68CC
:1049B000002BD7DD284608F0E3F9D3E731B1C3680F
:1049C00011221A71C3680833C3607047C36801229B
:1049D0001A71F7E7C368196002221A71C3680833B5
:1049E000C3607047C368186048221A71C3680833EF
:1049F000C3600369D3F89030834214BF00200120C4
:104A00007047F0B583B0044603695B6ADE6806F15F
:104A100008070DF0B3FC0546337B452B17D000206B
:104A2000E26815602B7943F040031371E26802F1EC
:104A30000803E360009013463946204612F0A0F8C0
:104A4000E36813F8040C00F00F0003B0F0BD01465A
:104A5000B0680FF099FF037913F00F0FE0D0E3680F
:104A600002681A6002791A71E3680833E360E7E7C5
:104A700030B583B00446FFF7EFFA05460379452BBE
:104A80000FD00020E268083A0090134629462046DD
:104A900012F076F8E36813F8040C00F00F0003B08E
:104AA00030BDE168083900680FF082FF037913F028
:104AB0000F0FE7D0E368026843F8082C027903F887
:104AC000042CE7E770B582B004461646FFF7C4FA37
:104AD0000546314620460DF051FC06462B79452B04
:104AE00017D00020E2681660337943F04003137159
:104AF000E26802F10803E36000901346294620466D
:104B000012F03EF8E36813F8040C00F00F0002B056
:104B100070BD014628680FF037FF037913F00F0FBF
:104B2000E0D0E36802681A6002791A71E36808331A
:104B3000E360E7E770B584B004461646FFF78CFAE9
:104B400005460379452B18D10068731E826893428D
:104B50000FD206F10053013BC06800EBC30003799C
:104B600013F00F0F0AD0E36802681A6002791A7115
:104B70000FE031460FF0B6FEF1E700200296032366
:104B80008DF80C300090E36802AA2946204611F007
:104B9000F7FFE36803F10802E260187900F00F0004
:104BA00004B070BD10B50446FFF756FAE168083945
:104BB00000680FF0FDFEE368A3F10802E2600279ED
:104BC00012F00F0F0FBF0022026843F8082C027981
:104BD00003F8042CE36803F10802E260187900F09E
:104BE0000F0010BD38B504461546FFF735FA2946C3
:104BF00000680FF077FE037913F00F0FE3680FBF23
:104C0000002202681A6002791A71E36803F108024F
:104C1000E260187900F00F0038BD70B504460D460B
:104C200016460FF039FE0146E368186045221A71F6
:104C3000E3680833E360002D01DC002E04DD334619
:104C40002A4620460FF006FF2369DB68002B00DCB4
:104C500070BD204608F094F8FAE710B50446FFF757
:104C6000FBF9037903F00F03052B07D0072B11D0B5
:104C7000226902EB8303D3F8FC3001E003689B69EF
:104C80005BB1E268136045231371E3680833E360A6
:104C9000012010BD0368DB68F2E70020F9E738B5B2
:104CA00005461446FFF7D8F9002C14DD0268D388B6
:104CB000A34210DBEB68023452F83410196002EBA7
:104CC000C40422791A71EB68187900F00F00EB68C0
:104CD0000833EB6038BDEB6800221A714FF0FF30EB
:104CE000F5E708B50A4603695B6AD9680831FFF73A
:104CF0003FFA08BD38B504461546FFF7ADF9014641
:104D00002A462046FFF734FA38BD70B584B0044611
:104D10001646FFF7A1F905460379452B2ED1006809
:104D2000731E8268934225D206F10053013BC0688E
:104D300000EBC300037913F00F0F20D0E36853F8A2
:104D4000082C026013F8043C0371E36813F8042C88
:104D500012F0400F1FD029684A7912F0200F1AD0A4
:104D600053F8083C5B7913F0180F14D0204607F075
:104D7000FDFE10E031460FF0B5FDDBE700200296A6
:104D800003238DF80C30E3680090083B02AA294603
:104D9000204611F057FFE368083BE36004B070BDA4
:104DA00008B5C2680223103AFFF72CFA08BD70B5A7
:104DB00004461546FFF750F90668E368083B2A46A3
:104DC000314620460FF028FEE36813F8042C12F059
:104DD000400F09D0727912F0200F05D053F8083C2B
:104DE0005B7913F0180F03D1E368083BE36070BDF3
:104DF0003146204607F0BAFEF6E770B50446FFF7E5
:104E00002BF90546E36813F8042C12F00F0F47D076
:104E100053F8086C3146037903F00F03052B0BD0D0
:104E2000072B21D0226902EB8303C3F8FC10E3684F
:104E3000083BE360012070BD03689E61002EF6D040
:104E400001684B7913F0200F03D0737913F0180F1A
:104E500005D132462968204607F0C7FEE7E732460B
:104E6000204607F060FEF4E70368DE60002EDED027
:104E700001684B7913F0200F03D0737913F0180FEA
:104E800005D132462968204607F0AFFECFE732460B
:104E9000204607F048FEF4E72B6800229A61C6E737
:104EA000037903F00F03052BF6D0072B01D0002167
:104EB000B8E703680022DA60B9E738B5044615465A
:104EC000FFF7CAF80268691ED388994220D2E368C6
:104ED00002EBC50253F8081C116113F8043C13756A
:104EE000E36813F8042C12F0400F16D001684A79D9
:104EF00012F0200F13D053F8083C5B7913F0180F11
:104F000001D1012005E0204607F030FE012000E03D
:104F10000020E368083BE36038BD0120F9E7012089
:104F2000F7E738B5044615460498C943E26802EB32
:104F3000C10110B1B4F8622032B12A46204606F011
:104F400055F8002D09DB38BD626910616269936113
:104F50002A46204606F02DF8F3E76369E2685968AF
:104F6000914238BF5A60EEE770B584B004461546EA
:104F7000099A184643B1002BC6BF63691B68E368F2
:104F800003EBC000E369C01AC943E36803EBC10146
:104F9000029112B1B4F8623063B10395E3690090F5
:104FA000CB1A02AA1649204606F00CF9002D1FDB89
:104FB00004B070BD66693261089BB361E369CB1AC6
:104FC000F361E36D7361E065738C23F00102E379B3
:104FD000134343F0100373842A46204605F0E9FF8B
:104FE000738C23F0100373847369E3650020DDE79D
:104FF0006369E2685968914238BF5A60D8E700BFD8
:105000005D42000830B587B00446194D002B18BF2B
:105010001D4613460A4601A914F0B6FF0A9B2A460C
:1050200001A9204606F0F6F80546D0B9E36853F822
:10503000083C9A79AAB12269526AD26819698868CB
:1050400091680160117B017111F0400F09D019695D
:105050004B7913F0200F04D09268537913F0180F96
:1050600002D1284607B030BD204607F05CFDF8E7C6
:105070005C8E020830B583B0C46814F8045C462D19
:1050800002D0012003B030BD54F8084CE46800930E
:1050900013460A46214606F075FAF3E78079704711
:1050A0000EB4F0B582B0079C066996F83E3013F056
:1050B000020F40F0CE80054608AB01930B2C00F2A6
:1050C000C580DFE804F0060F171C21275664C37261
:1050D0007898012386F83E30204602B0BDE8F040C3
:1050E00003B07047002130460CF091FD002486F893
:1050F0003E40F1E7002107F053FF0024ECE7B468DD
:10510000F3681C44A40AE7E7B468F3681C44C4F3DA
:105110000904E1E7019B1A1D01921B6896F83E7095
:10512000002286F83E207BB9114630460CF06FFD18
:10513000284607F025FE86F83E7096F83940082C80
:1051400014BF00240124C7E7F46804EB832421463C
:1051500030460CF05CFD2B69DB68002B05DC86F823
:105160003E70002CE9DC0024B6E7284607F008FE74
:10517000F5E7019B1A1D019296F84040A4001B68B8
:10518000002BB8BF03339B1086F84030A4E7019B87
:105190001A1D019296F84140A4001B68002BB8BF6D
:1051A00003339B1086F8413096E796F83E40B4FAF8
:1051B00084F4640990E7019B1A1D01921A4652F883
:1051C000081B01925B6896F83A20012A03D07269A5
:1051D000002A08BF0B2409B186F83C1033B11A46E7
:1051E000002BB8BFDA1C921086F83D20012128461A
:1051F00007F08DFD70E7019B1A1D019219685A682E
:1052000003F10C0001909B6896F83A0001281BD02E
:105210007069002818BF0A2431B108460029B8BFB8
:10522000C81C801086F8400032B11146002AB8BF71
:10523000D11C891086F841100BB186F8423000214C
:10524000284607F064FD47E70A24E5E74FF0FF34FE
:1052500042E74FF0FF343FE708B5C36813F8042C6A
:10526000442A06D1016953F8082CD1F894309A42A7
:1052700001D004F05BFF042105F024F910B50446C9
:10528000FEF7EAFEE268083A016820460FF0A0FA4D
:1052900018B1E3680833E36010BDE368083BFAE740
:1052A00038B5044643690029CCBF1A68C26802EBCE
:1052B000C101B3F9205006F033FAB5F1FF3F04DB2A
:1052C0006369C5F57F45FD351D8438BD38B5044695
:1052D000002906DD11F026FF2369DB68002B0EDCB8
:1052E00038BDC568002208490CF08CFF286003799E
:1052F00043F040032B71E3680833E360ECE720469A
:1053000007F03EFDECE700BFD8AB020810B504463D
:10531000FEF7A2FE0246E168204611F0BBFFE368FB
:105320000833E36010BD11B1026952680A60036975
:10533000186870470369C3F8CC220369C3F8C81220
:10534000704708B50CF049FE08BD38B504460DF0AD
:105350004DF80546E368186047221A71E368083380
:10536000E3602369DB68002B05DCE88838B1033093
:10537000C000284438BD204607F002FDF5E71020A4
:10538000F7E770B582B00446154600260196FEF791
:1053900063FE334601AA2946FEF796FE40B1E36854
:1053A000019A1168196012791A71E3680833E36091
:1053B00002B070BD30B583B004461546002301939A
:1053C0000093FEF749FE6B4601AA2946FEF77CFED4
:1053D0000546C8B1E368A3F10802E260019A53F8F8
:1053E000081C116013F8043C1371019B1A7912F028
:1053F000400F09D000994A7912F0200F04D01A68A2
:10540000537913F0180F02D1284603B030BD20465F
:1054100007F089FBF8E770B506460D461446FEF71F
:105420001BFE037903F03F03062B03D0262B09D084
:10543000002070BD0023224629463046FEF780FE3C
:105440000068F6E7002C07DD00688379A34205DBDE
:10545000013400EBC400ECE70020EAE70020E8E7B5
:1054600070B582B004461E4601ABFEF769FE0546E4
:105470000023069A31462046FEF762FE02682A6043
:1054800001994B7913F0200F03D0537913F0180FC3
:1054900001D102B070BD204607F045FBF9E74B682B
:1054A00023B1136000234B600868704700207047E9
:1054B0002DE9F843154612B92846BDE8F88304469D
:1054C0000F464FF0FF31FFF71EF8052801D00025E9
:1054D000F2E72046FFF7B9F96FF001064FF0FF3809
:1054E00005EB08090AE06FF001012046FEF720FFF6
:1054F0000125E1E731462046FEF71AFF31462046F6
:10550000FFF7BCFE05460028D6D031462046FEF700
:10551000FAFF0428EED1424639462046FFF73DF80F
:105520000028E0D14A4639462046FFF7C1FF00284F
:10553000E0D00B492046FFF7C3F96FF002024FF0AD
:10554000FF312046FEF7ADFF6FF001012046FEF768
:10555000EFFE03212046FFF7B9FE0125ACE700BFAF
:10556000648E0208F8B504460E46FEF7DAFE0546DC
:1055700032462049204604F029FC1F4A1F49204694
:10558000FFF7A0FA6E1C022231462046FFF790FF7B
:1055900048B300224FF0FF312046FFF7BDF8054623
:1055A000032217491EF04EFC60B132464FF0FF3126
:1055B0002046FEF776FF31462046FEF7B9FE01276A
:1055C0003846F8BDE91C2046FFF77AF94FF0FF3264
:1055D0006FF001012046FEF7FEFE6FF0010120464C
:1055E000FEF7A6FEE1E7074629462046FEF7A0FEA5
:1055F000E6E700BFE0910208688E020880C1FFFF65
:10560000708E0208F0B583B004460E4615461CF0B5
:10561000A7FB00681EF00CFC074600222946204626
:10562000FFF77AF80097431C324609492046FFF7F6
:1056300075F94FF0FF3229462046FEF7CCFE6FF099
:1056400001012046FEF774FE062003B0F0BD00BF46
:10565000748E0208F0B583B006460C46154601A9C3
:10566000FFF761FE074621463046FFF7A6F80446DD
:105670002B46426801680198B847074620B1276069
:105680006560384603B0F0BD002DF8D003493046C0
:10569000FFF716F93046FFF7DFFDF0E7888E0208C6
:1056A00008B500220121FFF7D5FF002008BD38B55D
:1056B0000C4615460B68002B05DD136000230B60BC
:1056C00004F1080038BD4B689A8912F0200F08D108
:1056D0004FF48062012104F108001CF079FF28607A
:1056E000EEE70020EEE7000070B504460D4600230B
:1056F0000360174E60681DF00DFAB0F1FF3F22D035
:1057000016F8013B98420BD123685A1C22602344AF
:1057100018723378002BEDD1236060681DF0FAF920
:10572000286023280DD160681DF0F4F9B0F1FF3F27
:1057300001D00A28F7D160681DF0ECF9286001203B
:1057400005E0002003E04FF0FF332B60002070BD28
:105750009C8E02080ABB38B5054610460B78402BD4
:1057600000D038BD4C1C0E492046FBF76FFB30B112
:105770000C492046FBF76AFB40B10120F1E72A46BD
:1057800009492846FFF7D6FD0120EAE72A460749DE
:105790002846FFF7CFFD0120E3E70020704700BF58
:1057A000A08E0208E4A30208B15700080D580008B3
:1057B00008B5FFF7CFFF08BD70B50446084615468B
:1057C0000F4E3368D9681CF087FE3368D8681CF028
:1057D00003FC2DB122460B492046FFF7ABFD70BDFF
:1057E000074D2B68D9680A201CF008FE2B68D86882
:1057F0001CF0F2FB224604492046FFF79BFDEEE732
:10580000B0010020B95700080D580008F8B5064649
:105810000C461546FFF79EFF00B1F8BD084F3B68E8
:10582000DB680D22012107481DF066F93B68D86846
:105830001CF0D2FB2A4621463046FFF7BDFFECE7BD
:10584000B0010020A48E020810B500224FF0FF31F5
:10585000FEF762FF074C2368074A002818BF02467C
:105860000649D8681CF080FD2368D8681CF0B4FB9A
:10587000002010BDB0010020B48E0208D48E0208B2
:10588000F8B50C469BB115461F46184610F012FAA3
:10589000064650B14CB13A46AF4228BF2A4621468F
:1058A0001DF082FA204610F083FA3046F8BD084613
:1058B00010F07EFA0026F8E710B59CB0044601AA65
:1058C00004F0C5F938B101AA0949204604F07EFA6E
:1058D000079B002B05DC07492046FFF71FF81CB08B
:1058E00010BD0CAA04492046FFF718F8F7E700BFDF
:1058F000088F0208D8AB02080C8F02080EB430B52E
:1059000082B0044605AB53F8045B01930121FFF715
:10591000D3FF019A29462046FEF7F1FF02212046D7
:10592000FFF7D4FC2046FFF797FC02B0BDE83040FB
:1059300003B0704770B59EB006460C46154603AAE4
:10594000002104F084F9B0B103AA1949304604F0EB
:105950003DFA18490598FBF779FA08B9013C11D0CE
:10596000049BB3B10095049B224613493046FFF7D0
:10597000C5FF1EB070BD2B46224610493046FFF7CA
:10598000BDFFF6E72B46049A0D493046FFF7B6FFF8
:10599000EFE703A93046FFF7E5FD10B90948049089
:1059A000E0E700224FF0FF313046FEF7B5FEF6E7A4
:1059B00068BC0208309B02084C8F0208148F020852
:1059C0002C8F02085C8E020838B504460D460A4644
:1059D0001249FFF777F808B1002038BD6FF00101D8
:1059E0002046FEF7A5FC022200212046FFF715F90C
:1059F00029462046FEF764FF094A6FF00101204660
:105A0000FFF778F94FF0FF312046FEF76FFD2A4689
:105A100002492046FFF76EF90120DEE780C1FFFF53
:105A20006C8F020838B505461446FEF71DFC00B120
:105A300038BD2CB1224605492846FFF75FFFF7E73E
:105A400003492846FFF75AFFF2E700BF748F0208A8
:105A5000888F020838B504460D46FEF754FDB0F1B4
:105A6000FF3F00D038BD034A29462046FFF762FFBA
:105A7000F8E700BF988F020838B50446C568826809
:105A800001682846FEF7FAFE54F8103BA34204D002
:105A90006FF001012846FEF77CFC4FF0FF326FF0FB
:105AA00001012846FEF797FC6FF001012846FEF73A
:105AB0003FFC38BD08B582680A448260FFF7DCFF0E
:105AC00008BD08B5C86001F110020A6000228A60B2
:105AD0004FF480724A60FEF77DFF08BD2DE9F0416A
