:020000040800F2
:1000000000000220552E00081D3000082130000895
:1000100025300008293000082D30000800000000BD
:10002000000000000000000000000000210C00089B
:100030003130000800000000810C0008E50C0008C9
:10004000A52E0008A52E0008A52E0008A52E000844
:10005000A52E0008A52E0008A52E0008A52E000834
:10006000A52E0008A52E0008A52E0008A52E000824
:10007000A52E0008A52E0008A52E0008A52E000814
:10008000A52E0008A52E0008A52E0008C52A0008E8
:10009000812B0008012C0008812C0008A52E0008E7
:1000A000F92C0008152D0008A52E0008A52E000823
:1000B000A52E0008A52E0008A52E0008A52E0008D4
:1000C000A52E0008A52E0008A52E0008A52E0008C4
:1000D000A52E0008A52E0008A52E0008A52E0008B4
:1000E000A52E0008A52E0008A52E0008A52E0008A4
:1000F000A52E0008A52E0008A52E0008A52E000894
:10010000A52E0008A52E0008A52E0008A52E000883
:10011000A52E0008A52E0008A52E0008A52E000873
:1001200095290008A52E00082D290008A52E0008F5
:10013000C9280008A52E0008A52E0008A52E000835
:10014000A52E0008A52E0008A52E0008A52E000843
:10015000A52E0008A52E0008A52E0008A52E000833
:10016000A52E0008A52E0008A52E0008A52E000823
:10017000A52E0008A52E0008A52E000800000000EE
:10018000A52E0008A52E0008A52E0008A52E000803
:04019000A52E000890
:1001A00010B5054C237833B9044B13B10448AFF3B1
:1001B00000800123237010BD3C00002000000000DF
:1001C000D030000808B5034B1BB103490348AFF317
:1001D000008008BD0000000040000020D030000872
:1001E00008B5642001F0C8FEFBE700BF10B582B07F
:1001F00002F07EFD0224CDE90040084908480023B2
:10020000822201F0E7FB074B07490848CDE900438C
:100210008022002301F0DEFB02B010BDE8300008B0
:10022000AD2D000858000020F0300008E101000862
:1002300083686FF300038360704700BF03686FF348
:1002400041030360036843F0010303604368DB0775
:1002500007D44FF6FF7301E0013B02D04268D2079A
:10026000FAD5436813F001035FD00B78012B0368C4
:100270000CBF43F040036FF3861303604B78012BF0
:1002800003680CBF43F020036FF3451303608B78C2
:10029000012B03680CBF43F010036FF304130360DA
:1002A000CB78012B03680CBF43F008036FF3C30343
:1002B00003600B79012B03680CBF43F004036FF359
:1002C00082030360C36923F04043C361C3694A7971
:1002D00043EA8273C361C3698A7962F31963C361B4
:1002E000CA79C36962F31343C3610A7AC36962F3CB
:1002F0001653C3614B89C269013B63F30902C261B2
:1003000003686FF3000303604368D90707D54FF60E
:10031000FF7301E0013B02D04268D207FAD4406883
:1003200000F0010080F0010070471846704700BFE0
:1003300070B400EB01150B01D5F8B04104F00404D2
:100340009460002C39D1D5F8B041640D146001F1EE
:100350001B04260100EB04148659C6F34006D66040
:100360006468C4F30304147495F8B54154760344E7
:1003700003F5DC731C6854741C68C4F3072494747C
:100380001C68C4F30744D4741C68C4F30764147570
:100390005C6854755C68C4F3072494755C68C4F3A6
:1003A0000744D4755B68C3F30763137651B9C36818
:1003B00043F0200370BCC3607047D5F8B041E40837
:1003C0005460C4E7036943F0200370BC03617047C5
:1003D000D1B9036861F341030360036843F001038B
:1003E00003604368DB070AD44FF4803304E0013B29
:1003F00005D04268D10702D442689207F7D4436817
:10040000DB073ED40020704701291FD00229F9D113
:10041000036843F00203036003686FF300030360A3
:100420004368DB0748BF4FF4803305D407E0013B46
:1004300005D04268D10702D542689207F7D54368D4
:10044000DB07DFD44068C0F34000704703686FF3F8
:100450004103036003686FF3000303604FF48033CC
:1004600001E0013B05D04268D107FAD44268920707
:10047000F7D44368D90702D543689A07C2D401204C
:1004800070474068C0F3400080F00100704700BF33
:10049000436919434161704711F4700F07D08069B7
:1004A0000840C0F31300003818BF01207047CB018B
:1004B00007D540680840C0F31300003818BF01207A
:1004C00070470A0107D580680840C0F31300003860
:1004D00018BF012070478B014CBFC06800690840FD
:1004E000C0F31300003818BF012070470A4B99422F
:1004F00009D08A01C1F3130301D5C36070474A01D3
:1005000004D5036170470023836170470A014CBF23
:1005100083604360704700BF7000F030B1F5007F2A
:100520001DD021D8202915D8E9B101391F291AD8A1
:10053000DFE801F0391919461919194B1919191958
:10054000191919191919191919191919191919191B
:100550001919193440293DD0B1F5807F46D143683F
:1005600043F0040343607047B1F5004F11D00AD93E
:10057000B1F5803F33D0B1F5003F35D1436843F04A
:10058000100343607047B1F5806FE8D0B1F5006F9C
:100590002BD183696FF306138361E0E7036943F0AE
:1005A000080303617047836843F001038360836835
:1005B00043F480738360836843F4803383607047BF
:1005C000C36843F00803C3607047C36843F0100377
:1005D000C3607047036943F01003036170474368C9
:1005E00043F008034360704770477047704700BF8F
:1005F00010B4114B114C124AA04288BF134611F09F
:10060000C04F12D04269C2F3C012C80054BF18686C
:100610005868084020F0F02020F0821010B1101E21
:1006200018BF01205DF8044B7047006800EAD12034
:1006300000F01C02E9E700BF006002400F640240C6
:100640000064024010B4094B094C0A4AA04294BF0E
:100650001846104611F0805F21F0F02121F0821140
:100660005DF8044B0CBF8160C160704700600240C0
:100670000F640240006402404369194214BF012024
:10068000002070471E4B30B4DC6804F4E064B4F51D
:10069000A06F2CD01AD9B4F5C06F2CD0B4F5E06F90
:1006A00021D102F00F020423164C994041EA0203C3
:1006B0001B01211800F01F0501224011DBB2AA40E6
:1006C00081F8003344F8202030BC7047B4F5407FF7
:1006D00006D0B4F5806F06D102F001020123E3E7F2
:1006E00000231A46E0E7064B074CDC60D9E702F02E
:1006F00003020223D8E702F007020323D4E700BF76
:1007000000ED00E000E100E00007FA05024A136C8A
:1007100018431064704700BF0038024041627047C0
:10072000406B704703690B4005D0C368194214BF82
:100730000120002070471846704700BFC94301617F
:10074000704700BF0B68D1ED036AC01A07EE900A2C
:10075000B8EEE77A07EE903AF8EE677AE7EE267A97
:10076000FCEEE77A17EE900AC1ED007A704700BF01
:10077000F0B40B7801EB83020133DBB25060022B43
:10078000D1E9012084B088BF00230B700227CB6819
:100790000393CDE90120DFB10023012201E055F8E8
:1007A0000C0C04A901EB8304D3B254F80C1C814255
:1007B00003F1010204AD84BF44F80C0C44F8081C9A
:1007C000BB4205EB8205EADB013F0298002FE3D133
:1007D000039B1844400804B0F0BC704730B40A4B87
:1007E0000D79C0EBC00003EB80026C1E18BF012422
:1007F00015711475D1E9035089699475C2E90350E4
:100800009161002030BC70479C0000202DE9F04130
:10081000C0EBC003174E56F82370798D3B8DCA1A72
:1008200004464FEAC00503D5C3F56A4360335A183E
:10083000114B1249A3FB0203D21A03EB52031B090B
:10084000580001EB04112D1BF862FFF791FFAD007A
:100850000B4956F80580F8622401D8F82C00214491
:10086000FFF770FF7359C8F82C00012283F830207D
:10087000BDE8F0819C000020876118867C00002084
:100880005C000020F8B50F4DC0EBC00305EB8307FB
:1008900055F82320BB7D02EB43020133DBB2142B5E
:1008A000044651804FEAC00607D8BB75341B0122AD
:1008B00055F8243083F83020F8BD0023BB75FFF7CE
:1008C000A5FFF3E79C000020F8B500251C4C2E4640
:1008D0001AE0A3699847A27D824225D0D4E902316B
:1008E00027690133002A18BF0F46BB42A36006D90F
:1008F0002379A075DB4303F00103584020750135CF
:100900000C2D04F11C040ED02379022BE8B2E0D1A7
:10091000237D0133DBB2642B08D001350C2D237508
:1009200004F11C04F0D1F8BDA660E8E72368267541
:1009300093F83020012A0CBF83F83060DE62DEE7D6
:100940009C000020024B53F82000FFF795BE00BF2B
:10095000000000200F4B70B553F820600C46304665
:10096000C9B2FFF7DFFE012802D00025284670BD7E
:100970003046FFF7D5FE85B2032D05D83046214617
:10098000FFF7DCFE284670BD00213046FFF7C6FEAB
:10099000F4E700BFF83000082DE9F041044601F00B
:1009A00043FA4B490F68002F47D04A4B1D6814EAA1
:1009B00005023CD1631E0A3339D8630704F10806E7
:1009C00030D1DFF824E1DEF800C0B4452FD342482F
:1009D000036803E01A6822B1184613465968B14209
:1009E000F8D3BB4223D01C46A1EB060854F8082BD1
:1009F0000260B8F1100F45D8384E3068ACEB0102F8
:100A000082423748CEF8002038BF3260026829435E
:100A10000025013259601D60026001F00DFA204688
:100A2000BDE8F08126F007030833B34228D800243C
:100A300001F002FA2046BDE8F0812A4A254D274EF2
:100A4000500714BFD31D134602F59632A2F10802D7
:100A500022F007070F602049234A18BF23F007033D
:100A60000B601846FB1A136000224A604FF00041E9
:100A7000C7E900222960C0E9007333600D4696E79C
:100A80001E469EE79819144AC0F804805E60164618
:100A900012689042FBD8716806EB010840450AD005
:100AA000416800EB010842450AD00260864259685D
:100AB00018BF3060A0E74068014471603046F0E73D
:100AC000BA42F2D0D2E90027394402604160EDE732
:100AD000EC010020F02D0120042E0120F82D012032
:100AE000FC2D0120F0010020F42D012040B1214A0D
:100AF00050F8043C1268134202D050F8081C01B1AF
:100B0000704730B523EA020383B040F8043C1A4C26
:100B1000019001F089F90198226850F8041C174BE4
:100B20000A44226008381A461B689842FBD8546869
:100B30001519A84219D04418A3420CD00360824270
:100B400018BF10600E4A13680133136003B0BDE88C
:100B5000304001F071B90B4C2468A342EED0D3E9C8
:100B60000034214403604160E9E7214451601046AC
:100B7000E1E700BFF02D0120F42D0120042E01201B
:100B8000002E0120EC01002082B0002301934FF0E1
:100B9000500383F31188BFF36F8FBFF34F8F019B17
:100BA000002BFCD002B0704708480068006880F352
:100BB00008884FF0000080F3148862B661B6BFF376
:100BC0004F8FBFF36F8F00DF00BF000008ED00E024
:100BD000DFF80C00016841F470010160704700000B
:100BE00088ED00E030B421F00101094C40F80C4CD4
:100BF0004FF080756FF0020340F8045C40F8081C69
:100C000040F8202C40F8243C30BC4438704700BFEA
:100C1000890B000800000000000000000000000038
:100C2000074B19680868B0E8F04F80F30988BFF3F4
:100C30006F8F4FF0000080F311887047AFF3008092
:100C40000C2E01204FF0500383F31188BFF36F8FF8
:100C5000BFF34F8F024A136801331360704700BF20
:100C600020000020034A1368013B13600BB983F393
:100C700011887047200000200000000000000000E4
:100C8000EFF30980BFF36F8F154B1A681EF0100F3A
:100C900008BF20ED108A20E9F04F10602DE909000F
:100CA0004FF0500080F31188BFF34F8FBFF36F8F69
:100CB00001F0C4F94FF0000080F3118809BC1968F5
:100CC0000868B0E8F04F1EF0100F08BFB0EC108AB3
:100CD00080F30988BFF36F8F704700BFAFF30080C8
:100CE0000C2E012008B54FF0500383F31188BFF399
:100CF0006F8FBFF34F8F01F091F918B1034B4FF095
:100D000080521A60002383F3118808BD04ED00E0CF
:100D100030B4094A094D0A4B0A4C0B4800211160B6
:100D200029601B68A4FB03139B09013B0721036097
:100D300030BC1160704700BF10E000E018E000E038
:100D400038000020D34D621014E000E0144B1A6804
:100D500010B542F470021A601A6842F0704282B014
:100D60001A60FFF7D5FF0F4B00241C60FFF730FF20
:100D70000D4A136843F040431360FFF715FF01F07D
:100D80005DF901944FF0500383F31188BFF36F8F27
:100D9000BFF34F8F019B002BFCD0002002B010BD91
:100DA00020ED00E02000002034EF00E0F8B505461B
:100DB0000C4601F039F829682E6905F10C0721432A
:100DC000B74229601CD000240BE00B4207D0D201AF
:100DD00041F0007148BF1C4301F036FA2968B74260
:100DE0000CD030467668026812F0806F22F07F43A4
:100DF000EBD033EA010CEAD0B742F2D121EA040188
:100E00002960BDE8F84001F017B800BF10B40C46E7
:100E100013460146224602485DF8044B01F03EBDF0
:100E2000AD0D000800F108034FF0FF310022C0E9CA
:100E30000333816002604360704700BF0023036199
:100E4000704700BF4368026810B49C688C609C685F
:100E50004B600132616099605DF8044B086102608B
:100E6000704700BF30B40D686B1C10D000F1080350
:100E70001C465B681A68AA42FAD902684B600132C4
:100E800099608C606160086130BC026070470469E1
:100E90006368F2E7036910B4D0E901125C688A6004
:100EA0008442516008BF5A601A685DF8044B002103
:100EB000013A01611A601868704700BF70B50446B6
:100EC0000D46FFF7BFFED4E90F302268626003FBD6
:100ED00000F3181AFF21134400260244A663C4E954
:100EE000023284F8441084F84510BDB923691BB957
:100EF000FFF7B8FE012070BD04F1100001F066F9A3
:100F00000028F5D00B4B4FF080521A60BFF34F8F83
:100F1000BFF36F8FFFF7A6FE012070BD04F1100034
:100F2000FFF780FF04F12400FFF77CFFFFF79AFE34
:100F3000012070BD04ED00E0F8B5064601FB00F0AD
:100F400050300D461746FFF727FD044628B335B34A
:100F500000F150032360C4E90F65FFF773FED4E985
:100F60000F232168616002FB03F2D31A0B440020B7
:100F70001144FF22A063C4E9021384F8442004F161
:100F8000100084F84520FFF74DFF04F12400FFF71F
:100F900049FFFFF767FE84F84C702046F8BD034612
:100FA000D8E700BF2DE9F047044684B01F46019200
:100FB000884600F12406FFF745FEA26BE36BDFF8DD
:100FC00038939A424FF0000A7CD3022F00F0E7805A
:100FD000019D002D00F0108102ADBAF1000F00F06C
:100FE000DA80FFF73FFE00F01FFFFFF72BFE94F8BB
:100FF0004430FF2B04BF002384F8443094F845307C
:10100000FF2B04BF002384F84530FFF72BFE284652
:1010100001A901F053F9002840F0F480FFF712FE17
:10102000A26BE36B9A4261D0FFF71CFEFFF70AFE4A
:1010300094F845506DB2002D05DC12E06B1E13F0E4
:10104000FF0F5DB20DD0636A304653B101F0BEF8B8
:101050000028F3D001F064F96B1E13F0FF0F5DB2AE
:10106000F1D1FF2384F84530FFF7FCFDFFF7EAFDDF
:1010700094F844506DB2002D15DD04F1100A04E01F
:101080006B1E13F0FF0F5DB20DD02369504653B1B4
:1010900001F09CF80028F3D001F042F96B1E13F028
:1010A000FF0F5DB2F1D1FF2384F84430FFF7DAFD82
:1010B00000F0C2FEFFF7C6FDA26BE36B9A424FF051
:1010C000010A82D2226CA56B002A40F0E5802668D6
:1010D000002E00F0F7800135A563636A002B7BD1F9
:1010E000FFF7C0FD012004B0BDE8F08704F1100A4D
:1010F000FFF7B8FD0199504600F0CEFFFFF7A2FDC3
:1011000094F845506DB2002D05DC12E06B1E13F013
:10111000FF0F5DB20DD0636A304653B101F056F84F
:101120000028F3D001F0FCF86B1E13F0FF0F5DB246
:10113000F1D1FF2384F84530FFF794FDFFF782FDDE
:1011400094F844506DB2002D05DC12E06B1E13F0D4
:10115000FF0F5DB20DD02369504653B101F036F850
:101160000028F3D001F0DCF86B1E13F0FF0F5DB226
:10117000F1D1FF2384F84430FFF774FD00F05CFEEA
:10118000002897D14FF08053C9F80030BFF34F8F3C
:10119000BFF36F8F8EE7284601F084F821E7226CB9
:1011A000A56B002A93D04146E06801F07BFF226CDA
:1011B000E36821689B1A8B42E360C2F1000204D20B
:1011C000A3681A44E260022F85D1002D84D1012347
:1011D000A363636A002B83D004F1240000F0F6FFC0
:1011E00000283FF47DAF444B4FF080521A60BFF3AC
:1011F0004F8FBFF36F8F73E7FFF734FD284604B0BE
:10120000BDE8F087FFF71EFD94F845506DB2002D44
:1012100015DD04F1240604E06B1E13F0FF0F5DB230
:101220000DD0636A304653B100F0D0FF0028F3D0F0
:1012300001F076F86B1E13F0FF0F5DB2F1D1FF23C2
:1012400084F84530FFF70EFDFFF7FCFC94F844509E
:101250006DB2002D15DD04F1100604E06B1E13F0D5
:10126000FF0F5DB20DD02369304653B100F0AEFFE1
:101270000028F3D001F054F86B1E13F0FF0F5DB29D
:10128000F1D1FF2384F84430FFF7ECFC00F0D4FDEB
:10129000002004B0BDE8F0874146FFB9606801F066
:1012A00001FF6368216CA2680B4493426360FFF402
:1012B00012AF0135A563636A22686260002B3FF4B8
:1012C0000FAF89E7A068013501F040F8A563636AB4
:1012D000A660002B80D1002885D101E7E06801F0ED
:1012E000E1FE226CE36821689B1A8B42E360C2F145
:1012F0000002BFF468AF63E704ED00E02DE9F043BE
:10130000044683B090469946EFF311874FF05002A0
:1013100082F31188BFF36F8FBFF34F8F856BC06B64
:1013200085421FD3022B05D0002087F3118803B01C
:10133000BDE8F08394F84550226CA06BA66B6DB2AB
:101340003ABB2368002B4AD001366B1CA66336D00B
:1013500001356DB284F84550012087F3118803B040
:10136000BDE8F08394F84550226CA06BA66B6DB27B
:10137000002AE6D0002B3AD1606801F093FE636842
:10138000216CA2680B449342636024BF23686360AE
:10139000DAE7E06801F086FE226CE0682168801AD6
:1013A0008842E060C2F1000205D2A1680A44E2600E
:1013B000B9F1020FC8D1012E38BF0126C5E7636A13
:1013C000002BC9D004F1240000F000FF0028C3D096
:1013D000B8F1000FC0D00120C8F80000A5E7A06850
:1013E000019300F0B3FF019BA3600136ADE7E06815
:1013F00001F058FE226CE0682168801A8842E060A3
:10140000C2F10002D4D2D0E72DE9F043044685B002
:101410000F460192FFF716FCA56B002D40F02681C8
:10142000019B002B00F0D18002A800F03BFFDFF809
:10143000888204F12406FFF715FC00F0F5FCFFF7A5
:1014400001FC94F84430FF2B04BF002384F844309F
:1014500094F84530FF2B04BF002384F84530FFF794
:1014600001FC01A902A800F029FF00285AD1FFF7CA
:10147000E9FBA36B002B40F0AE80FFF7F3FB019973
:10148000304600F009FEFFF7DDFB94F845506DB2E1
:10149000002D05DC12E06B1E13F0FF0F5DB20DD0C6
:1014A000636A304653B100F091FE0028F3D000F09B
:1014B00037FF6B1E13F0FF0F5DB2F1D1FF2384F8ED
:1014C0004530FFF7CFFBFFF7BDFB94F844506DB2FA
:1014D000002D15DD04F1100904E06B1E13F0FF0F61
:1014E0005DB20DD02369484653B100F06FFE00286D
:1014F000F3D000F015FF6B1E13F0FF0F5DB2F1D1BA
:10150000FF2384F84430FFF7ADFB00F095FC002882
:1015100052D14FF08053C8F80030BFF34F8FBFF364
:101520006F8F49E0FFF78EFB94F845506DB2002DA8
:1015300005DC12E06B1E13F0FF0F5DB20DD0636A85
:10154000304653B100F042FE0028F3D000F0E8FE30
:101550006B1E13F0FF0F5DB2F1D1FF2384F845300D
:10156000FFF780FBFFF76EFB94F844506DB2002D3F
:1015700015DD04F1100904E06B1E13F0FF0F5DB2DE
:101580000DD02369484653B100F020FE0028F3D067
:1015900000F0C6FE6B1E13F0FF0F5DB2F1D1FF230A
:1015A00084F84430FFF75EFB00F046FCFFF74AFB8F
:1015B000A36B53B1FFF756FBFFF744FBA56B002D60
:1015C00054D1019B002B7FF436AFFFF74BFB00207B
:1015D00005B0BDE8F083FFF745FBFFF733FB94F858
:1015E00045506DB2002D05DC12E06B1E13F0FF0FAD
:1015F0005DB20DD0636A304653B100F0E7FD0028BC
:10160000F3D000F08DFE6B1E13F0FF0F5DB2F1D131
:10161000FF2384F84530FFF725FBFFF713FB94F811
:1016200044506DB2002D15DD04F1100904E06B1E6D
:1016300013F0FF0F5DB20DD02369484653B100F09F
:10164000C5FD0028F3D000F06BFE6B1E13F0FF0FFA
:101650005DB2F1D1FF2384F84430FFF703FB00F0C3
:10166000EBFBFFF7EFFAA56B002DAAD0226C52B16D
:10167000D4E9023111449942E16024BF2168E1605C
:10168000384601F00FFD013DA56323692BB9FFF733
:10169000E9FA012005B0BDE8F08304F1100000F084
:1016A00095FD0028F3D0044B4FF080521A60BFF331
:1016B0004F8FBFF36F8FEAE704ED00E0134B1A681A
:1016C0007AB19A68B2B11A69B2B19A69B2B11A6ABA
:1016D000B2B19A6AB2B11A6B12B19A6BA2B17047E9
:1016E000062210B403EBC20443F8321060605DF8C8
:1016F000044B70470122F4E70222F2E70322F0E7ED
:101700000422EEE70522ECE70722EAE73C2F01205E
:1017100070B504460E461546FFF794FA94F8443027
:10172000FF2B04BF002384F8443094F84530FF2B8E
:1017300004BF002384F84530FFF794FAA36B002B15
:1017400045D0FFF77FFA94F845506DB2002D15DDB6
:1017500004F1240604E06B1E13F0FF0F5DB20DD000
:10176000636A304653B100F031FD0028F3D000F039
:10177000D7FD6B1E13F0FF0F5DB2F1D1FF2384F88C
:101780004530FFF76FFAFFF75DFA94F844506DB2F9
:10179000002D15DD04F1100604E06B1E13F0FF0FA1
:1017A0005DB20DD02369304653B100F00FFD002823
:1017B000F3D000F0B5FD6B1E13F0FF0F5DB2F1D159
:1017C000FF2384F84430BDE87040FFF74BBA2A4647
:1017D000314604F1240000F0A7FCB2E7074A0848AC
:1017E0004FF080511368012BFCD90160BFF34F8F7C
:1017F000BFF36F8F1368012BF7D8F3E7182E012082
:1018000004ED00E0F8B51B4B1B4E1D683368044621
:10181000181D0F46FFF73EFB40B933681749D86AD9
:101820000B680122824023EA02030B60631C17D07D
:1018300033682C195C6007D3114B18683168BDE818
:10184000F8400431FFF70EBB0E4B186831680431C5
:10185000FFF708FB0C4B1A68A24288BF1C60F8BD5A
:10186000002FE5D031680948BDE8F8400431FFF7A2
:10187000E9BA00BFF02E01200C2E0120882E012095
:10188000142E0120102E0120B82E0120DC2E012064
:101890002DE9F04F464B1D68013583B01D60002DCA
:1018A00045D0444B01931B689D4257D3424E336849
:1018B0001C68002C73D0DFF81481DFF814913F4FBF
:1018C00000244FF0010A24E00091FFF7E3FADBF86F
:1018D000282000990BF1180012B1FFF7DBFA0099EC
:1018E000DBF82C003B680AFA00F200EB80001A4398
:1018F00008EB80003A60FFF7A5FAD9F800203068BD
:10190000DBF82C10D26A0368914228BF0124002B17
:1019100049D03368DB68D3F80CB0DBF804200BF156
:10192000040195420846CFD2019B1A601BE0224B6E
:10193000234A1868234914681C6010600A68013241
:101940000A601A68126812BB1A4B01931A464FF0CC
:10195000FF33136013461B689D42A7D2DFF86C80EB
:10196000DFF86C900024D9F800301749DB6A03EBEC
:1019700083039B0058F803200B68022A28BF012428
:10198000002B0CBF2046012003B0BDE8F08F1B6880
:10199000084ADB6801921B681360134683E7DFF88F
:1019A0002C80DFF82C90019A4FF0FF331360DAE7B8
:1019B000F02E0120B82E0120102E0120882E0120AB
:1019C000142E0120BC2E0120F42E0120182E0120FF
:1019D0000C2E01202DE9F84F9600804630460D462A
:1019E0009946FEF7D9FF002800F0BE800746582030
:1019F000FEF7D2FF0446002800F0C180076332469C
:101A00003846A52101F05CFBD4F830A0002D00F091
:101A1000C78095F9003084F8343095F90030DBB395
:101A200095F9013084F8353095F90130A3B395F973
:101A3000023084F8363095F902306BB395F90330F3
:101A400084F8373095F9033033B395F9043084F8CE
:101A5000383095F90430FBB195F9053084F8393008
:101A600095F90530C3B195F9063084F83A3095F907
:101A700006308BB195F9073084F83B3095F9073083
:101A800053B195F9083084F83C3095F908301BB112
:101A900095F9093084F83D30002384F83D300A9DE3
:101AA000042D28BF04254FF0000B271DC4E9125B4D
:101AB000E5623846043EFFF7C1F9C5F1050504F1BA
:101AC00018005644FFF7BAF9A56126F00700C4F8DC
:101AD00050B084F854B0246164624A464146FFF72E
:101AE00081F80B9B206003B11C60FFF7ABF8414A03
:101AF000414E1368013313603368002B48D0DFF880
:101B00002881D8F800309BB3E36ADFF82091DFF832
:101B100020C1D9F80020DCF800E038480132012566
:101B20002264C9F8002005FA03F203EB830342EABA
:101B30000E0200EB83003946CCF80020FFF782F953
:101B4000FFF790F8D8F80030FBB13268E36AD26A48
:101B50009A421AD22A4B4FF080521A60BFF34F8F2D
:101B6000BFF36F8F284601E04FF0FF30BDE8F88FDC
:101B70003268E36AD26A9A4298BF3460C5E7384651
:101B8000FEF7B4FF4FF0FF30F0E72846BDE8F88FCE
:101B900034601368012B06D0E36ADFF88C80B4E769
:101BA00084F834507BE71548DFF88890154DDFF84E
:101BB0007880FFF737F91448FFF734F91348FFF737
:101BC00031F91348FFF72EF91248FFF72BF9484671
:101BD000FFF728F92846FFF725F90F48FFF722F904
:101BE0000E48FFF71FF90E4B0E4AC2F800901D6019
:101BF000E36A8AE77C2E01200C2E0120182E01209A
:101C000004ED00E0A02E01202C2E0120402E01200A
:101C1000542E0120682E0120C42E0120DC2E01202C
:101C2000142E0120102E0120D82E0120842E0120F8
:101C3000882E01208C2E01202DE9F8434FF40270EC
:101C4000FEF7AAFE002800F0818005465820FEF726
:101C5000A3FE044600287DD04FF40272A52105633F
:101C6000284601F02DFA0025584B636304F104085F
:101C7000266B84F838504046C4E9125584F83D502C
:101C8000E562FFF7DBF804F11800FFF7D7F805234A
:101C900006F501702A464E49A36120F0070025652C
:101CA00084F8545024616462FEF79CFF494B206025
:101CB0001C60FEF7C7FF484A484F136801331360A2
:101CC0003B68002B54D0464D2B68002B49D0E36A6B
:101CD000444ADFF84CC11668DCF800E0424801369F
:101CE000166001229A4003EB830342EA0E0200EBE6
:101CF000830041462664CCF80020FFF7A3F8FEF7E6
:101D0000B1FF2B6863B13A68E36AD26A9A4207D29C
:101D1000364B4FF080521A60BFF34F8FBFF36F8F77
:101D200000F07AFD012811D14FF0500383F31188A0
:101D3000BFF36F8FBFF34F8F2D492E4B4FF0FF3402
:101D400000220C6028601A60FFF700F82A4B1B681D
:101D5000BDE8F8832846FEF7C9FE274B1B68BDE89F
:101D6000F8833A68E36AD26A9A4298BF3C60AFE768
:101D70003C601368012B02D0E36A194DA8E71A48AA
:101D8000DFF8A0901D4E164DFFF74CF81C48FFF7EA
:101D900049F81C48FFF746F81B48FFF743F81B4873
:101DA000FFF740F84846FFF73DF83046FFF73AF8AE
:101DB0001748FFF737F81748FFF734F8164B174A5C
:101DC000C2F800901E60E36A82E700BF49444C45B8
:101DD000DD170008B42E01207C2E01200C2E0120DE
:101DE000D82E0120842E0120182E012004ED00E0C1
:101DF000B82E0120F02E012024000020A02E01206A
:101E00002C2E0120402E0120542E0120682E01206E
:101E1000C42E0120DC2E0120142E0120102E0120C2
:101E2000882E01208C2E0120024A13680133136092
:101E3000704700BF802E01202DE9F04F434D83B045
:101E4000FEF700FF2B68013B2B602B68002B63D152
:101E50003F4B1B68002B5FD0DFF810B1DBF8003080
:101E6000002B6FD03B4B3C4EDFF80491DFF8048130
:101E700001930127DBF80C30DC6804F1040A04F15B
:101E80001800FFF707F85046FFF704F8E06A3268D9
:101E900007FA00F300EB80001343514609EB800082
:101EA0003360FEF7CFFFD8F80030E26ADB6A9A426F
:101EB0003AD3019B1F60DBF80030002BDAD1274BAF
:101EC0001A681268002A38D01A68254BD26812683E
:101ED0001A60244E346894B1012706E0FFF7D8FC5D
:101EE00008B1019B1F60013C08D02B68002BF5D086
:101EF0003368013C03F101033360F6D13460019B88
:101F00001B684BB1184B4FF080521A60BFF34F8FD4
:101F1000BFF36F8F012000E000200190FEF7A2FECA
:101F2000019803B0BDE8F08FDBF80030002BA1D1A1
:101F30000A4B1A681268002AC6D1094B4FF0FF32CB
:101F40001A60C6E7034B0193C3E700BF802E012050
:101F50007C2E0120F42E0120882E0120102E01203D
:101F6000B82E0120C02E012004ED00E0C42E012077
:101F7000182E01200C2E012070B540B91C4B4FF0DB
:101F800080521A60BFF34F8FBFF36F8F70BD194A35
:101F90001368013304461360174B184D1E682868F8
:101FA0000430FEF777FF40B92B681549D86A0B68F3
:101FB0000122824023EA02030B602B68A4195C60B3
:101FC0000FD2104B186829680431FEF74BFF0E4BF7
:101FD0001A68944238BF1C60FFF72EFF0028CDD04E
:101FE00070BD0A4B186829680431FEF73BFFF3E720
:101FF00004ED00E0802E0120F02E01200C2E0120A7
:10200000882E0120102E0120B82E0120142E012030
:10201000014B1868704700BFF02E0120054B1B686C
:102020000BB9FFF735BC044A136801331360002075
:10203000704700BF802E0120C02E0120114B1B686D
:102040001BB1114B01221A6070470F490F4A0B60F8
:102050001368B3FA83F3DBB20D4AC3F11F0303EB3A
:10206000830302EB83010B464A6852684A600833D7
:102070009A4208BF5268074B08BF4A60D2681A608C
:10208000704700BF802E0120F42E0120882E0120F1
:10209000182E01200C2E012070B51C4D2B680C460B
:1020A00003F11801FEF7DEFE194B1E6828680430A4
:1020B000FEF7F0FE40B92B681649D86A0B6801227A
:1020C000824023EA02030B60631C17D02B68A4191B
:1020D0005C6007D3104B18682968BDE87040043174
:1020E000FEF7C0BE0D4B186829680431FEF7BAFE32
:1020F0000B4B1A68944238BF1C6070BD29680948B0
:10210000BDE870400431FEF79DBE00BF0C2E0120DB
:10211000F02E0120882E0120142E0120102E0120E7
:10212000B82E0120DC2E0120F8B5214D2B680C467D
:1021300003F118011646FEF785FE1E4B1F6828683E
:102140000430EEB9FEF7A6FE50B92B681A49D86ADA
:102150000B680122824023EA02030B60631C1DD03E
:102160002B683C195C6011D2144B18682968043143
:10217000FEF778FE124B1A68944200D21C60F8BD3C
:10218000FEF788FE60B94FF0FF34DEE70D4B1868AC
:102190002968BDE8F8400431FEF764BE002EDFD0A8
:1021A00029680948BDE8F8400431FEF74BBE00BF7E
:1021B0000C2E0120F02E0120882E0120102E01204F
:1021C000B82E0120142E0120DC2E012070B5C3682A
:1021D000DC6804F1180582B02846FEF75BFE144B5C
:1021E0001B68FBB9211D134D01910846FEF752FEF5
:1021F000E26A2E68104801990123934002EB8202A3
:10220000334300EB82002B60FEF71CFE0B4BE26AAF
:102210001B68DB6A9A4285BF094B012000201860C9
:1022200002B070BD07482946FEF70CFEEEE700BF7E
:10223000802E0120882E0120182E01200C2E012036
:10224000F42E0120C42E0120F8B5C468114D41F0D0
:1022500000410160261DFEF71DFE3046FEF71AFE06
:10226000E36AD5F800C00C48012707FA03F203EB34
:10227000830342EA0C0200EB830031462A60FEF73A
:10228000E1FD064BE26A1B68DB6A9A4284BF044B9D
:102290001F60F8BD882E0120182E01200C2E012071
:1022A000F42E0120034A044B12681B68C0E9002386
:1022B000704700BFBC2E0120F02E0120F0B50D4666
:1022C00083B00446FEF7BEFC2B68134A591C106805
:1022D0001FD0DFF848C0D4E90061DCF80070BE42CE
:1022E0000AD0814208D800232B6001200190FEF71C
:1022F000B9FC019803B0F0BD471ABB42F3D91B1AD1
:102300000B44DCF8001012682B600020C4E90012B6
:10231000ECE70020EAE700BFF02E0120BC2E0120F0
:10232000014B01221A607047F42E0120054B1B68F7
:1023300033B1054B1B68002B0CBF022000207047F7
:1023400001207047D82E0120802E012068B1F0B501
:10235000C36CC16A826C013B914283B00446C36482
:1023600000D023B1002003B0F0BD00207047011D54
:1023700008460191FEF78EFD01990F4A30B9E56AD2
:1023800013680120A84023EA00031360A36C1768B8
:102390000A48E362012505FA03F63E43C3F1050747
:1023A00003EB830300EB8300A7611660FEF74AFD91
:1023B000284603B0F0BD00BF882E0120182E012052
:1023C0002DE9F041274D82B004461E468846174647
:1023D000FEF738FC2B68234493F85430022B0DD0C1
:1023E0002B6803EB840301211A6D22EA08021A65A7
:1023F0002B68234483F85410089BEBB9FEF732FC9A
:10240000FEF720FC2EB12B6804F1140253F82230A1
:1024100033602B68234493F85430022B18D00020EB
:102420002B6801901C44002384F85430FEF71AFCFA
:10243000019802B0BDE8F0811846FFF7E3F90A4BB6
:102440004FF080521A60BFF34F8FBFF36F8FD5E705
:102450002B6803EB840301201A6D22EA07071F652E
:10246000DEE700BF0C2E012004ED00E02DE9F04175
:1024700082B00746DDF820800C4616461D46FEF762
:10248000E1FBB8F1000F05D004F1140357F8233035
:10249000C8F8003039196B1E91F854500222EDB281
:1024A00081F85420032B08D8DFE803F0023A1140EA
:1024B00007EB8404226D16432665012D0CD0012004
:1024C0000190FEF7CFFB019802B0BDE8F081143413
:1024D000012D47F82460F2D1391D164C01910846B0
:1024E000FEF7D8FCFB6A26681348019905FA03F247
:1024F00003EB8303324300EB83002260FEF7A2FC70
:102500000E4BFA6A1B68DB6A9A42D8D90C4B4FF023
:1025100080521A60BFF34F8FBFF36F8F2846CFE70B
:1025200007EB8404236D01332365C6E7022DCED16A
:102530000020C5E7882E0120182E01200C2E012036
:1025400004ED00E02DE9F0431D4EDFF87C9085B0EE
:102550004FF000080DE0DB68DC681F68251D284689
:10256000FEF798FC236A2046984794F828305B07CA
:102570000AD433681A68002AEDD1124A1168316012
:10258000136005B0BDE8F083A3693B449F42294630
:1025900010D3D9F80030002BEBD0CDE9008702949E
:1025A000FFF7C4FE0023D9F800001A466946FEF77B
:1025B000F9FCDEE7306863602461FEF753FCD8E77E
:1025C000F82E0120FC2E01202C2F01202DE9F04FA8
:1025D0008C4F8D4DDFF838828C4EDFF838A28BB0EF
:1025E0003B68D3F800B0BBF1000F00F0A480DB68BB
:1025F000D3F800B0FFF718FCFFF70AFD2A68824203
:10260000814600F2A9808345286040F2B98000220B
:102610003068ABEB0901FFF77BF8FFF70DFC38B929
:102620004FF08053CAF80030BFF34F8FBFF36F8F66
:102630003068002202A9FEF7E7FE0028D0D0029BF6
:10264000002B6FDB049C636913B1201DFEF722FC95
:10265000FFF7DEFC2B6898428146C0F08480029B25
:10266000C5F80090092BE3D8DFE803F00505054B1A
:10267000345305054B3494F828100398A26924615B
:10268000831841F0010184F828102CBF012100219A
:102690004B4563606AD8A9EB000082422AD8236ABE
:1026A0002046984794F8283030685907C1D500284B
:1026B000BFD0A269039B00211344CDE907340691E2
:1026C000FFF734FE002330681A4606A9FEF76AFCBD
:1026D0003068AEE7039A94F82830246102EB0901D0
:1026E00043F00103494584F82830A261616041D874
:1026F000002A9DD0D8F80000211DFEF7B3FB3068FA
:1027000097E794F82830306823F0010384F82830E4
:102710008FE794F828309A074AD523F0010384F80C
:10272000283085E7039BDDE904019847029B002BD5
:10273000FFF67EAF86E7FFF777FBFFF769FC2A68B5
:102740008242814608D8D8F80020C5F80090126867
:10275000B2FA82F252095BE7FFF7F4FEC5F8009087
:10276000FFF76AFB64E7FFF7EDFE78E7484501D91C
:10277000002994D03868211DFEF774FB306858E7B3
:10278000FFF75AFB3A68D268D468211D08460191C8
:10279000FEF780FB94F82800019910F0040F0CD18B
:1027A00020F0010084F82800236A204698473FE77C
:1027B0002046FEF79BF930683BE7A26924610BEBEA
:1027C00002004845606003D93868FEF74BFBEBE731
:1027D000A9EB0B039A420FD83368002BE4D00023F7
:1027E000CDE9063B0894FFF7A1FD002330681A46A7
:1027F00006A9FEF7D7FBD7E7D8F80000FEF732FBB3
:10280000D2E700BFF82E0120282F01202C2F012015
:10281000FC2E012004ED00E0F0B5174C83B0FEF76C
:1028200011FA256885B1FEF71DFA206850B1134BE7
:102830000193022300931249124800234FF482723D
:10284000FFF7C8F803B0F0BD0F4F104E3846FEF743
:10285000E9FA3046FEF7E6FA0D4A0E4B17601021F2
:102860002A460A201E60FEF767FB20600028DAD0A7
:102870000949FEF723FFD6E72C2F0120302F012036
:1028800038310008CD250008002F0120142F012029
:10289000F82E0120FC2E01203031000870B5094EC1
:1028A00084B00446154601941A4602913068039597
:1028B0006FF00104002369460094FEF71FFD04B089
:1028C00070BD00BF2C2F012010B51349134882B0F2
:1028D000FDF78EFE012801D002B010BD044610485D
:1028E000FDF7A6FC0C490D48FDF7ACFE0D4B21464B
:1028F000D3F8DC0501AA00230193FEF787FA019BB8
:10290000002BE9D0084B4FF080521A60BFF34F8F75
:10291000BFF36F8F02B010BD2080001070640240C2
:10292000002001400000001004ED00E010B5144844
:1029300082B04FF40211FDF75BFE012801D002B016
:1029400010BD04460F48FDF773FC0F490C48FDF716
:1029500079FE0E4B2146D3F8DC0501AA0023019332
:10296000FEF754FA019B002BE9D0094B4FF080523F
:102970001A60BFF34F8FBFF36F8F02B010BD00BF5F
:10298000406402400021014020800010000000103F
:1029900004ED00E010B5144882B048F22001FDF7C4
:1029A00027FE012801D002B010BD04460F48FDF7F4
:1029B0003FFC0F490C48FDF745FE0E4B2146D3F86E
:1029C000DC0501AA00230193FEF720FA019B002BEE
:1029D000E9D0094B4FF080521A60BFF34F8FBFF31D
:1029E0006F8F02B010BD00BF106402400022014092
:1029F000208000100000001004ED00E010B5044637
:102A000084B04FF00070FDF781FE4FF48032002358
:102A1000642C0192ADF8083040D02FD8142C41D04E
:102A2000322C24D17823ADF80E3004230DEB0301B2
:102A30004FF4606222488DF80C30ADF80A20FDF7A3
:102A4000FDFB1F4840F21341FDF722FD0022052146
:102A50001420FDF717FE002205211520FDF712FEB8
:102A6000002205211620FDF70DFE04B010BD0A2C32
:102A70001DD14FF41673ADF80E30D6E7B4F5FA7FDA
:102A800019D0B4F57A7F03D10223ADF80E30CCE72C
:102A9000FA2C0CD10823ADF80E30C6E71423ADF89C
:102AA0000E30C2E74FF49673ADF80E30BDE7102339
:102AB000ADF80E30B9E70423ADF80E30B5E700BF2E
:102AC0000064004010B582B00023274927480193D5
:102AD000FDF7E2FC01281BD025492448FDF7DCFC6A
:102AE000012826D023492148FDF7D6FC012830D003
:102AF0001E480121FDF712FD019B3BB11E4B4FF01B
:102B000080521A60BFF34F8FBFF36F8F02B010BDBA
:102B1000154904461548FDF7E9FC184B214618688D
:102B200001AAFEF773F912491048FDF7B5FC012818
:102B3000D8D10F490D48FDF7D9FC104B01AA1868F0
:102B40000221FEF763F90B490848FDF7A5FC0128AF
:102B5000CED108490548FDF7C9FC084B01AA186801
:102B60000421FEF753F9C3E7010000380064004078
:102B7000000100380000013804ED00E0802F012042
:102B800030B58DB01A4805AA0021FDF7D1FB089B8E
:102B9000022B05D116480221FDF7C0FC0DB030BD57
:102BA000144C9DF82410144A059B9DF82D508DF867
:102BB0000810DDF8251010680193ADF812500023BD
:102BC000DDF82950CDF80910224601A92360CDF87F
:102BD0000D50FEF793FB2368002BDBD0074B4FF023
:102BE00080521A60BFF34F8FBFF36F8FD2E700BFE1
:102BF00000640040382F01207C2F012004ED00E00C
:102C000030B58DB01A4805AA0121FDF791FB089B4C
:102C1000022B05D116481021FDF780FC0DB030BD08
:102C2000144C9DF82410144A059B9DF82D508DF8E6
:102C30000810DDF8251010680193ADF8125000233C
:102C4000DDF82950CDF80910224601A92360CDF8FE
:102C50000D50FEF753FB2368002BDBD0074B4FF0E2
:102C600080521A60BFF34F8FBFF36F8FD2E700BF60
:102C700000640040382F01207C2F012004ED00E08B
:102C800070B5104C104D20464FF48061FDF746FCA6
:102C90000E4B00211868FEF711F90D4B0021186842
:102CA000FEF70CF92E8800212046FDF791FB3046F7
:102CB0002E80FFF7A3FE20460121BDE87040FDF7FE
:102CC00087BB00BF00640040342F0120842F012007
:102CD0007C2F01200B2801D900207047034B03EB08
:102CE000800233F820109078FDF72CBE40310008A8
:102CF00000487047E005001008B502210820FDF7E4
:102D000029FE032800D808BD0146BDE80840082078
:102D1000FDF7B8BD08B502210920FDF71BFE032809
:102D200000D808BD0146BDE808400520FDF7AABD52
:102D300010B588B01C4B079301A90A240020CDE9E7
:102D400004448DF80800FDF749FD01A90120FDF7B5
:102D500045FD01A90220FDF741FD01A90320FDF772
:102D60003DFD01A90420FDF739FD01A90520FDF76E
:102D700035FD01A90620FDF731FD01A90720FDF76A
:102D80002DFD01A90820FDF729FD01A90920FDF766
:102D900025FD01A92046FDF721FD01A90B20FDF726
:102DA0001DFD08B010BD00BFD52C000880B5284C13
:102DB000002584B02572012603270120FFF7DCF8E7
:102DC000237A042BF9D801A252F823F0332E0008FD
:102DD000192E0008BB2D0008012E0008E12D000867
:102DE000FDF772FD00210095084603ABFF22FFF7B7
:102DF000E7FA0128E1D1039B9B07DED52772DCE7C8
:102E0000636804221868009503230021FFF72EFB56
:102E10000128D2D12572D0E7636804221868009592
:102E200003230021FFF722FB0128C6D104232372CC
:102E3000C3E7642300210093FF2203AB0846FFF79A
:102E4000BFFA039B9A07B8D0FFF772FF2672B4E768
:102E5000E0050010DFF834D00D480E490E4A00237B
:102E600002E0D458C4500433C4188C42F9D30B4A3E
:102E70000B4C002301E013600432A242FBD300F0AC
:102E800013F800F0EBF800F0D5F8704700000220CE
:102E9000000000203C000020783100083C000020A9
:102EA000882F0120FEE700003A493B4BD1F88820EB
:102EB0003A4810B442F47002C1F888201A68002120
:102EC00042F001021A6099601A6822F0847222F4BA
:102ED00080321A6058601A6822F480221A60D96021
:102EE0001A6883B042F480321A600191019AB2F5F7
:102EF000A04F07D309E0019A01320192019AB2F57D
:102F0000A04F02D21A689003F5D5234B1A6891039B
:102F100037D51A6C2249234842F080521A640A6855
:102F2000012464F38F320A609A686FF307129A6083
:102F30009A68042161F34F329A609A68052161F31F
:102F40008C229A6058605A6842F480025A601A686B
:102F500042F080721A601A689201FCD5124A0E493A
:102F600040F2057010609A686FF301029A609A68E7
:102F7000022060F301029A608B68C3F38103022B85
:102F8000FAD1044B4FF000629A6003B05DF8044B35
:102F9000704700BF00ED00E0003802401030002410
:102FA0000070004008540007003C0240164A936835
:102FB000C3F38103012B0CD0022B0CD0134B124A0C
:102FC000134892681349C2F30312825CD3400B602A
:102FD0007047114BF3E75368516813F4800F01F009
:102FE0003F0153680CBF094A0B4AB2FBF1F1064A94
:102FF0005268C2F30142C3F38813013203FB01F3A9
:103000005200B3FBF2F3DAE7003802400024F40088
:10301000280000203800002000127A00704700BF0E
:10302000FEE700BFFEE700BFFEE700BFFEE700BF10
:10303000704700BF08B5FFF7B9FF074AD3684FF6DE
:10304000FF010B4043F0BF6343F40033D360FDF74F
:10305000CDF8FEF7F1FDFEE700ED00E070B50D4D97
:103060000D4C641BA4100026A64209D10B4D0C4C3C
:1030700000F02EF8641BA4100026A64205D170BDF6
:1030800055F8043B98470136EEE755F8043B98475E
:103090000136F2E770310008703100087031000825
:1030A000743100080A44914200F1FF3300D17047A7
:1030B00010B511F8014B03F8014F9142F9D110BD41
:1030C00002440346934200D1704703F8011BF9E71D
:1030D000F8B500BFF8BC08BC9E467047F8B500BF05
:0830E000F8BC08BC9E467047D5
:1030E80044696E5461736B005461736B3200000065
:1030F80000000140000000400004004000080040BB
:10310800000C004000100040001400400004014082
:1031180000400140004401400048014000180040C0
:10312800001C004000200040546D72510000000057
:10313800546D7220537663000100040002000400FD
:10314800040004000800040010000400200004002B
:1031580040000400000201000001010000200500F9
:08316800004005000080050095
:04317000C50100088D
:04317400A1010008AD
:10317800000002400004024000080240000C024027
:10318800001002400014024000180240001C0240D7
:10319800AAAAAAAA0400000000000000000000007B
:0C31A800010203040607080900E1F50518
:1031B400000000000000000000000000000000000B
:1031C40000000000000000000000000000000000FB
:1031D40000000000000000000000000000000000EB
:1031E40000000000000000000000000000000000DB
:0400000508002E556C
:00000001FF
